{
	"contracts/ProofOfSpace.sol": {
		"ProofOfSpace": {
			"abi": [
				{
					"inputs": [],
					"stateMutability": "nonpayable",
					"type": "constructor"
				},
				{
					"anonymous": false,
					"inputs": [
						{
							"indexed": true,
							"internalType": "address",
							"name": "deployer",
							"type": "address"
						},
						{
							"indexed": false,
							"internalType": "uint256",
							"name": "rewards",
							"type": "uint256"
						}
					],
					"name": "ContractDeployed",
					"type": "event"
				},
				{
					"anonymous": false,
					"inputs": [
						{
							"indexed": true,
							"internalType": "address",
							"name": "miner",
							"type": "address"
						},
						{
							"indexed": false,
							"internalType": "bool",
							"name": "valid",
							"type": "bool"
						},
						{
							"indexed": false,
							"internalType": "uint256",
							"name": "reward",
							"type": "uint256"
						}
					],
					"name": "ProofSubmitted",
					"type": "event"
				},
				{
					"anonymous": false,
					"inputs": [
						{
							"indexed": true,
							"internalType": "address",
							"name": "miner",
							"type": "address"
						},
						{
							"indexed": false,
							"internalType": "uint256",
							"name": "spaceSize",
							"type": "uint256"
						},
						{
							"indexed": false,
							"internalType": "bytes32",
							"name": "commitment",
							"type": "bytes32"
						}
					],
					"name": "SpaceCommitted",
					"type": "event"
				},
				{
					"inputs": [
						{
							"internalType": "bytes32",
							"name": "_commitment",
							"type": "bytes32"
						},
						{
							"internalType": "uint256",
							"name": "_spaceSize",
							"type": "uint256"
						}
					],
					"name": "commitSpace",
					"outputs": [],
					"stateMutability": "nonpayable",
					"type": "function"
				},
				{
					"inputs": [],
					"name": "getRewardBalance",
					"outputs": [
						{
							"internalType": "uint256",
							"name": "",
							"type": "uint256"
						}
					],
					"stateMutability": "view",
					"type": "function"
				},
				{
					"inputs": [
						{
							"internalType": "address",
							"name": "",
							"type": "address"
						}
					],
					"name": "miners",
					"outputs": [
						{
							"internalType": "bytes32",
							"name": "commitment",
							"type": "bytes32"
						},
						{
							"internalType": "uint256",
							"name": "spaceSize",
							"type": "uint256"
						},
						{
							"internalType": "bool",
							"name": "hasProven",
							"type": "bool"
						}
					],
					"stateMutability": "view",
					"type": "function"
				},
				{
					"inputs": [
						{
							"internalType": "address",
							"name": "",
							"type": "address"
						}
					],
					"name": "rewards",
					"outputs": [
						{
							"internalType": "uint256",
							"name": "",
							"type": "uint256"
						}
					],
					"stateMutability": "view",
					"type": "function"
				},
				{
					"inputs": [
						{
							"internalType": "bytes32",
							"name": "_proof",
							"type": "bytes32"
						}
					],
					"name": "submitProof",
					"outputs": [],
					"stateMutability": "nonpayable",
					"type": "function"
				},
				{
					"inputs": [],
					"name": "totalRewards",
					"outputs": [
						{
							"internalType": "uint256",
							"name": "",
							"type": "uint256"
						}
					],
					"stateMutability": "view",
					"type": "function"
				}
			],
			"devdoc": {
				"kind": "dev",
				"methods": {},
				"version": 1
			},
			"evm": {
				"assembly": "    /* \"contracts/ProofOfSpace.sol\":58:1949  contract ProofOfSpace {... */\n  mstore(0x40, 0x80)\n    /* \"contracts/ProofOfSpace.sol\":672:823  constructor() {... */\n  callvalue\n  dup1\n  iszero\n  tag_1\n  jumpi\n  0x00\n  dup1\n  revert\ntag_1:\n  pop\n    /* \"contracts/ProofOfSpace.sol\":711:720  500 ether */\n  0x1b1ae4d6e2ef500000\n    /* \"contracts/ProofOfSpace.sol\":696:708  totalRewards */\n  0x02\n    /* \"contracts/ProofOfSpace.sol\":696:720  totalRewards = 500 ether */\n  dup2\n  swap1\n  sstore\n  pop\n    /* \"contracts/ProofOfSpace.sol\":791:801  msg.sender */\n  caller\n    /* \"contracts/ProofOfSpace.sol\":774:816  ContractDeployed(msg.sender, totalRewards) */\n  0xffffffffffffffffffffffffffffffffffffffff\n  and\n  0x836641082a104c21a747f2896a189cda6d34502edf7de2f98afc4460d0720bfa\n    /* \"contracts/ProofOfSpace.sol\":803:815  totalRewards */\n  sload(0x02)\n    /* \"contracts/ProofOfSpace.sol\":774:816  ContractDeployed(msg.sender, totalRewards) */\n  mload(0x40)\n  tag_4\n  swap2\n  swap1\n  tag_5\n  jump\t// in\ntag_4:\n  mload(0x40)\n  dup1\n  swap2\n  sub\n  swap1\n  log2\n    /* \"contracts/ProofOfSpace.sol\":58:1949  contract ProofOfSpace {... */\n  jump(tag_6)\n    /* \"#utility.yul\":7:84   */\ntag_7:\n    /* \"#utility.yul\":44:51   */\n  0x00\n    /* \"#utility.yul\":73:78   */\n  dup2\n    /* \"#utility.yul\":62:78   */\n  swap1\n  pop\n    /* \"#utility.yul\":7:84   */\n  swap2\n  swap1\n  pop\n  jump\t// out\n    /* \"#utility.yul\":90:208   */\ntag_8:\n    /* \"#utility.yul\":177:201   */\n  tag_12\n    /* \"#utility.yul\":195:200   */\n  dup2\n    /* \"#utility.yul\":177:201   */\n  tag_7\n  jump\t// in\ntag_12:\n    /* \"#utility.yul\":172:175   */\n  dup3\n    /* \"#utility.yul\":165:202   */\n  mstore\n    /* \"#utility.yul\":90:208   */\n  pop\n  pop\n  jump\t// out\n    /* \"#utility.yul\":214:436   */\ntag_5:\n    /* \"#utility.yul\":307:311   */\n  0x00\n    /* \"#utility.yul\":345:347   */\n  0x20\n    /* \"#utility.yul\":334:343   */\n  dup3\n    /* \"#utility.yul\":330:348   */\n  add\n    /* \"#utility.yul\":322:348   */\n  swap1\n  pop\n    /* \"#utility.yul\":358:429   */\n  tag_14\n    /* \"#utility.yul\":426:427   */\n  0x00\n    /* \"#utility.yul\":415:424   */\n  dup4\n    /* \"#utility.yul\":411:428   */\n  add\n    /* \"#utility.yul\":402:408   */\n  dup5\n    /* \"#utility.yul\":358:429   */\n  tag_8\n  jump\t// in\ntag_14:\n    /* \"#utility.yul\":214:436   */\n  swap3\n  swap2\n  pop\n  pop\n  jump\t// out\n    /* \"contracts/ProofOfSpace.sol\":58:1949  contract ProofOfSpace {... */\ntag_6:\n  dataSize(sub_0)\n  dup1\n  dataOffset(sub_0)\n  0x00\n  codecopy\n  0x00\n  return\nstop\n\nsub_0: assembly {\n        /* \"contracts/ProofOfSpace.sol\":58:1949  contract ProofOfSpace {... */\n      mstore(0x40, 0x80)\n      callvalue\n      dup1\n      iszero\n      tag_1\n      jumpi\n      0x00\n      dup1\n      revert\n    tag_1:\n      pop\n      jumpi(tag_2, lt(calldatasize, 0x04))\n      shr(0xe0, calldataload(0x00))\n      dup1\n      0x0700037d\n      eq\n      tag_3\n      jumpi\n      dup1\n      0x0e15561a\n      eq\n      tag_4\n      jumpi\n      dup1\n      0x5e42b455\n      eq\n      tag_5\n      jumpi\n      dup1\n      0x648ec7b9\n      eq\n      tag_6\n      jumpi\n      dup1\n      0x6989215e\n      eq\n      tag_7\n      jumpi\n      dup1\n      0xbf084408\n      eq\n      tag_8\n      jumpi\n    tag_2:\n      0x00\n      dup1\n      revert\n        /* \"contracts/ProofOfSpace.sol\":338:380  mapping(address => uint256) public rewards */\n    tag_3:\n      tag_9\n      0x04\n      dup1\n      calldatasize\n      sub\n      dup2\n      add\n      swap1\n      tag_10\n      swap2\n      swap1\n      tag_11\n      jump\t// in\n    tag_10:\n      tag_12\n      jump\t// in\n    tag_9:\n      mload(0x40)\n      tag_13\n      swap2\n      swap1\n      tag_14\n      jump\t// in\n    tag_13:\n      mload(0x40)\n      dup1\n      swap2\n      sub\n      swap1\n      return\n        /* \"contracts/ProofOfSpace.sol\":386:413  uint256 public totalRewards */\n    tag_4:\n      tag_15\n      tag_16\n      jump\t// in\n    tag_15:\n      mload(0x40)\n      tag_17\n      swap2\n      swap1\n      tag_14\n      jump\t// in\n    tag_17:\n      mload(0x40)\n      dup1\n      swap2\n      sub\n      swap1\n      return\n        /* \"contracts/ProofOfSpace.sol\":1844:1947  function getRewardBalance() external view returns (uint256) {... */\n    tag_5:\n      tag_18\n      tag_19\n      jump\t// in\n    tag_18:\n      mload(0x40)\n      tag_20\n      swap2\n      swap1\n      tag_14\n      jump\t// in\n    tag_20:\n      mload(0x40)\n      dup1\n      swap2\n      sub\n      swap1\n      return\n        /* \"contracts/ProofOfSpace.sol\":293:332  mapping(address => Miner) public miners */\n    tag_6:\n      tag_21\n      0x04\n      dup1\n      calldatasize\n      sub\n      dup2\n      add\n      swap1\n      tag_22\n      swap2\n      swap1\n      tag_11\n      jump\t// in\n    tag_22:\n      tag_23\n      jump\t// in\n    tag_21:\n      mload(0x40)\n      tag_24\n      swap4\n      swap3\n      swap2\n      swap1\n      tag_25\n      jump\t// in\n    tag_24:\n      mload(0x40)\n      dup1\n      swap2\n      sub\n      swap1\n      return\n        /* \"contracts/ProofOfSpace.sol\":856:1151  function commitSpace(bytes32 _commitment, uint256 _spaceSize) external {... */\n    tag_7:\n      tag_26\n      0x04\n      dup1\n      calldatasize\n      sub\n      dup2\n      add\n      swap1\n      tag_27\n      swap2\n      swap1\n      tag_28\n      jump\t// in\n    tag_27:\n      tag_29\n      jump\t// in\n    tag_26:\n      stop\n        /* \"contracts/ProofOfSpace.sol\":1201:1802  function submitProof(bytes32 _proof) external {... */\n    tag_8:\n      tag_30\n      0x04\n      dup1\n      calldatasize\n      sub\n      dup2\n      add\n      swap1\n      tag_31\n      swap2\n      swap1\n      tag_32\n      jump\t// in\n    tag_31:\n      tag_33\n      jump\t// in\n    tag_30:\n      stop\n        /* \"contracts/ProofOfSpace.sol\":338:380  mapping(address => uint256) public rewards */\n    tag_12:\n      mstore(0x20, 0x01)\n      dup1\n      0x00\n      mstore\n      keccak256(0x00, 0x40)\n      0x00\n      swap2\n      pop\n      swap1\n      pop\n      sload\n      dup2\n      jump\t// out\n        /* \"contracts/ProofOfSpace.sol\":386:413  uint256 public totalRewards */\n    tag_16:\n      sload(0x02)\n      dup2\n      jump\t// out\n        /* \"contracts/ProofOfSpace.sol\":1844:1947  function getRewardBalance() external view returns (uint256) {... */\n    tag_19:\n        /* \"contracts/ProofOfSpace.sol\":1895:1902  uint256 */\n      0x00\n        /* \"contracts/ProofOfSpace.sol\":1921:1928  rewards */\n      0x01\n        /* \"contracts/ProofOfSpace.sol\":1921:1940  rewards[msg.sender] */\n      0x00\n        /* \"contracts/ProofOfSpace.sol\":1929:1939  msg.sender */\n      caller\n        /* \"contracts/ProofOfSpace.sol\":1921:1940  rewards[msg.sender] */\n      0xffffffffffffffffffffffffffffffffffffffff\n      and\n      0xffffffffffffffffffffffffffffffffffffffff\n      and\n      dup2\n      mstore\n      0x20\n      add\n      swap1\n      dup2\n      mstore\n      0x20\n      add\n      0x00\n      keccak256\n      sload\n        /* \"contracts/ProofOfSpace.sol\":1914:1940  return rewards[msg.sender] */\n      swap1\n      pop\n        /* \"contracts/ProofOfSpace.sol\":1844:1947  function getRewardBalance() external view returns (uint256) {... */\n      swap1\n      jump\t// out\n        /* \"contracts/ProofOfSpace.sol\":293:332  mapping(address => Miner) public miners */\n    tag_23:\n      mstore(0x20, 0x00)\n      dup1\n      0x00\n      mstore\n      keccak256(0x00, 0x40)\n      0x00\n      swap2\n      pop\n      swap1\n      pop\n      dup1\n      0x00\n      add\n      sload\n      swap1\n      dup1\n      0x01\n      add\n      sload\n      swap1\n      dup1\n      0x02\n      add\n      0x00\n      swap1\n      sload\n      swap1\n      0x0100\n      exp\n      swap1\n      div\n      0xff\n      and\n      swap1\n      pop\n      dup4\n      jump\t// out\n        /* \"contracts/ProofOfSpace.sol\":856:1151  function commitSpace(bytes32 _commitment, uint256 _spaceSize) external {... */\n    tag_29:\n        /* \"contracts/ProofOfSpace.sol\":986:987  0 */\n      0x00\n        /* \"contracts/ProofOfSpace.sol\":978:988  bytes32(0) */\n      dup1\n      shl\n        /* \"contracts/ProofOfSpace.sol\":945:951  miners */\n      0x00\n        /* \"contracts/ProofOfSpace.sol\":945:963  miners[msg.sender] */\n      dup1\n        /* \"contracts/ProofOfSpace.sol\":952:962  msg.sender */\n      caller\n        /* \"contracts/ProofOfSpace.sol\":945:963  miners[msg.sender] */\n      0xffffffffffffffffffffffffffffffffffffffff\n      and\n      0xffffffffffffffffffffffffffffffffffffffff\n      and\n      dup2\n      mstore\n      0x20\n      add\n      swap1\n      dup2\n      mstore\n      0x20\n      add\n      0x00\n      keccak256\n        /* \"contracts/ProofOfSpace.sol\":945:974  miners[msg.sender].commitment */\n      0x00\n      add\n      sload\n        /* \"contracts/ProofOfSpace.sol\":945:988  miners[msg.sender].commitment == bytes32(0) */\n      eq\n        /* \"contracts/ProofOfSpace.sol\":937:1010  require(miners[msg.sender].commitment == bytes32(0), \"Already committed\") */\n      tag_36\n      jumpi\n      mload(0x40)\n      0x08c379a000000000000000000000000000000000000000000000000000000000\n      dup2\n      mstore\n      0x04\n      add\n      tag_37\n      swap1\n      tag_38\n      jump\t// in\n    tag_37:\n      mload(0x40)\n      dup1\n      swap2\n      sub\n      swap1\n      revert\n    tag_36:\n        /* \"contracts/ProofOfSpace.sol\":1041:1078  Miner(_commitment, _spaceSize, false) */\n      mload(0x40)\n      dup1\n      0x60\n      add\n      0x40\n      mstore\n      dup1\n        /* \"contracts/ProofOfSpace.sol\":1047:1058  _commitment */\n      dup4\n        /* \"contracts/ProofOfSpace.sol\":1041:1078  Miner(_commitment, _spaceSize, false) */\n      dup2\n      mstore\n      0x20\n      add\n        /* \"contracts/ProofOfSpace.sol\":1060:1070  _spaceSize */\n      dup3\n        /* \"contracts/ProofOfSpace.sol\":1041:1078  Miner(_commitment, _spaceSize, false) */\n      dup2\n      mstore\n      0x20\n      add\n        /* \"contracts/ProofOfSpace.sol\":1072:1077  false */\n      0x00\n        /* \"contracts/ProofOfSpace.sol\":1041:1078  Miner(_commitment, _spaceSize, false) */\n      iszero\n      iszero\n      dup2\n      mstore\n      pop\n        /* \"contracts/ProofOfSpace.sol\":1020:1026  miners */\n      0x00\n        /* \"contracts/ProofOfSpace.sol\":1020:1038  miners[msg.sender] */\n      dup1\n        /* \"contracts/ProofOfSpace.sol\":1027:1037  msg.sender */\n      caller\n        /* \"contracts/ProofOfSpace.sol\":1020:1038  miners[msg.sender] */\n      0xffffffffffffffffffffffffffffffffffffffff\n      and\n      0xffffffffffffffffffffffffffffffffffffffff\n      and\n      dup2\n      mstore\n      0x20\n      add\n      swap1\n      dup2\n      mstore\n      0x20\n      add\n      0x00\n      keccak256\n        /* \"contracts/ProofOfSpace.sol\":1020:1078  miners[msg.sender] = Miner(_commitment, _spaceSize, false) */\n      0x00\n      dup3\n      add\n      mload\n      dup2\n      0x00\n      add\n      sstore\n      0x20\n      dup3\n      add\n      mload\n      dup2\n      0x01\n      add\n      sstore\n      0x40\n      dup3\n      add\n      mload\n      dup2\n      0x02\n      add\n      exp(0x0100, 0x00)\n      dup2\n      sload\n      dup2\n      0xff\n      mul\n      not\n      and\n      swap1\n      dup4\n      iszero\n      iszero\n      mul\n      or\n      swap1\n      sstore\n      pop\n      swap1\n      pop\n      pop\n        /* \"contracts/ProofOfSpace.sol\":1108:1118  msg.sender */\n      caller\n        /* \"contracts/ProofOfSpace.sol\":1093:1144  SpaceCommitted(msg.sender, _spaceSize, _commitment) */\n      0xffffffffffffffffffffffffffffffffffffffff\n      and\n      0xe2eb33eec42936fce5a1488187b0b2acf48613ce9b785240c133904e680df2b3\n        /* \"contracts/ProofOfSpace.sol\":1120:1130  _spaceSize */\n      dup3\n        /* \"contracts/ProofOfSpace.sol\":1132:1143  _commitment */\n      dup5\n        /* \"contracts/ProofOfSpace.sol\":1093:1144  SpaceCommitted(msg.sender, _spaceSize, _commitment) */\n      mload(0x40)\n      tag_39\n      swap3\n      swap2\n      swap1\n      tag_40\n      jump\t// in\n    tag_39:\n      mload(0x40)\n      dup1\n      swap2\n      sub\n      swap1\n      log2\n        /* \"contracts/ProofOfSpace.sol\":856:1151  function commitSpace(bytes32 _commitment, uint256 _spaceSize) external {... */\n      pop\n      pop\n      jump\t// out\n        /* \"contracts/ProofOfSpace.sol\":1201:1802  function submitProof(bytes32 _proof) external {... */\n    tag_33:\n        /* \"contracts/ProofOfSpace.sol\":1306:1307  0 */\n      0x00\n        /* \"contracts/ProofOfSpace.sol\":1298:1308  bytes32(0) */\n      dup1\n      shl\n        /* \"contracts/ProofOfSpace.sol\":1265:1271  miners */\n      0x00\n        /* \"contracts/ProofOfSpace.sol\":1265:1283  miners[msg.sender] */\n      dup1\n        /* \"contracts/ProofOfSpace.sol\":1272:1282  msg.sender */\n      caller\n        /* \"contracts/ProofOfSpace.sol\":1265:1283  miners[msg.sender] */\n      0xffffffffffffffffffffffffffffffffffffffff\n      and\n      0xffffffffffffffffffffffffffffffffffffffff\n      and\n      dup2\n      mstore\n      0x20\n      add\n      swap1\n      dup2\n      mstore\n      0x20\n      add\n      0x00\n      keccak256\n        /* \"contracts/ProofOfSpace.sol\":1265:1294  miners[msg.sender].commitment */\n      0x00\n      add\n      sload\n        /* \"contracts/ProofOfSpace.sol\":1265:1308  miners[msg.sender].commitment != bytes32(0) */\n      sub\n        /* \"contracts/ProofOfSpace.sol\":1257:1332  require(miners[msg.sender].commitment != bytes32(0), \"No commitment found\") */\n      tag_42\n      jumpi\n      mload(0x40)\n      0x08c379a000000000000000000000000000000000000000000000000000000000\n      dup2\n      mstore\n      0x04\n      add\n      tag_43\n      swap1\n      tag_44\n      jump\t// in\n    tag_43:\n      mload(0x40)\n      dup1\n      swap2\n      sub\n      swap1\n      revert\n    tag_42:\n        /* \"contracts/ProofOfSpace.sol\":1351:1357  miners */\n      0x00\n        /* \"contracts/ProofOfSpace.sol\":1351:1369  miners[msg.sender] */\n      dup1\n        /* \"contracts/ProofOfSpace.sol\":1358:1368  msg.sender */\n      caller\n        /* \"contracts/ProofOfSpace.sol\":1351:1369  miners[msg.sender] */\n      0xffffffffffffffffffffffffffffffffffffffff\n      and\n      0xffffffffffffffffffffffffffffffffffffffff\n      and\n      dup2\n      mstore\n      0x20\n      add\n      swap1\n      dup2\n      mstore\n      0x20\n      add\n      0x00\n      keccak256\n        /* \"contracts/ProofOfSpace.sol\":1351:1379  miners[msg.sender].hasProven */\n      0x02\n      add\n      0x00\n      swap1\n      sload\n      swap1\n      0x0100\n      exp\n      swap1\n      div\n      0xff\n      and\n        /* \"contracts/ProofOfSpace.sol\":1350:1379  !miners[msg.sender].hasProven */\n      iszero\n        /* \"contracts/ProofOfSpace.sol\":1342:1398  require(!miners[msg.sender].hasProven, \"Already proven\") */\n      tag_45\n      jumpi\n      mload(0x40)\n      0x08c379a000000000000000000000000000000000000000000000000000000000\n      dup2\n      mstore\n      0x04\n      add\n      tag_46\n      swap1\n      tag_47\n      jump\t// in\n    tag_46:\n      mload(0x40)\n      dup1\n      swap2\n      sub\n      swap1\n      revert\n    tag_45:\n        /* \"contracts/ProofOfSpace.sol\":1409:1421  bool isValid */\n      0x00\n        /* \"contracts/ProofOfSpace.sol\":1434:1440  miners */\n      dup1\n        /* \"contracts/ProofOfSpace.sol\":1434:1452  miners[msg.sender] */\n      0x00\n        /* \"contracts/ProofOfSpace.sol\":1441:1451  msg.sender */\n      caller\n        /* \"contracts/ProofOfSpace.sol\":1434:1452  miners[msg.sender] */\n      0xffffffffffffffffffffffffffffffffffffffff\n      and\n      0xffffffffffffffffffffffffffffffffffffffff\n      and\n      dup2\n      mstore\n      0x20\n      add\n      swap1\n      dup2\n      mstore\n      0x20\n      add\n      0x00\n      keccak256\n        /* \"contracts/ProofOfSpace.sol\":1434:1463  miners[msg.sender].commitment */\n      0x00\n      add\n      sload\n        /* \"contracts/ProofOfSpace.sol\":1424:1430  _proof */\n      dup3\n        /* \"contracts/ProofOfSpace.sol\":1424:1463  _proof == miners[msg.sender].commitment */\n      eq\n        /* \"contracts/ProofOfSpace.sol\":1409:1463  bool isValid = _proof == miners[msg.sender].commitment */\n      swap1\n      pop\n        /* \"contracts/ProofOfSpace.sol\":1477:1484  isValid */\n      dup1\n        /* \"contracts/ProofOfSpace.sol\":1473:1710  if (isValid) {... */\n      iszero\n      tag_48\n      jumpi\n        /* \"contracts/ProofOfSpace.sol\":1531:1535  true */\n      0x01\n        /* \"contracts/ProofOfSpace.sol\":1500:1506  miners */\n      0x00\n        /* \"contracts/ProofOfSpace.sol\":1500:1518  miners[msg.sender] */\n      dup1\n        /* \"contracts/ProofOfSpace.sol\":1507:1517  msg.sender */\n      caller\n        /* \"contracts/ProofOfSpace.sol\":1500:1518  miners[msg.sender] */\n      0xffffffffffffffffffffffffffffffffffffffff\n      and\n      0xffffffffffffffffffffffffffffffffffffffff\n      and\n      dup2\n      mstore\n      0x20\n      add\n      swap1\n      dup2\n      mstore\n      0x20\n      add\n      0x00\n      keccak256\n        /* \"contracts/ProofOfSpace.sol\":1500:1528  miners[msg.sender].hasProven */\n      0x02\n      add\n      0x00\n        /* \"contracts/ProofOfSpace.sol\":1500:1535  miners[msg.sender].hasProven = true */\n      0x0100\n      exp\n      dup2\n      sload\n      dup2\n      0xff\n      mul\n      not\n      and\n      swap1\n      dup4\n      iszero\n      iszero\n      mul\n      or\n      swap1\n      sstore\n      pop\n        /* \"contracts/ProofOfSpace.sol\":1549:1563  uint256 reward */\n      0x00\n        /* \"contracts/ProofOfSpace.sol\":1597:1604  1 ether */\n      0x0de0b6b3a7640000\n        /* \"contracts/ProofOfSpace.sol\":1566:1572  miners */\n      0x00\n        /* \"contracts/ProofOfSpace.sol\":1566:1584  miners[msg.sender] */\n      dup1\n        /* \"contracts/ProofOfSpace.sol\":1573:1583  msg.sender */\n      caller\n        /* \"contracts/ProofOfSpace.sol\":1566:1584  miners[msg.sender] */\n      0xffffffffffffffffffffffffffffffffffffffff\n      and\n      0xffffffffffffffffffffffffffffffffffffffff\n      and\n      dup2\n      mstore\n      0x20\n      add\n      swap1\n      dup2\n      mstore\n      0x20\n      add\n      0x00\n      keccak256\n        /* \"contracts/ProofOfSpace.sol\":1566:1594  miners[msg.sender].spaceSize */\n      0x01\n      add\n      sload\n        /* \"contracts/ProofOfSpace.sol\":1566:1604  miners[msg.sender].spaceSize * 1 ether */\n      tag_49\n      swap2\n      swap1\n      tag_50\n      jump\t// in\n    tag_49:\n        /* \"contracts/ProofOfSpace.sol\":1549:1604  uint256 reward = miners[msg.sender].spaceSize * 1 ether */\n      swap1\n      pop\n        /* \"contracts/ProofOfSpace.sol\":1657:1663  reward */\n      dup1\n        /* \"contracts/ProofOfSpace.sol\":1634:1641  rewards */\n      0x01\n        /* \"contracts/ProofOfSpace.sol\":1634:1653  rewards[msg.sender] */\n      0x00\n        /* \"contracts/ProofOfSpace.sol\":1642:1652  msg.sender */\n      caller\n        /* \"contracts/ProofOfSpace.sol\":1634:1653  rewards[msg.sender] */\n      0xffffffffffffffffffffffffffffffffffffffff\n      and\n      0xffffffffffffffffffffffffffffffffffffffff\n      and\n      dup2\n      mstore\n      0x20\n      add\n      swap1\n      dup2\n      mstore\n      0x20\n      add\n      0x00\n      keccak256\n      0x00\n        /* \"contracts/ProofOfSpace.sol\":1634:1663  rewards[msg.sender] += reward */\n      dup3\n      dup3\n      sload\n      tag_51\n      swap2\n      swap1\n      tag_52\n      jump\t// in\n    tag_51:\n      swap3\n      pop\n      pop\n      dup2\n      swap1\n      sstore\n      pop\n        /* \"contracts/ProofOfSpace.sol\":1693:1699  reward */\n      dup1\n        /* \"contracts/ProofOfSpace.sol\":1677:1689  totalRewards */\n      0x02\n      0x00\n        /* \"contracts/ProofOfSpace.sol\":1677:1699  totalRewards -= reward */\n      dup3\n      dup3\n      sload\n      tag_53\n      swap2\n      swap1\n      tag_54\n      jump\t// in\n    tag_53:\n      swap3\n      pop\n      pop\n      dup2\n      swap1\n      sstore\n      pop\n        /* \"contracts/ProofOfSpace.sol\":1486:1710  {... */\n      pop\n        /* \"contracts/ProofOfSpace.sol\":1473:1710  if (isValid) {... */\n    tag_48:\n        /* \"contracts/ProofOfSpace.sol\":1740:1750  msg.sender */\n      caller\n        /* \"contracts/ProofOfSpace.sol\":1725:1795  ProofSubmitted(msg.sender, isValid, isValid ? rewards[msg.sender] : 0) */\n      0xffffffffffffffffffffffffffffffffffffffff\n      and\n      0x7d8f1a1a8984821006da08e5f4d59660b0f444d4fcca71bd99448c27057bfd50\n        /* \"contracts/ProofOfSpace.sol\":1752:1759  isValid */\n      dup3\n        /* \"contracts/ProofOfSpace.sol\":1761:1768  isValid */\n      dup4\n        /* \"contracts/ProofOfSpace.sol\":1761:1794  isValid ? rewards[msg.sender] : 0 */\n      tag_55\n      jumpi\n        /* \"contracts/ProofOfSpace.sol\":1793:1794  0 */\n      0x00\n        /* \"contracts/ProofOfSpace.sol\":1761:1794  isValid ? rewards[msg.sender] : 0 */\n      jump(tag_56)\n    tag_55:\n        /* \"contracts/ProofOfSpace.sol\":1771:1778  rewards */\n      0x01\n        /* \"contracts/ProofOfSpace.sol\":1771:1790  rewards[msg.sender] */\n      0x00\n        /* \"contracts/ProofOfSpace.sol\":1779:1789  msg.sender */\n      caller\n        /* \"contracts/ProofOfSpace.sol\":1771:1790  rewards[msg.sender] */\n      0xffffffffffffffffffffffffffffffffffffffff\n      and\n      0xffffffffffffffffffffffffffffffffffffffff\n      and\n      dup2\n      mstore\n      0x20\n      add\n      swap1\n      dup2\n      mstore\n      0x20\n      add\n      0x00\n      keccak256\n      sload\n        /* \"contracts/ProofOfSpace.sol\":1761:1794  isValid ? rewards[msg.sender] : 0 */\n    tag_56:\n        /* \"contracts/ProofOfSpace.sol\":1725:1795  ProofSubmitted(msg.sender, isValid, isValid ? rewards[msg.sender] : 0) */\n      mload(0x40)\n      tag_57\n      swap3\n      swap2\n      swap1\n      tag_58\n      jump\t// in\n    tag_57:\n      mload(0x40)\n      dup1\n      swap2\n      sub\n      swap1\n      log2\n        /* \"contracts/ProofOfSpace.sol\":1247:1802  {... */\n      pop\n        /* \"contracts/ProofOfSpace.sol\":1201:1802  function submitProof(bytes32 _proof) external {... */\n      pop\n      jump\t// out\n        /* \"#utility.yul\":88:205   */\n    tag_60:\n        /* \"#utility.yul\":197:198   */\n      0x00\n        /* \"#utility.yul\":194:195   */\n      dup1\n        /* \"#utility.yul\":187:199   */\n      revert\n        /* \"#utility.yul\":334:460   */\n    tag_62:\n        /* \"#utility.yul\":371:378   */\n      0x00\n        /* \"#utility.yul\":411:453   */\n      0xffffffffffffffffffffffffffffffffffffffff\n        /* \"#utility.yul\":404:409   */\n      dup3\n        /* \"#utility.yul\":400:454   */\n      and\n        /* \"#utility.yul\":389:454   */\n      swap1\n      pop\n        /* \"#utility.yul\":334:460   */\n      swap2\n      swap1\n      pop\n      jump\t// out\n        /* \"#utility.yul\":466:562   */\n    tag_63:\n        /* \"#utility.yul\":503:510   */\n      0x00\n        /* \"#utility.yul\":532:556   */\n      tag_90\n        /* \"#utility.yul\":550:555   */\n      dup3\n        /* \"#utility.yul\":532:556   */\n      tag_62\n      jump\t// in\n    tag_90:\n        /* \"#utility.yul\":521:556   */\n      swap1\n      pop\n        /* \"#utility.yul\":466:562   */\n      swap2\n      swap1\n      pop\n      jump\t// out\n        /* \"#utility.yul\":568:690   */\n    tag_64:\n        /* \"#utility.yul\":641:665   */\n      tag_92\n        /* \"#utility.yul\":659:664   */\n      dup2\n        /* \"#utility.yul\":641:665   */\n      tag_63\n      jump\t// in\n    tag_92:\n        /* \"#utility.yul\":634:639   */\n      dup2\n        /* \"#utility.yul\":631:666   */\n      eq\n        /* \"#utility.yul\":621:684   */\n      tag_93\n      jumpi\n        /* \"#utility.yul\":680:681   */\n      0x00\n        /* \"#utility.yul\":677:678   */\n      dup1\n        /* \"#utility.yul\":670:682   */\n      revert\n        /* \"#utility.yul\":621:684   */\n    tag_93:\n        /* \"#utility.yul\":568:690   */\n      pop\n      jump\t// out\n        /* \"#utility.yul\":696:835   */\n    tag_65:\n        /* \"#utility.yul\":742:747   */\n      0x00\n        /* \"#utility.yul\":780:786   */\n      dup2\n        /* \"#utility.yul\":767:787   */\n      calldataload\n        /* \"#utility.yul\":758:787   */\n      swap1\n      pop\n        /* \"#utility.yul\":796:829   */\n      tag_95\n        /* \"#utility.yul\":823:828   */\n      dup2\n        /* \"#utility.yul\":796:829   */\n      tag_64\n      jump\t// in\n    tag_95:\n        /* \"#utility.yul\":696:835   */\n      swap3\n      swap2\n      pop\n      pop\n      jump\t// out\n        /* \"#utility.yul\":841:1170   */\n    tag_11:\n        /* \"#utility.yul\":900:906   */\n      0x00\n        /* \"#utility.yul\":949:951   */\n      0x20\n        /* \"#utility.yul\":937:946   */\n      dup3\n        /* \"#utility.yul\":928:935   */\n      dup5\n        /* \"#utility.yul\":924:947   */\n      sub\n        /* \"#utility.yul\":920:952   */\n      slt\n        /* \"#utility.yul\":917:1036   */\n      iszero\n      tag_97\n      jumpi\n        /* \"#utility.yul\":955:1034   */\n      tag_98\n      tag_60\n      jump\t// in\n    tag_98:\n        /* \"#utility.yul\":917:1036   */\n    tag_97:\n        /* \"#utility.yul\":1075:1076   */\n      0x00\n        /* \"#utility.yul\":1100:1153   */\n      tag_99\n        /* \"#utility.yul\":1145:1152   */\n      dup5\n        /* \"#utility.yul\":1136:1142   */\n      dup3\n        /* \"#utility.yul\":1125:1134   */\n      dup6\n        /* \"#utility.yul\":1121:1143   */\n      add\n        /* \"#utility.yul\":1100:1153   */\n      tag_65\n      jump\t// in\n    tag_99:\n        /* \"#utility.yul\":1090:1153   */\n      swap2\n      pop\n        /* \"#utility.yul\":1046:1163   */\n      pop\n        /* \"#utility.yul\":841:1170   */\n      swap3\n      swap2\n      pop\n      pop\n      jump\t// out\n        /* \"#utility.yul\":1176:1253   */\n    tag_66:\n        /* \"#utility.yul\":1213:1220   */\n      0x00\n        /* \"#utility.yul\":1242:1247   */\n      dup2\n        /* \"#utility.yul\":1231:1247   */\n      swap1\n      pop\n        /* \"#utility.yul\":1176:1253   */\n      swap2\n      swap1\n      pop\n      jump\t// out\n        /* \"#utility.yul\":1259:1377   */\n    tag_67:\n        /* \"#utility.yul\":1346:1370   */\n      tag_102\n        /* \"#utility.yul\":1364:1369   */\n      dup2\n        /* \"#utility.yul\":1346:1370   */\n      tag_66\n      jump\t// in\n    tag_102:\n        /* \"#utility.yul\":1341:1344   */\n      dup3\n        /* \"#utility.yul\":1334:1371   */\n      mstore\n        /* \"#utility.yul\":1259:1377   */\n      pop\n      pop\n      jump\t// out\n        /* \"#utility.yul\":1383:1605   */\n    tag_14:\n        /* \"#utility.yul\":1476:1480   */\n      0x00\n        /* \"#utility.yul\":1514:1516   */\n      0x20\n        /* \"#utility.yul\":1503:1512   */\n      dup3\n        /* \"#utility.yul\":1499:1517   */\n      add\n        /* \"#utility.yul\":1491:1517   */\n      swap1\n      pop\n        /* \"#utility.yul\":1527:1598   */\n      tag_104\n        /* \"#utility.yul\":1595:1596   */\n      0x00\n        /* \"#utility.yul\":1584:1593   */\n      dup4\n        /* \"#utility.yul\":1580:1597   */\n      add\n        /* \"#utility.yul\":1571:1577   */\n      dup5\n        /* \"#utility.yul\":1527:1598   */\n      tag_67\n      jump\t// in\n    tag_104:\n        /* \"#utility.yul\":1383:1605   */\n      swap3\n      swap2\n      pop\n      pop\n      jump\t// out\n        /* \"#utility.yul\":1611:1688   */\n    tag_68:\n        /* \"#utility.yul\":1648:1655   */\n      0x00\n        /* \"#utility.yul\":1677:1682   */\n      dup2\n        /* \"#utility.yul\":1666:1682   */\n      swap1\n      pop\n        /* \"#utility.yul\":1611:1688   */\n      swap2\n      swap1\n      pop\n      jump\t// out\n        /* \"#utility.yul\":1694:1812   */\n    tag_69:\n        /* \"#utility.yul\":1781:1805   */\n      tag_107\n        /* \"#utility.yul\":1799:1804   */\n      dup2\n        /* \"#utility.yul\":1781:1805   */\n      tag_68\n      jump\t// in\n    tag_107:\n        /* \"#utility.yul\":1776:1779   */\n      dup3\n        /* \"#utility.yul\":1769:1806   */\n      mstore\n        /* \"#utility.yul\":1694:1812   */\n      pop\n      pop\n      jump\t// out\n        /* \"#utility.yul\":1818:1908   */\n    tag_70:\n        /* \"#utility.yul\":1852:1859   */\n      0x00\n        /* \"#utility.yul\":1895:1900   */\n      dup2\n        /* \"#utility.yul\":1888:1901   */\n      iszero\n        /* \"#utility.yul\":1881:1902   */\n      iszero\n        /* \"#utility.yul\":1870:1902   */\n      swap1\n      pop\n        /* \"#utility.yul\":1818:1908   */\n      swap2\n      swap1\n      pop\n      jump\t// out\n        /* \"#utility.yul\":1914:2023   */\n    tag_71:\n        /* \"#utility.yul\":1995:2016   */\n      tag_110\n        /* \"#utility.yul\":2010:2015   */\n      dup2\n        /* \"#utility.yul\":1995:2016   */\n      tag_70\n      jump\t// in\n    tag_110:\n        /* \"#utility.yul\":1990:1993   */\n      dup3\n        /* \"#utility.yul\":1983:2017   */\n      mstore\n        /* \"#utility.yul\":1914:2023   */\n      pop\n      pop\n      jump\t// out\n        /* \"#utility.yul\":2029:2459   */\n    tag_25:\n        /* \"#utility.yul\":2172:2176   */\n      0x00\n        /* \"#utility.yul\":2210:2212   */\n      0x60\n        /* \"#utility.yul\":2199:2208   */\n      dup3\n        /* \"#utility.yul\":2195:2213   */\n      add\n        /* \"#utility.yul\":2187:2213   */\n      swap1\n      pop\n        /* \"#utility.yul\":2223:2294   */\n      tag_112\n        /* \"#utility.yul\":2291:2292   */\n      0x00\n        /* \"#utility.yul\":2280:2289   */\n      dup4\n        /* \"#utility.yul\":2276:2293   */\n      add\n        /* \"#utility.yul\":2267:2273   */\n      dup7\n        /* \"#utility.yul\":2223:2294   */\n      tag_69\n      jump\t// in\n    tag_112:\n        /* \"#utility.yul\":2304:2376   */\n      tag_113\n        /* \"#utility.yul\":2372:2374   */\n      0x20\n        /* \"#utility.yul\":2361:2370   */\n      dup4\n        /* \"#utility.yul\":2357:2375   */\n      add\n        /* \"#utility.yul\":2348:2354   */\n      dup6\n        /* \"#utility.yul\":2304:2376   */\n      tag_67\n      jump\t// in\n    tag_113:\n        /* \"#utility.yul\":2386:2452   */\n      tag_114\n        /* \"#utility.yul\":2448:2450   */\n      0x40\n        /* \"#utility.yul\":2437:2446   */\n      dup4\n        /* \"#utility.yul\":2433:2451   */\n      add\n        /* \"#utility.yul\":2424:2430   */\n      dup5\n        /* \"#utility.yul\":2386:2452   */\n      tag_71\n      jump\t// in\n    tag_114:\n        /* \"#utility.yul\":2029:2459   */\n      swap5\n      swap4\n      pop\n      pop\n      pop\n      pop\n      jump\t// out\n        /* \"#utility.yul\":2465:2587   */\n    tag_72:\n        /* \"#utility.yul\":2538:2562   */\n      tag_116\n        /* \"#utility.yul\":2556:2561   */\n      dup2\n        /* \"#utility.yul\":2538:2562   */\n      tag_68\n      jump\t// in\n    tag_116:\n        /* \"#utility.yul\":2531:2536   */\n      dup2\n        /* \"#utility.yul\":2528:2563   */\n      eq\n        /* \"#utility.yul\":2518:2581   */\n      tag_117\n      jumpi\n        /* \"#utility.yul\":2577:2578   */\n      0x00\n        /* \"#utility.yul\":2574:2575   */\n      dup1\n        /* \"#utility.yul\":2567:2579   */\n      revert\n        /* \"#utility.yul\":2518:2581   */\n    tag_117:\n        /* \"#utility.yul\":2465:2587   */\n      pop\n      jump\t// out\n        /* \"#utility.yul\":2593:2732   */\n    tag_73:\n        /* \"#utility.yul\":2639:2644   */\n      0x00\n        /* \"#utility.yul\":2677:2683   */\n      dup2\n        /* \"#utility.yul\":2664:2684   */\n      calldataload\n        /* \"#utility.yul\":2655:2684   */\n      swap1\n      pop\n        /* \"#utility.yul\":2693:2726   */\n      tag_119\n        /* \"#utility.yul\":2720:2725   */\n      dup2\n        /* \"#utility.yul\":2693:2726   */\n      tag_72\n      jump\t// in\n    tag_119:\n        /* \"#utility.yul\":2593:2732   */\n      swap3\n      swap2\n      pop\n      pop\n      jump\t// out\n        /* \"#utility.yul\":2738:2860   */\n    tag_74:\n        /* \"#utility.yul\":2811:2835   */\n      tag_121\n        /* \"#utility.yul\":2829:2834   */\n      dup2\n        /* \"#utility.yul\":2811:2835   */\n      tag_66\n      jump\t// in\n    tag_121:\n        /* \"#utility.yul\":2804:2809   */\n      dup2\n        /* \"#utility.yul\":2801:2836   */\n      eq\n        /* \"#utility.yul\":2791:2854   */\n      tag_122\n      jumpi\n        /* \"#utility.yul\":2850:2851   */\n      0x00\n        /* \"#utility.yul\":2847:2848   */\n      dup1\n        /* \"#utility.yul\":2840:2852   */\n      revert\n        /* \"#utility.yul\":2791:2854   */\n    tag_122:\n        /* \"#utility.yul\":2738:2860   */\n      pop\n      jump\t// out\n        /* \"#utility.yul\":2866:3005   */\n    tag_75:\n        /* \"#utility.yul\":2912:2917   */\n      0x00\n        /* \"#utility.yul\":2950:2956   */\n      dup2\n        /* \"#utility.yul\":2937:2957   */\n      calldataload\n        /* \"#utility.yul\":2928:2957   */\n      swap1\n      pop\n        /* \"#utility.yul\":2966:2999   */\n      tag_124\n        /* \"#utility.yul\":2993:2998   */\n      dup2\n        /* \"#utility.yul\":2966:2999   */\n      tag_74\n      jump\t// in\n    tag_124:\n        /* \"#utility.yul\":2866:3005   */\n      swap3\n      swap2\n      pop\n      pop\n      jump\t// out\n        /* \"#utility.yul\":3011:3485   */\n    tag_28:\n        /* \"#utility.yul\":3079:3085   */\n      0x00\n        /* \"#utility.yul\":3087:3093   */\n      dup1\n        /* \"#utility.yul\":3136:3138   */\n      0x40\n        /* \"#utility.yul\":3124:3133   */\n      dup4\n        /* \"#utility.yul\":3115:3122   */\n      dup6\n        /* \"#utility.yul\":3111:3134   */\n      sub\n        /* \"#utility.yul\":3107:3139   */\n      slt\n        /* \"#utility.yul\":3104:3223   */\n      iszero\n      tag_126\n      jumpi\n        /* \"#utility.yul\":3142:3221   */\n      tag_127\n      tag_60\n      jump\t// in\n    tag_127:\n        /* \"#utility.yul\":3104:3223   */\n    tag_126:\n        /* \"#utility.yul\":3262:3263   */\n      0x00\n        /* \"#utility.yul\":3287:3340   */\n      tag_128\n        /* \"#utility.yul\":3332:3339   */\n      dup6\n        /* \"#utility.yul\":3323:3329   */\n      dup3\n        /* \"#utility.yul\":3312:3321   */\n      dup7\n        /* \"#utility.yul\":3308:3330   */\n      add\n        /* \"#utility.yul\":3287:3340   */\n      tag_73\n      jump\t// in\n    tag_128:\n        /* \"#utility.yul\":3277:3340   */\n      swap3\n      pop\n        /* \"#utility.yul\":3233:3350   */\n      pop\n        /* \"#utility.yul\":3389:3391   */\n      0x20\n        /* \"#utility.yul\":3415:3468   */\n      tag_129\n        /* \"#utility.yul\":3460:3467   */\n      dup6\n        /* \"#utility.yul\":3451:3457   */\n      dup3\n        /* \"#utility.yul\":3440:3449   */\n      dup7\n        /* \"#utility.yul\":3436:3458   */\n      add\n        /* \"#utility.yul\":3415:3468   */\n      tag_75\n      jump\t// in\n    tag_129:\n        /* \"#utility.yul\":3405:3468   */\n      swap2\n      pop\n        /* \"#utility.yul\":3360:3478   */\n      pop\n        /* \"#utility.yul\":3011:3485   */\n      swap3\n      pop\n      swap3\n      swap1\n      pop\n      jump\t// out\n        /* \"#utility.yul\":3491:3820   */\n    tag_32:\n        /* \"#utility.yul\":3550:3556   */\n      0x00\n        /* \"#utility.yul\":3599:3601   */\n      0x20\n        /* \"#utility.yul\":3587:3596   */\n      dup3\n        /* \"#utility.yul\":3578:3585   */\n      dup5\n        /* \"#utility.yul\":3574:3597   */\n      sub\n        /* \"#utility.yul\":3570:3602   */\n      slt\n        /* \"#utility.yul\":3567:3686   */\n      iszero\n      tag_131\n      jumpi\n        /* \"#utility.yul\":3605:3684   */\n      tag_132\n      tag_60\n      jump\t// in\n    tag_132:\n        /* \"#utility.yul\":3567:3686   */\n    tag_131:\n        /* \"#utility.yul\":3725:3726   */\n      0x00\n        /* \"#utility.yul\":3750:3803   */\n      tag_133\n        /* \"#utility.yul\":3795:3802   */\n      dup5\n        /* \"#utility.yul\":3786:3792   */\n      dup3\n        /* \"#utility.yul\":3775:3784   */\n      dup6\n        /* \"#utility.yul\":3771:3793   */\n      add\n        /* \"#utility.yul\":3750:3803   */\n      tag_73\n      jump\t// in\n    tag_133:\n        /* \"#utility.yul\":3740:3803   */\n      swap2\n      pop\n        /* \"#utility.yul\":3696:3813   */\n      pop\n        /* \"#utility.yul\":3491:3820   */\n      swap3\n      swap2\n      pop\n      pop\n      jump\t// out\n        /* \"#utility.yul\":3826:3995   */\n    tag_76:\n        /* \"#utility.yul\":3910:3921   */\n      0x00\n        /* \"#utility.yul\":3944:3950   */\n      dup3\n        /* \"#utility.yul\":3939:3942   */\n      dup3\n        /* \"#utility.yul\":3932:3951   */\n      mstore\n        /* \"#utility.yul\":3984:3988   */\n      0x20\n        /* \"#utility.yul\":3979:3982   */\n      dup3\n        /* \"#utility.yul\":3975:3989   */\n      add\n        /* \"#utility.yul\":3960:3989   */\n      swap1\n      pop\n        /* \"#utility.yul\":3826:3995   */\n      swap3\n      swap2\n      pop\n      pop\n      jump\t// out\n        /* \"#utility.yul\":4001:4168   */\n    tag_77:\n        /* \"#utility.yul\":4141:4160   */\n      0x416c726561647920636f6d6d6974746564000000000000000000000000000000\n        /* \"#utility.yul\":4137:4138   */\n      0x00\n        /* \"#utility.yul\":4129:4135   */\n      dup3\n        /* \"#utility.yul\":4125:4139   */\n      add\n        /* \"#utility.yul\":4118:4161   */\n      mstore\n        /* \"#utility.yul\":4001:4168   */\n      pop\n      jump\t// out\n        /* \"#utility.yul\":4174:4540   */\n    tag_78:\n        /* \"#utility.yul\":4316:4319   */\n      0x00\n        /* \"#utility.yul\":4337:4404   */\n      tag_137\n        /* \"#utility.yul\":4401:4403   */\n      0x11\n        /* \"#utility.yul\":4396:4399   */\n      dup4\n        /* \"#utility.yul\":4337:4404   */\n      tag_76\n      jump\t// in\n    tag_137:\n        /* \"#utility.yul\":4330:4404   */\n      swap2\n      pop\n        /* \"#utility.yul\":4413:4506   */\n      tag_138\n        /* \"#utility.yul\":4502:4505   */\n      dup3\n        /* \"#utility.yul\":4413:4506   */\n      tag_77\n      jump\t// in\n    tag_138:\n        /* \"#utility.yul\":4531:4533   */\n      0x20\n        /* \"#utility.yul\":4526:4529   */\n      dup3\n        /* \"#utility.yul\":4522:4534   */\n      add\n        /* \"#utility.yul\":4515:4534   */\n      swap1\n      pop\n        /* \"#utility.yul\":4174:4540   */\n      swap2\n      swap1\n      pop\n      jump\t// out\n        /* \"#utility.yul\":4546:4965   */\n    tag_38:\n        /* \"#utility.yul\":4712:4716   */\n      0x00\n        /* \"#utility.yul\":4750:4752   */\n      0x20\n        /* \"#utility.yul\":4739:4748   */\n      dup3\n        /* \"#utility.yul\":4735:4753   */\n      add\n        /* \"#utility.yul\":4727:4753   */\n      swap1\n      pop\n        /* \"#utility.yul\":4799:4808   */\n      dup2\n        /* \"#utility.yul\":4793:4797   */\n      dup2\n        /* \"#utility.yul\":4789:4809   */\n      sub\n        /* \"#utility.yul\":4785:4786   */\n      0x00\n        /* \"#utility.yul\":4774:4783   */\n      dup4\n        /* \"#utility.yul\":4770:4787   */\n      add\n        /* \"#utility.yul\":4763:4810   */\n      mstore\n        /* \"#utility.yul\":4827:4958   */\n      tag_140\n        /* \"#utility.yul\":4953:4957   */\n      dup2\n        /* \"#utility.yul\":4827:4958   */\n      tag_78\n      jump\t// in\n    tag_140:\n        /* \"#utility.yul\":4819:4958   */\n      swap1\n      pop\n        /* \"#utility.yul\":4546:4965   */\n      swap2\n      swap1\n      pop\n      jump\t// out\n        /* \"#utility.yul\":4971:5303   */\n    tag_40:\n        /* \"#utility.yul\":5092:5096   */\n      0x00\n        /* \"#utility.yul\":5130:5132   */\n      0x40\n        /* \"#utility.yul\":5119:5128   */\n      dup3\n        /* \"#utility.yul\":5115:5133   */\n      add\n        /* \"#utility.yul\":5107:5133   */\n      swap1\n      pop\n        /* \"#utility.yul\":5143:5214   */\n      tag_142\n        /* \"#utility.yul\":5211:5212   */\n      0x00\n        /* \"#utility.yul\":5200:5209   */\n      dup4\n        /* \"#utility.yul\":5196:5213   */\n      add\n        /* \"#utility.yul\":5187:5193   */\n      dup6\n        /* \"#utility.yul\":5143:5214   */\n      tag_67\n      jump\t// in\n    tag_142:\n        /* \"#utility.yul\":5224:5296   */\n      tag_143\n        /* \"#utility.yul\":5292:5294   */\n      0x20\n        /* \"#utility.yul\":5281:5290   */\n      dup4\n        /* \"#utility.yul\":5277:5295   */\n      add\n        /* \"#utility.yul\":5268:5274   */\n      dup5\n        /* \"#utility.yul\":5224:5296   */\n      tag_69\n      jump\t// in\n    tag_143:\n        /* \"#utility.yul\":4971:5303   */\n      swap4\n      swap3\n      pop\n      pop\n      pop\n      jump\t// out\n        /* \"#utility.yul\":5309:5478   */\n    tag_79:\n        /* \"#utility.yul\":5449:5470   */\n      0x4e6f20636f6d6d69746d656e7420666f756e6400000000000000000000000000\n        /* \"#utility.yul\":5445:5446   */\n      0x00\n        /* \"#utility.yul\":5437:5443   */\n      dup3\n        /* \"#utility.yul\":5433:5447   */\n      add\n        /* \"#utility.yul\":5426:5471   */\n      mstore\n        /* \"#utility.yul\":5309:5478   */\n      pop\n      jump\t// out\n        /* \"#utility.yul\":5484:5850   */\n    tag_80:\n        /* \"#utility.yul\":5626:5629   */\n      0x00\n        /* \"#utility.yul\":5647:5714   */\n      tag_146\n        /* \"#utility.yul\":5711:5713   */\n      0x13\n        /* \"#utility.yul\":5706:5709   */\n      dup4\n        /* \"#utility.yul\":5647:5714   */\n      tag_76\n      jump\t// in\n    tag_146:\n        /* \"#utility.yul\":5640:5714   */\n      swap2\n      pop\n        /* \"#utility.yul\":5723:5816   */\n      tag_147\n        /* \"#utility.yul\":5812:5815   */\n      dup3\n        /* \"#utility.yul\":5723:5816   */\n      tag_79\n      jump\t// in\n    tag_147:\n        /* \"#utility.yul\":5841:5843   */\n      0x20\n        /* \"#utility.yul\":5836:5839   */\n      dup3\n        /* \"#utility.yul\":5832:5844   */\n      add\n        /* \"#utility.yul\":5825:5844   */\n      swap1\n      pop\n        /* \"#utility.yul\":5484:5850   */\n      swap2\n      swap1\n      pop\n      jump\t// out\n        /* \"#utility.yul\":5856:6275   */\n    tag_44:\n        /* \"#utility.yul\":6022:6026   */\n      0x00\n        /* \"#utility.yul\":6060:6062   */\n      0x20\n        /* \"#utility.yul\":6049:6058   */\n      dup3\n        /* \"#utility.yul\":6045:6063   */\n      add\n        /* \"#utility.yul\":6037:6063   */\n      swap1\n      pop\n        /* \"#utility.yul\":6109:6118   */\n      dup2\n        /* \"#utility.yul\":6103:6107   */\n      dup2\n        /* \"#utility.yul\":6099:6119   */\n      sub\n        /* \"#utility.yul\":6095:6096   */\n      0x00\n        /* \"#utility.yul\":6084:6093   */\n      dup4\n        /* \"#utility.yul\":6080:6097   */\n      add\n        /* \"#utility.yul\":6073:6120   */\n      mstore\n        /* \"#utility.yul\":6137:6268   */\n      tag_149\n        /* \"#utility.yul\":6263:6267   */\n      dup2\n        /* \"#utility.yul\":6137:6268   */\n      tag_80\n      jump\t// in\n    tag_149:\n        /* \"#utility.yul\":6129:6268   */\n      swap1\n      pop\n        /* \"#utility.yul\":5856:6275   */\n      swap2\n      swap1\n      pop\n      jump\t// out\n        /* \"#utility.yul\":6281:6445   */\n    tag_81:\n        /* \"#utility.yul\":6421:6437   */\n      0x416c72656164792070726f76656e000000000000000000000000000000000000\n        /* \"#utility.yul\":6417:6418   */\n      0x00\n        /* \"#utility.yul\":6409:6415   */\n      dup3\n        /* \"#utility.yul\":6405:6419   */\n      add\n        /* \"#utility.yul\":6398:6438   */\n      mstore\n        /* \"#utility.yul\":6281:6445   */\n      pop\n      jump\t// out\n        /* \"#utility.yul\":6451:6817   */\n    tag_82:\n        /* \"#utility.yul\":6593:6596   */\n      0x00\n        /* \"#utility.yul\":6614:6681   */\n      tag_152\n        /* \"#utility.yul\":6678:6680   */\n      0x0e\n        /* \"#utility.yul\":6673:6676   */\n      dup4\n        /* \"#utility.yul\":6614:6681   */\n      tag_76\n      jump\t// in\n    tag_152:\n        /* \"#utility.yul\":6607:6681   */\n      swap2\n      pop\n        /* \"#utility.yul\":6690:6783   */\n      tag_153\n        /* \"#utility.yul\":6779:6782   */\n      dup3\n        /* \"#utility.yul\":6690:6783   */\n      tag_81\n      jump\t// in\n    tag_153:\n        /* \"#utility.yul\":6808:6810   */\n      0x20\n        /* \"#utility.yul\":6803:6806   */\n      dup3\n        /* \"#utility.yul\":6799:6811   */\n      add\n        /* \"#utility.yul\":6792:6811   */\n      swap1\n      pop\n        /* \"#utility.yul\":6451:6817   */\n      swap2\n      swap1\n      pop\n      jump\t// out\n        /* \"#utility.yul\":6823:7242   */\n    tag_47:\n        /* \"#utility.yul\":6989:6993   */\n      0x00\n        /* \"#utility.yul\":7027:7029   */\n      0x20\n        /* \"#utility.yul\":7016:7025   */\n      dup3\n        /* \"#utility.yul\":7012:7030   */\n      add\n        /* \"#utility.yul\":7004:7030   */\n      swap1\n      pop\n        /* \"#utility.yul\":7076:7085   */\n      dup2\n        /* \"#utility.yul\":7070:7074   */\n      dup2\n        /* \"#utility.yul\":7066:7086   */\n      sub\n        /* \"#utility.yul\":7062:7063   */\n      0x00\n        /* \"#utility.yul\":7051:7060   */\n      dup4\n        /* \"#utility.yul\":7047:7064   */\n      add\n        /* \"#utility.yul\":7040:7087   */\n      mstore\n        /* \"#utility.yul\":7104:7235   */\n      tag_155\n        /* \"#utility.yul\":7230:7234   */\n      dup2\n        /* \"#utility.yul\":7104:7235   */\n      tag_82\n      jump\t// in\n    tag_155:\n        /* \"#utility.yul\":7096:7235   */\n      swap1\n      pop\n        /* \"#utility.yul\":6823:7242   */\n      swap2\n      swap1\n      pop\n      jump\t// out\n        /* \"#utility.yul\":7248:7428   */\n    tag_83:\n        /* \"#utility.yul\":7296:7373   */\n      0x4e487b7100000000000000000000000000000000000000000000000000000000\n        /* \"#utility.yul\":7293:7294   */\n      0x00\n        /* \"#utility.yul\":7286:7374   */\n      mstore\n        /* \"#utility.yul\":7393:7397   */\n      0x11\n        /* \"#utility.yul\":7390:7391   */\n      0x04\n        /* \"#utility.yul\":7383:7398   */\n      mstore\n        /* \"#utility.yul\":7417:7421   */\n      0x24\n        /* \"#utility.yul\":7414:7415   */\n      0x00\n        /* \"#utility.yul\":7407:7422   */\n      revert\n        /* \"#utility.yul\":7434:7844   */\n    tag_50:\n        /* \"#utility.yul\":7474:7481   */\n      0x00\n        /* \"#utility.yul\":7497:7517   */\n      tag_158\n        /* \"#utility.yul\":7515:7516   */\n      dup3\n        /* \"#utility.yul\":7497:7517   */\n      tag_66\n      jump\t// in\n    tag_158:\n        /* \"#utility.yul\":7492:7517   */\n      swap2\n      pop\n        /* \"#utility.yul\":7531:7551   */\n      tag_159\n        /* \"#utility.yul\":7549:7550   */\n      dup4\n        /* \"#utility.yul\":7531:7551   */\n      tag_66\n      jump\t// in\n    tag_159:\n        /* \"#utility.yul\":7526:7551   */\n      swap3\n      pop\n        /* \"#utility.yul\":7586:7587   */\n      dup3\n        /* \"#utility.yul\":7583:7584   */\n      dup3\n        /* \"#utility.yul\":7579:7588   */\n      mul\n        /* \"#utility.yul\":7608:7638   */\n      tag_160\n        /* \"#utility.yul\":7626:7637   */\n      dup2\n        /* \"#utility.yul\":7608:7638   */\n      tag_66\n      jump\t// in\n    tag_160:\n        /* \"#utility.yul\":7597:7638   */\n      swap2\n      pop\n        /* \"#utility.yul\":7787:7788   */\n      dup3\n        /* \"#utility.yul\":7778:7785   */\n      dup3\n        /* \"#utility.yul\":7774:7789   */\n      div\n        /* \"#utility.yul\":7771:7772   */\n      dup5\n        /* \"#utility.yul\":7768:7790   */\n      eq\n        /* \"#utility.yul\":7748:7749   */\n      dup4\n        /* \"#utility.yul\":7741:7750   */\n      iszero\n        /* \"#utility.yul\":7721:7804   */\n      or\n        /* \"#utility.yul\":7698:7837   */\n      tag_161\n      jumpi\n        /* \"#utility.yul\":7817:7835   */\n      tag_162\n      tag_83\n      jump\t// in\n    tag_162:\n        /* \"#utility.yul\":7698:7837   */\n    tag_161:\n        /* \"#utility.yul\":7482:7844   */\n      pop\n        /* \"#utility.yul\":7434:7844   */\n      swap3\n      swap2\n      pop\n      pop\n      jump\t// out\n        /* \"#utility.yul\":7850:8041   */\n    tag_52:\n        /* \"#utility.yul\":7890:7893   */\n      0x00\n        /* \"#utility.yul\":7909:7929   */\n      tag_164\n        /* \"#utility.yul\":7927:7928   */\n      dup3\n        /* \"#utility.yul\":7909:7929   */\n      tag_66\n      jump\t// in\n    tag_164:\n        /* \"#utility.yul\":7904:7929   */\n      swap2\n      pop\n        /* \"#utility.yul\":7943:7963   */\n      tag_165\n        /* \"#utility.yul\":7961:7962   */\n      dup4\n        /* \"#utility.yul\":7943:7963   */\n      tag_66\n      jump\t// in\n    tag_165:\n        /* \"#utility.yul\":7938:7963   */\n      swap3\n      pop\n        /* \"#utility.yul\":7986:7987   */\n      dup3\n        /* \"#utility.yul\":7983:7984   */\n      dup3\n        /* \"#utility.yul\":7979:7988   */\n      add\n        /* \"#utility.yul\":7972:7988   */\n      swap1\n      pop\n        /* \"#utility.yul\":8007:8010   */\n      dup1\n        /* \"#utility.yul\":8004:8005   */\n      dup3\n        /* \"#utility.yul\":8001:8011   */\n      gt\n        /* \"#utility.yul\":7998:8034   */\n      iszero\n      tag_166\n      jumpi\n        /* \"#utility.yul\":8014:8032   */\n      tag_167\n      tag_83\n      jump\t// in\n    tag_167:\n        /* \"#utility.yul\":7998:8034   */\n    tag_166:\n        /* \"#utility.yul\":7850:8041   */\n      swap3\n      swap2\n      pop\n      pop\n      jump\t// out\n        /* \"#utility.yul\":8047:8241   */\n    tag_54:\n        /* \"#utility.yul\":8087:8091   */\n      0x00\n        /* \"#utility.yul\":8107:8127   */\n      tag_169\n        /* \"#utility.yul\":8125:8126   */\n      dup3\n        /* \"#utility.yul\":8107:8127   */\n      tag_66\n      jump\t// in\n    tag_169:\n        /* \"#utility.yul\":8102:8127   */\n      swap2\n      pop\n        /* \"#utility.yul\":8141:8161   */\n      tag_170\n        /* \"#utility.yul\":8159:8160   */\n      dup4\n        /* \"#utility.yul\":8141:8161   */\n      tag_66\n      jump\t// in\n    tag_170:\n        /* \"#utility.yul\":8136:8161   */\n      swap3\n      pop\n        /* \"#utility.yul\":8185:8186   */\n      dup3\n        /* \"#utility.yul\":8182:8183   */\n      dup3\n        /* \"#utility.yul\":8178:8187   */\n      sub\n        /* \"#utility.yul\":8170:8187   */\n      swap1\n      pop\n        /* \"#utility.yul\":8209:8210   */\n      dup2\n        /* \"#utility.yul\":8203:8207   */\n      dup2\n        /* \"#utility.yul\":8200:8211   */\n      gt\n        /* \"#utility.yul\":8197:8234   */\n      iszero\n      tag_171\n      jumpi\n        /* \"#utility.yul\":8214:8232   */\n      tag_172\n      tag_83\n      jump\t// in\n    tag_172:\n        /* \"#utility.yul\":8197:8234   */\n    tag_171:\n        /* \"#utility.yul\":8047:8241   */\n      swap3\n      swap2\n      pop\n      pop\n      jump\t// out\n        /* \"#utility.yul\":8247:8567   */\n    tag_58:\n        /* \"#utility.yul\":8362:8366   */\n      0x00\n        /* \"#utility.yul\":8400:8402   */\n      0x40\n        /* \"#utility.yul\":8389:8398   */\n      dup3\n        /* \"#utility.yul\":8385:8403   */\n      add\n        /* \"#utility.yul\":8377:8403   */\n      swap1\n      pop\n        /* \"#utility.yul\":8413:8478   */\n      tag_174\n        /* \"#utility.yul\":8475:8476   */\n      0x00\n        /* \"#utility.yul\":8464:8473   */\n      dup4\n        /* \"#utility.yul\":8460:8477   */\n      add\n        /* \"#utility.yul\":8451:8457   */\n      dup6\n        /* \"#utility.yul\":8413:8478   */\n      tag_71\n      jump\t// in\n    tag_174:\n        /* \"#utility.yul\":8488:8560   */\n      tag_175\n        /* \"#utility.yul\":8556:8558   */\n      0x20\n        /* \"#utility.yul\":8545:8554   */\n      dup4\n        /* \"#utility.yul\":8541:8559   */\n      add\n        /* \"#utility.yul\":8532:8538   */\n      dup5\n        /* \"#utility.yul\":8488:8560   */\n      tag_67\n      jump\t// in\n    tag_175:\n        /* \"#utility.yul\":8247:8567   */\n      swap4\n      swap3\n      pop\n      pop\n      pop\n      jump\t// out\n\n    auxdata: 0xa264697066735822122086060b03b33dc72d40af4503261a8931dfb87939e7335fb5afab0bd1a7ee4bed64736f6c63430008140033\n}\n",
				"bytecode": {
					"linkReferences": {},
					"object": "608060405234801561000f575f80fd5b50681b1ae4d6e2ef5000006002819055503373ffffffffffffffffffffffffffffffffffffffff167f836641082a104c21a747f2896a189cda6d34502edf7de2f98afc4460d0720bfa600254604051610068919061008d565b60405180910390a26100a6565b5f819050919050565b61008781610075565b82525050565b5f6020820190506100a05f83018461007e565b92915050565b610aba806100b35f395ff3fe608060405234801561000f575f80fd5b5060043610610060575f3560e01c80630700037d146100645780630e15561a146100945780635e42b455146100b2578063648ec7b9146100d05780636989215e14610102578063bf0844081461011e575b5f80fd5b61007e6004803603810190610079919061069a565b61013a565b60405161008b91906106dd565b60405180910390f35b61009c61014f565b6040516100a991906106dd565b60405180910390f35b6100ba610155565b6040516100c791906106dd565b60405180910390f35b6100ea60048036038101906100e5919061069a565b610199565b6040516100f993929190610728565b60405180910390f35b61011c600480360381019061011791906107b1565b6101ca565b005b610138600480360381019061013391906107ef565b61032d565b005b6001602052805f5260405f205f915090505481565b60025481565b5f60015f3373ffffffffffffffffffffffffffffffffffffffff1673ffffffffffffffffffffffffffffffffffffffff1681526020019081526020015f2054905090565b5f602052805f5260405f205f91509050805f015490806001015490806002015f9054906101000a900460ff16905083565b5f801b5f803373ffffffffffffffffffffffffffffffffffffffff1673ffffffffffffffffffffffffffffffffffffffff1681526020019081526020015f205f01541461024c576040517f08c379a000000000000000000000000000000000000000000000000000000000815260040161024390610874565b60405180910390fd5b60405180606001604052808381526020018281526020015f15158152505f803373ffffffffffffffffffffffffffffffffffffffff1673ffffffffffffffffffffffffffffffffffffffff1681526020019081526020015f205f820151815f0155602082015181600101556040820151816002015f6101000a81548160ff0219169083151502179055509050503373ffffffffffffffffffffffffffffffffffffffff167fe2eb33eec42936fce5a1488187b0b2acf48613ce9b785240c133904e680df2b38284604051610321929190610892565b60405180910390a25050565b5f801b5f803373ffffffffffffffffffffffffffffffffffffffff1673ffffffffffffffffffffffffffffffffffffffff1681526020019081526020015f205f0154036103af576040517f08c379a00000000000000000000000000000000000000000000000000000000081526004016103a690610903565b60405180910390fd5b5f803373ffffffffffffffffffffffffffffffffffffffff1673ffffffffffffffffffffffffffffffffffffffff1681526020019081526020015f206002015f9054906101000a900460ff161561043b576040517f08c379a00000000000000000000000000000000000000000000000000000000081526004016104329061096b565b60405180910390fd5b5f805f3373ffffffffffffffffffffffffffffffffffffffff1673ffffffffffffffffffffffffffffffffffffffff1681526020019081526020015f205f015482149050801561059f5760015f803373ffffffffffffffffffffffffffffffffffffffff1673ffffffffffffffffffffffffffffffffffffffff1681526020019081526020015f206002015f6101000a81548160ff0219169083151502179055505f670de0b6b3a76400005f803373ffffffffffffffffffffffffffffffffffffffff1673ffffffffffffffffffffffffffffffffffffffff1681526020019081526020015f206001015461053091906109b6565b90508060015f3373ffffffffffffffffffffffffffffffffffffffff1673ffffffffffffffffffffffffffffffffffffffff1681526020019081526020015f205f82825461057e91906109f7565b925050819055508060025f8282546105969190610a2a565b92505081905550505b3373ffffffffffffffffffffffffffffffffffffffff167f7d8f1a1a8984821006da08e5f4d59660b0f444d4fcca71bd99448c27057bfd5082836105e3575f610622565b60015f3373ffffffffffffffffffffffffffffffffffffffff1673ffffffffffffffffffffffffffffffffffffffff1681526020019081526020015f20545b604051610630929190610a5d565b60405180910390a25050565b5f80fd5b5f73ffffffffffffffffffffffffffffffffffffffff82169050919050565b5f61066982610640565b9050919050565b6106798161065f565b8114610683575f80fd5b50565b5f8135905061069481610670565b92915050565b5f602082840312156106af576106ae61063c565b5b5f6106bc84828501610686565b91505092915050565b5f819050919050565b6106d7816106c5565b82525050565b5f6020820190506106f05f8301846106ce565b92915050565b5f819050919050565b610708816106f6565b82525050565b5f8115159050919050565b6107228161070e565b82525050565b5f60608201905061073b5f8301866106ff565b61074860208301856106ce565b6107556040830184610719565b949350505050565b610766816106f6565b8114610770575f80fd5b50565b5f813590506107818161075d565b92915050565b610790816106c5565b811461079a575f80fd5b50565b5f813590506107ab81610787565b92915050565b5f80604083850312156107c7576107c661063c565b5b5f6107d485828601610773565b92505060206107e58582860161079d565b9150509250929050565b5f602082840312156108045761080361063c565b5b5f61081184828501610773565b91505092915050565b5f82825260208201905092915050565b7f416c726561647920636f6d6d69747465640000000000000000000000000000005f82015250565b5f61085e60118361081a565b91506108698261082a565b602082019050919050565b5f6020820190508181035f83015261088b81610852565b9050919050565b5f6040820190506108a55f8301856106ce565b6108b260208301846106ff565b9392505050565b7f4e6f20636f6d6d69746d656e7420666f756e64000000000000000000000000005f82015250565b5f6108ed60138361081a565b91506108f8826108b9565b602082019050919050565b5f6020820190508181035f83015261091a816108e1565b9050919050565b7f416c72656164792070726f76656e0000000000000000000000000000000000005f82015250565b5f610955600e8361081a565b915061096082610921565b602082019050919050565b5f6020820190508181035f83015261098281610949565b9050919050565b7f4e487b71000000000000000000000000000000000000000000000000000000005f52601160045260245ffd5b5f6109c0826106c5565b91506109cb836106c5565b92508282026109d9816106c5565b915082820484148315176109f0576109ef610989565b5b5092915050565b5f610a01826106c5565b9150610a0c836106c5565b9250828201905080821115610a2457610a23610989565b5b92915050565b5f610a34826106c5565b9150610a3f836106c5565b9250828203905081811115610a5757610a56610989565b5b92915050565b5f604082019050610a705f830185610719565b610a7d60208301846106ce565b939250505056fea264697066735822122086060b03b33dc72d40af4503261a8931dfb87939e7335fb5afab0bd1a7ee4bed64736f6c63430008140033",
					"opcodes": "PUSH1 0x80 PUSH1 0x40 MSTORE CALLVALUE DUP1 ISZERO PUSH2 0xF JUMPI PUSH0 DUP1 REVERT JUMPDEST POP PUSH9 0x1B1AE4D6E2EF500000 PUSH1 0x2 DUP2 SWAP1 SSTORE POP CALLER PUSH20 0xFFFFFFFFFFFFFFFFFFFFFFFFFFFFFFFFFFFFFFFF AND PUSH32 0x836641082A104C21A747F2896A189CDA6D34502EDF7DE2F98AFC4460D0720BFA PUSH1 0x2 SLOAD PUSH1 0x40 MLOAD PUSH2 0x68 SWAP2 SWAP1 PUSH2 0x8D JUMP JUMPDEST PUSH1 0x40 MLOAD DUP1 SWAP2 SUB SWAP1 LOG2 PUSH2 0xA6 JUMP JUMPDEST PUSH0 DUP2 SWAP1 POP SWAP2 SWAP1 POP JUMP JUMPDEST PUSH2 0x87 DUP2 PUSH2 0x75 JUMP JUMPDEST DUP3 MSTORE POP POP JUMP JUMPDEST PUSH0 PUSH1 0x20 DUP3 ADD SWAP1 POP PUSH2 0xA0 PUSH0 DUP4 ADD DUP5 PUSH2 0x7E JUMP JUMPDEST SWAP3 SWAP2 POP POP JUMP JUMPDEST PUSH2 0xABA DUP1 PUSH2 0xB3 PUSH0 CODECOPY PUSH0 RETURN INVALID PUSH1 0x80 PUSH1 0x40 MSTORE CALLVALUE DUP1 ISZERO PUSH2 0xF JUMPI PUSH0 DUP1 REVERT JUMPDEST POP PUSH1 0x4 CALLDATASIZE LT PUSH2 0x60 JUMPI PUSH0 CALLDATALOAD PUSH1 0xE0 SHR DUP1 PUSH4 0x700037D EQ PUSH2 0x64 JUMPI DUP1 PUSH4 0xE15561A EQ PUSH2 0x94 JUMPI DUP1 PUSH4 0x5E42B455 EQ PUSH2 0xB2 JUMPI DUP1 PUSH4 0x648EC7B9 EQ PUSH2 0xD0 JUMPI DUP1 PUSH4 0x6989215E EQ PUSH2 0x102 JUMPI DUP1 PUSH4 0xBF084408 EQ PUSH2 0x11E JUMPI JUMPDEST PUSH0 DUP1 REVERT JUMPDEST PUSH2 0x7E PUSH1 0x4 DUP1 CALLDATASIZE SUB DUP2 ADD SWAP1 PUSH2 0x79 SWAP2 SWAP1 PUSH2 0x69A JUMP JUMPDEST PUSH2 0x13A JUMP JUMPDEST PUSH1 0x40 MLOAD PUSH2 0x8B SWAP2 SWAP1 PUSH2 0x6DD JUMP JUMPDEST PUSH1 0x40 MLOAD DUP1 SWAP2 SUB SWAP1 RETURN JUMPDEST PUSH2 0x9C PUSH2 0x14F JUMP JUMPDEST PUSH1 0x40 MLOAD PUSH2 0xA9 SWAP2 SWAP1 PUSH2 0x6DD JUMP JUMPDEST PUSH1 0x40 MLOAD DUP1 SWAP2 SUB SWAP1 RETURN JUMPDEST PUSH2 0xBA PUSH2 0x155 JUMP JUMPDEST PUSH1 0x40 MLOAD PUSH2 0xC7 SWAP2 SWAP1 PUSH2 0x6DD JUMP JUMPDEST PUSH1 0x40 MLOAD DUP1 SWAP2 SUB SWAP1 RETURN JUMPDEST PUSH2 0xEA PUSH1 0x4 DUP1 CALLDATASIZE SUB DUP2 ADD SWAP1 PUSH2 0xE5 SWAP2 SWAP1 PUSH2 0x69A JUMP JUMPDEST PUSH2 0x199 JUMP JUMPDEST PUSH1 0x40 MLOAD PUSH2 0xF9 SWAP4 SWAP3 SWAP2 SWAP1 PUSH2 0x728 JUMP JUMPDEST PUSH1 0x40 MLOAD DUP1 SWAP2 SUB SWAP1 RETURN JUMPDEST PUSH2 0x11C PUSH1 0x4 DUP1 CALLDATASIZE SUB DUP2 ADD SWAP1 PUSH2 0x117 SWAP2 SWAP1 PUSH2 0x7B1 JUMP JUMPDEST PUSH2 0x1CA JUMP JUMPDEST STOP JUMPDEST PUSH2 0x138 PUSH1 0x4 DUP1 CALLDATASIZE SUB DUP2 ADD SWAP1 PUSH2 0x133 SWAP2 SWAP1 PUSH2 0x7EF JUMP JUMPDEST PUSH2 0x32D JUMP JUMPDEST STOP JUMPDEST PUSH1 0x1 PUSH1 0x20 MSTORE DUP1 PUSH0 MSTORE PUSH1 0x40 PUSH0 KECCAK256 PUSH0 SWAP2 POP SWAP1 POP SLOAD DUP2 JUMP JUMPDEST PUSH1 0x2 SLOAD DUP2 JUMP JUMPDEST PUSH0 PUSH1 0x1 PUSH0 CALLER PUSH20 0xFFFFFFFFFFFFFFFFFFFFFFFFFFFFFFFFFFFFFFFF AND PUSH20 0xFFFFFFFFFFFFFFFFFFFFFFFFFFFFFFFFFFFFFFFF AND DUP2 MSTORE PUSH1 0x20 ADD SWAP1 DUP2 MSTORE PUSH1 0x20 ADD PUSH0 KECCAK256 SLOAD SWAP1 POP SWAP1 JUMP JUMPDEST PUSH0 PUSH1 0x20 MSTORE DUP1 PUSH0 MSTORE PUSH1 0x40 PUSH0 KECCAK256 PUSH0 SWAP2 POP SWAP1 POP DUP1 PUSH0 ADD SLOAD SWAP1 DUP1 PUSH1 0x1 ADD SLOAD SWAP1 DUP1 PUSH1 0x2 ADD PUSH0 SWAP1 SLOAD SWAP1 PUSH2 0x100 EXP SWAP1 DIV PUSH1 0xFF AND SWAP1 POP DUP4 JUMP JUMPDEST PUSH0 DUP1 SHL PUSH0 DUP1 CALLER PUSH20 0xFFFFFFFFFFFFFFFFFFFFFFFFFFFFFFFFFFFFFFFF AND PUSH20 0xFFFFFFFFFFFFFFFFFFFFFFFFFFFFFFFFFFFFFFFF AND DUP2 MSTORE PUSH1 0x20 ADD SWAP1 DUP2 MSTORE PUSH1 0x20 ADD PUSH0 KECCAK256 PUSH0 ADD SLOAD EQ PUSH2 0x24C JUMPI PUSH1 0x40 MLOAD PUSH32 0x8C379A000000000000000000000000000000000000000000000000000000000 DUP2 MSTORE PUSH1 0x4 ADD PUSH2 0x243 SWAP1 PUSH2 0x874 JUMP JUMPDEST PUSH1 0x40 MLOAD DUP1 SWAP2 SUB SWAP1 REVERT JUMPDEST PUSH1 0x40 MLOAD DUP1 PUSH1 0x60 ADD PUSH1 0x40 MSTORE DUP1 DUP4 DUP2 MSTORE PUSH1 0x20 ADD DUP3 DUP2 MSTORE PUSH1 0x20 ADD PUSH0 ISZERO ISZERO DUP2 MSTORE POP PUSH0 DUP1 CALLER PUSH20 0xFFFFFFFFFFFFFFFFFFFFFFFFFFFFFFFFFFFFFFFF AND PUSH20 0xFFFFFFFFFFFFFFFFFFFFFFFFFFFFFFFFFFFFFFFF AND DUP2 MSTORE PUSH1 0x20 ADD SWAP1 DUP2 MSTORE PUSH1 0x20 ADD PUSH0 KECCAK256 PUSH0 DUP3 ADD MLOAD DUP2 PUSH0 ADD SSTORE PUSH1 0x20 DUP3 ADD MLOAD DUP2 PUSH1 0x1 ADD SSTORE PUSH1 0x40 DUP3 ADD MLOAD DUP2 PUSH1 0x2 ADD PUSH0 PUSH2 0x100 EXP DUP2 SLOAD DUP2 PUSH1 0xFF MUL NOT AND SWAP1 DUP4 ISZERO ISZERO MUL OR SWAP1 SSTORE POP SWAP1 POP POP CALLER PUSH20 0xFFFFFFFFFFFFFFFFFFFFFFFFFFFFFFFFFFFFFFFF AND PUSH32 0xE2EB33EEC42936FCE5A1488187B0B2ACF48613CE9B785240C133904E680DF2B3 DUP3 DUP5 PUSH1 0x40 MLOAD PUSH2 0x321 SWAP3 SWAP2 SWAP1 PUSH2 0x892 JUMP JUMPDEST PUSH1 0x40 MLOAD DUP1 SWAP2 SUB SWAP1 LOG2 POP POP JUMP JUMPDEST PUSH0 DUP1 SHL PUSH0 DUP1 CALLER PUSH20 0xFFFFFFFFFFFFFFFFFFFFFFFFFFFFFFFFFFFFFFFF AND PUSH20 0xFFFFFFFFFFFFFFFFFFFFFFFFFFFFFFFFFFFFFFFF AND DUP2 MSTORE PUSH1 0x20 ADD SWAP1 DUP2 MSTORE PUSH1 0x20 ADD PUSH0 KECCAK256 PUSH0 ADD SLOAD SUB PUSH2 0x3AF JUMPI PUSH1 0x40 MLOAD PUSH32 0x8C379A000000000000000000000000000000000000000000000000000000000 DUP2 MSTORE PUSH1 0x4 ADD PUSH2 0x3A6 SWAP1 PUSH2 0x903 JUMP JUMPDEST PUSH1 0x40 MLOAD DUP1 SWAP2 SUB SWAP1 REVERT JUMPDEST PUSH0 DUP1 CALLER PUSH20 0xFFFFFFFFFFFFFFFFFFFFFFFFFFFFFFFFFFFFFFFF AND PUSH20 0xFFFFFFFFFFFFFFFFFFFFFFFFFFFFFFFFFFFFFFFF AND DUP2 MSTORE PUSH1 0x20 ADD SWAP1 DUP2 MSTORE PUSH1 0x20 ADD PUSH0 KECCAK256 PUSH1 0x2 ADD PUSH0 SWAP1 SLOAD SWAP1 PUSH2 0x100 EXP SWAP1 DIV PUSH1 0xFF AND ISZERO PUSH2 0x43B JUMPI PUSH1 0x40 MLOAD PUSH32 0x8C379A000000000000000000000000000000000000000000000000000000000 DUP2 MSTORE PUSH1 0x4 ADD PUSH2 0x432 SWAP1 PUSH2 0x96B JUMP JUMPDEST PUSH1 0x40 MLOAD DUP1 SWAP2 SUB SWAP1 REVERT JUMPDEST PUSH0 DUP1 PUSH0 CALLER PUSH20 0xFFFFFFFFFFFFFFFFFFFFFFFFFFFFFFFFFFFFFFFF AND PUSH20 0xFFFFFFFFFFFFFFFFFFFFFFFFFFFFFFFFFFFFFFFF AND DUP2 MSTORE PUSH1 0x20 ADD SWAP1 DUP2 MSTORE PUSH1 0x20 ADD PUSH0 KECCAK256 PUSH0 ADD SLOAD DUP3 EQ SWAP1 POP DUP1 ISZERO PUSH2 0x59F JUMPI PUSH1 0x1 PUSH0 DUP1 CALLER PUSH20 0xFFFFFFFFFFFFFFFFFFFFFFFFFFFFFFFFFFFFFFFF AND PUSH20 0xFFFFFFFFFFFFFFFFFFFFFFFFFFFFFFFFFFFFFFFF AND DUP2 MSTORE PUSH1 0x20 ADD SWAP1 DUP2 MSTORE PUSH1 0x20 ADD PUSH0 KECCAK256 PUSH1 0x2 ADD PUSH0 PUSH2 0x100 EXP DUP2 SLOAD DUP2 PUSH1 0xFF MUL NOT AND SWAP1 DUP4 ISZERO ISZERO MUL OR SWAP1 SSTORE POP PUSH0 PUSH8 0xDE0B6B3A7640000 PUSH0 DUP1 CALLER PUSH20 0xFFFFFFFFFFFFFFFFFFFFFFFFFFFFFFFFFFFFFFFF AND PUSH20 0xFFFFFFFFFFFFFFFFFFFFFFFFFFFFFFFFFFFFFFFF AND DUP2 MSTORE PUSH1 0x20 ADD SWAP1 DUP2 MSTORE PUSH1 0x20 ADD PUSH0 KECCAK256 PUSH1 0x1 ADD SLOAD PUSH2 0x530 SWAP2 SWAP1 PUSH2 0x9B6 JUMP JUMPDEST SWAP1 POP DUP1 PUSH1 0x1 PUSH0 CALLER PUSH20 0xFFFFFFFFFFFFFFFFFFFFFFFFFFFFFFFFFFFFFFFF AND PUSH20 0xFFFFFFFFFFFFFFFFFFFFFFFFFFFFFFFFFFFFFFFF AND DUP2 MSTORE PUSH1 0x20 ADD SWAP1 DUP2 MSTORE PUSH1 0x20 ADD PUSH0 KECCAK256 PUSH0 DUP3 DUP3 SLOAD PUSH2 0x57E SWAP2 SWAP1 PUSH2 0x9F7 JUMP JUMPDEST SWAP3 POP POP DUP2 SWAP1 SSTORE POP DUP1 PUSH1 0x2 PUSH0 DUP3 DUP3 SLOAD PUSH2 0x596 SWAP2 SWAP1 PUSH2 0xA2A JUMP JUMPDEST SWAP3 POP POP DUP2 SWAP1 SSTORE POP POP JUMPDEST CALLER PUSH20 0xFFFFFFFFFFFFFFFFFFFFFFFFFFFFFFFFFFFFFFFF AND PUSH32 0x7D8F1A1A8984821006DA08E5F4D59660B0F444D4FCCA71BD99448C27057BFD50 DUP3 DUP4 PUSH2 0x5E3 JUMPI PUSH0 PUSH2 0x622 JUMP JUMPDEST PUSH1 0x1 PUSH0 CALLER PUSH20 0xFFFFFFFFFFFFFFFFFFFFFFFFFFFFFFFFFFFFFFFF AND PUSH20 0xFFFFFFFFFFFFFFFFFFFFFFFFFFFFFFFFFFFFFFFF AND DUP2 MSTORE PUSH1 0x20 ADD SWAP1 DUP2 MSTORE PUSH1 0x20 ADD PUSH0 KECCAK256 SLOAD JUMPDEST PUSH1 0x40 MLOAD PUSH2 0x630 SWAP3 SWAP2 SWAP1 PUSH2 0xA5D JUMP JUMPDEST PUSH1 0x40 MLOAD DUP1 SWAP2 SUB SWAP1 LOG2 POP POP JUMP JUMPDEST PUSH0 DUP1 REVERT JUMPDEST PUSH0 PUSH20 0xFFFFFFFFFFFFFFFFFFFFFFFFFFFFFFFFFFFFFFFF DUP3 AND SWAP1 POP SWAP2 SWAP1 POP JUMP JUMPDEST PUSH0 PUSH2 0x669 DUP3 PUSH2 0x640 JUMP JUMPDEST SWAP1 POP SWAP2 SWAP1 POP JUMP JUMPDEST PUSH2 0x679 DUP2 PUSH2 0x65F JUMP JUMPDEST DUP2 EQ PUSH2 0x683 JUMPI PUSH0 DUP1 REVERT JUMPDEST POP JUMP JUMPDEST PUSH0 DUP2 CALLDATALOAD SWAP1 POP PUSH2 0x694 DUP2 PUSH2 0x670 JUMP JUMPDEST SWAP3 SWAP2 POP POP JUMP JUMPDEST PUSH0 PUSH1 0x20 DUP3 DUP5 SUB SLT ISZERO PUSH2 0x6AF JUMPI PUSH2 0x6AE PUSH2 0x63C JUMP JUMPDEST JUMPDEST PUSH0 PUSH2 0x6BC DUP5 DUP3 DUP6 ADD PUSH2 0x686 JUMP JUMPDEST SWAP2 POP POP SWAP3 SWAP2 POP POP JUMP JUMPDEST PUSH0 DUP2 SWAP1 POP SWAP2 SWAP1 POP JUMP JUMPDEST PUSH2 0x6D7 DUP2 PUSH2 0x6C5 JUMP JUMPDEST DUP3 MSTORE POP POP JUMP JUMPDEST PUSH0 PUSH1 0x20 DUP3 ADD SWAP1 POP PUSH2 0x6F0 PUSH0 DUP4 ADD DUP5 PUSH2 0x6CE JUMP JUMPDEST SWAP3 SWAP2 POP POP JUMP JUMPDEST PUSH0 DUP2 SWAP1 POP SWAP2 SWAP1 POP JUMP JUMPDEST PUSH2 0x708 DUP2 PUSH2 0x6F6 JUMP JUMPDEST DUP3 MSTORE POP POP JUMP JUMPDEST PUSH0 DUP2 ISZERO ISZERO SWAP1 POP SWAP2 SWAP1 POP JUMP JUMPDEST PUSH2 0x722 DUP2 PUSH2 0x70E JUMP JUMPDEST DUP3 MSTORE POP POP JUMP JUMPDEST PUSH0 PUSH1 0x60 DUP3 ADD SWAP1 POP PUSH2 0x73B PUSH0 DUP4 ADD DUP7 PUSH2 0x6FF JUMP JUMPDEST PUSH2 0x748 PUSH1 0x20 DUP4 ADD DUP6 PUSH2 0x6CE JUMP JUMPDEST PUSH2 0x755 PUSH1 0x40 DUP4 ADD DUP5 PUSH2 0x719 JUMP JUMPDEST SWAP5 SWAP4 POP POP POP POP JUMP JUMPDEST PUSH2 0x766 DUP2 PUSH2 0x6F6 JUMP JUMPDEST DUP2 EQ PUSH2 0x770 JUMPI PUSH0 DUP1 REVERT JUMPDEST POP JUMP JUMPDEST PUSH0 DUP2 CALLDATALOAD SWAP1 POP PUSH2 0x781 DUP2 PUSH2 0x75D JUMP JUMPDEST SWAP3 SWAP2 POP POP JUMP JUMPDEST PUSH2 0x790 DUP2 PUSH2 0x6C5 JUMP JUMPDEST DUP2 EQ PUSH2 0x79A JUMPI PUSH0 DUP1 REVERT JUMPDEST POP JUMP JUMPDEST PUSH0 DUP2 CALLDATALOAD SWAP1 POP PUSH2 0x7AB DUP2 PUSH2 0x787 JUMP JUMPDEST SWAP3 SWAP2 POP POP JUMP JUMPDEST PUSH0 DUP1 PUSH1 0x40 DUP4 DUP6 SUB SLT ISZERO PUSH2 0x7C7 JUMPI PUSH2 0x7C6 PUSH2 0x63C JUMP JUMPDEST JUMPDEST PUSH0 PUSH2 0x7D4 DUP6 DUP3 DUP7 ADD PUSH2 0x773 JUMP JUMPDEST SWAP3 POP POP PUSH1 0x20 PUSH2 0x7E5 DUP6 DUP3 DUP7 ADD PUSH2 0x79D JUMP JUMPDEST SWAP2 POP POP SWAP3 POP SWAP3 SWAP1 POP JUMP JUMPDEST PUSH0 PUSH1 0x20 DUP3 DUP5 SUB SLT ISZERO PUSH2 0x804 JUMPI PUSH2 0x803 PUSH2 0x63C JUMP JUMPDEST JUMPDEST PUSH0 PUSH2 0x811 DUP5 DUP3 DUP6 ADD PUSH2 0x773 JUMP JUMPDEST SWAP2 POP POP SWAP3 SWAP2 POP POP JUMP JUMPDEST PUSH0 DUP3 DUP3 MSTORE PUSH1 0x20 DUP3 ADD SWAP1 POP SWAP3 SWAP2 POP POP JUMP JUMPDEST PUSH32 0x416C726561647920636F6D6D6974746564000000000000000000000000000000 PUSH0 DUP3 ADD MSTORE POP JUMP JUMPDEST PUSH0 PUSH2 0x85E PUSH1 0x11 DUP4 PUSH2 0x81A JUMP JUMPDEST SWAP2 POP PUSH2 0x869 DUP3 PUSH2 0x82A JUMP JUMPDEST PUSH1 0x20 DUP3 ADD SWAP1 POP SWAP2 SWAP1 POP JUMP JUMPDEST PUSH0 PUSH1 0x20 DUP3 ADD SWAP1 POP DUP2 DUP2 SUB PUSH0 DUP4 ADD MSTORE PUSH2 0x88B DUP2 PUSH2 0x852 JUMP JUMPDEST SWAP1 POP SWAP2 SWAP1 POP JUMP JUMPDEST PUSH0 PUSH1 0x40 DUP3 ADD SWAP1 POP PUSH2 0x8A5 PUSH0 DUP4 ADD DUP6 PUSH2 0x6CE JUMP JUMPDEST PUSH2 0x8B2 PUSH1 0x20 DUP4 ADD DUP5 PUSH2 0x6FF JUMP JUMPDEST SWAP4 SWAP3 POP POP POP JUMP JUMPDEST PUSH32 0x4E6F20636F6D6D69746D656E7420666F756E6400000000000000000000000000 PUSH0 DUP3 ADD MSTORE POP JUMP JUMPDEST PUSH0 PUSH2 0x8ED PUSH1 0x13 DUP4 PUSH2 0x81A JUMP JUMPDEST SWAP2 POP PUSH2 0x8F8 DUP3 PUSH2 0x8B9 JUMP JUMPDEST PUSH1 0x20 DUP3 ADD SWAP1 POP SWAP2 SWAP1 POP JUMP JUMPDEST PUSH0 PUSH1 0x20 DUP3 ADD SWAP1 POP DUP2 DUP2 SUB PUSH0 DUP4 ADD MSTORE PUSH2 0x91A DUP2 PUSH2 0x8E1 JUMP JUMPDEST SWAP1 POP SWAP2 SWAP1 POP JUMP JUMPDEST PUSH32 0x416C72656164792070726F76656E000000000000000000000000000000000000 PUSH0 DUP3 ADD MSTORE POP JUMP JUMPDEST PUSH0 PUSH2 0x955 PUSH1 0xE DUP4 PUSH2 0x81A JUMP JUMPDEST SWAP2 POP PUSH2 0x960 DUP3 PUSH2 0x921 JUMP JUMPDEST PUSH1 0x20 DUP3 ADD SWAP1 POP SWAP2 SWAP1 POP JUMP JUMPDEST PUSH0 PUSH1 0x20 DUP3 ADD SWAP1 POP DUP2 DUP2 SUB PUSH0 DUP4 ADD MSTORE PUSH2 0x982 DUP2 PUSH2 0x949 JUMP JUMPDEST SWAP1 POP SWAP2 SWAP1 POP JUMP JUMPDEST PUSH32 0x4E487B7100000000000000000000000000000000000000000000000000000000 PUSH0 MSTORE PUSH1 0x11 PUSH1 0x4 MSTORE PUSH1 0x24 PUSH0 REVERT JUMPDEST PUSH0 PUSH2 0x9C0 DUP3 PUSH2 0x6C5 JUMP JUMPDEST SWAP2 POP PUSH2 0x9CB DUP4 PUSH2 0x6C5 JUMP JUMPDEST SWAP3 POP DUP3 DUP3 MUL PUSH2 0x9D9 DUP2 PUSH2 0x6C5 JUMP JUMPDEST SWAP2 POP DUP3 DUP3 DIV DUP5 EQ DUP4 ISZERO OR PUSH2 0x9F0 JUMPI PUSH2 0x9EF PUSH2 0x989 JUMP JUMPDEST JUMPDEST POP SWAP3 SWAP2 POP POP JUMP JUMPDEST PUSH0 PUSH2 0xA01 DUP3 PUSH2 0x6C5 JUMP JUMPDEST SWAP2 POP PUSH2 0xA0C DUP4 PUSH2 0x6C5 JUMP JUMPDEST SWAP3 POP DUP3 DUP3 ADD SWAP1 POP DUP1 DUP3 GT ISZERO PUSH2 0xA24 JUMPI PUSH2 0xA23 PUSH2 0x989 JUMP JUMPDEST JUMPDEST SWAP3 SWAP2 POP POP JUMP JUMPDEST PUSH0 PUSH2 0xA34 DUP3 PUSH2 0x6C5 JUMP JUMPDEST SWAP2 POP PUSH2 0xA3F DUP4 PUSH2 0x6C5 JUMP JUMPDEST SWAP3 POP DUP3 DUP3 SUB SWAP1 POP DUP2 DUP2 GT ISZERO PUSH2 0xA57 JUMPI PUSH2 0xA56 PUSH2 0x989 JUMP JUMPDEST JUMPDEST SWAP3 SWAP2 POP POP JUMP JUMPDEST PUSH0 PUSH1 0x40 DUP3 ADD SWAP1 POP PUSH2 0xA70 PUSH0 DUP4 ADD DUP6 PUSH2 0x719 JUMP JUMPDEST PUSH2 0xA7D PUSH1 0x20 DUP4 ADD DUP5 PUSH2 0x6CE JUMP JUMPDEST SWAP4 SWAP3 POP POP POP JUMP INVALID LOG2 PUSH5 0x6970667358 0x22 SLT KECCAK256 DUP7 MOD SIGNEXTEND SUB 0xB3 RETURNDATASIZE 0xC7 0x2D BLOCKHASH 0xAF GASLIMIT SUB 0x26 BYTE DUP10 BALANCE 0xDF 0xB8 PUSH26 0x39E7335FB5AFAB0BD1A7EE4BED64736F6C634300081400330000 "
				},
				"gasEstimates": {
					"creation": {
						"codeDepositCost": "549200",
						"executionCost": "26370",
						"totalCost": "575570"
					},
					"external": {
						"commitSpace(bytes32,uint256)": "infinite",
						"getRewardBalance()": "2541",
						"miners(address)": "7321",
						"rewards(address)": "2780",
						"submitProof(bytes32)": "infinite",
						"totalRewards()": "2425"
					}
				},
				"methodIdentifiers": {
					"commitSpace(bytes32,uint256)": "6989215e",
					"getRewardBalance()": "5e42b455",
					"miners(address)": "648ec7b9",
					"rewards(address)": "0700037d",
					"submitProof(bytes32)": "bf084408",
					"totalRewards()": "0e15561a"
				}
			},
			"storageLayout": {
				"storage": [
					{
						"astId": 13,
						"contract": "contracts/ProofOfSpace.sol:ProofOfSpace",
						"label": "miners",
						"offset": 0,
						"slot": "0",
						"type": "t_mapping(t_address,t_struct(Miner)8_storage)"
					},
					{
						"astId": 17,
						"contract": "contracts/ProofOfSpace.sol:ProofOfSpace",
						"label": "rewards",
						"offset": 0,
						"slot": "1",
						"type": "t_mapping(t_address,t_uint256)"
					},
					{
						"astId": 19,
						"contract": "contracts/ProofOfSpace.sol:ProofOfSpace",
						"label": "totalRewards",
						"offset": 0,
						"slot": "2",
						"type": "t_uint256"
					}
				],
				"types": {
					"t_address": {
						"encoding": "inplace",
						"label": "address",
						"numberOfBytes": "20"
					},
					"t_bool": {
						"encoding": "inplace",
						"label": "bool",
						"numberOfBytes": "1"
					},
					"t_bytes32": {
						"encoding": "inplace",
						"label": "bytes32",
						"numberOfBytes": "32"
					},
					"t_mapping(t_address,t_struct(Miner)8_storage)": {
						"encoding": "mapping",
						"key": "t_address",
						"label": "mapping(address => struct ProofOfSpace.Miner)",
						"numberOfBytes": "32",
						"value": "t_struct(Miner)8_storage"
					},
					"t_mapping(t_address,t_uint256)": {
						"encoding": "mapping",
						"key": "t_address",
						"label": "mapping(address => uint256)",
						"numberOfBytes": "32",
						"value": "t_uint256"
					},
					"t_struct(Miner)8_storage": {
						"encoding": "inplace",
						"label": "struct ProofOfSpace.Miner",
						"members": [
							{
								"astId": 3,
								"contract": "contracts/ProofOfSpace.sol:ProofOfSpace",
								"label": "commitment",
								"offset": 0,
								"slot": "0",
								"type": "t_bytes32"
							},
							{
								"astId": 5,
								"contract": "contracts/ProofOfSpace.sol:ProofOfSpace",
								"label": "spaceSize",
								"offset": 0,
								"slot": "1",
								"type": "t_uint256"
							},
							{
								"astId": 7,
								"contract": "contracts/ProofOfSpace.sol:ProofOfSpace",
								"label": "hasProven",
								"offset": 0,
								"slot": "2",
								"type": "t_bool"
							}
						],
						"numberOfBytes": "96"
					},
					"t_uint256": {
						"encoding": "inplace",
						"label": "uint256",
						"numberOfBytes": "32"
					}
				}
			},
			"userdoc": {
				"kind": "user",
				"methods": {},
				"version": 1
			}
		}
	}
}