{
	"contracts/ProofOfSpace.sol": {
		"ProofOfSpace": {
			"abi": [
				{
					"anonymous": false,
					"inputs": [
						{
							"indexed": true,
							"internalType": "address",
							"name": "miner",
							"type": "address"
						},
						{
							"indexed": false,
							"internalType": "bool",
							"name": "valid",
							"type": "bool"
						},
						{
							"indexed": false,
							"internalType": "uint256",
							"name": "reward",
							"type": "uint256"
						}
					],
					"name": "ProofSubmitted",
					"type": "event"
				},
				{
					"anonymous": false,
					"inputs": [
						{
							"indexed": true,
							"internalType": "address",
							"name": "miner",
							"type": "address"
						},
						{
							"indexed": false,
							"internalType": "uint256",
							"name": "spaceSize",
							"type": "uint256"
						},
						{
							"indexed": false,
							"internalType": "bytes32",
							"name": "commitment",
							"type": "bytes32"
						}
					],
					"name": "SpaceCommitted",
					"type": "event"
				},
				{
					"inputs": [
						{
							"internalType": "bytes32",
							"name": "_commitment",
							"type": "bytes32"
						},
						{
							"internalType": "uint256",
							"name": "_spaceSize",
							"type": "uint256"
						}
					],
					"name": "commitSpace",
					"outputs": [],
					"stateMutability": "nonpayable",
					"type": "function"
				},
				{
					"inputs": [],
					"name": "getRewardBalance",
					"outputs": [
						{
							"internalType": "uint256",
							"name": "",
							"type": "uint256"
						}
					],
					"stateMutability": "view",
					"type": "function"
				},
				{
					"inputs": [
						{
							"internalType": "address",
							"name": "",
							"type": "address"
						}
					],
					"name": "miners",
					"outputs": [
						{
							"internalType": "bytes32",
							"name": "commitment",
							"type": "bytes32"
						},
						{
							"internalType": "uint256",
							"name": "spaceSize",
							"type": "uint256"
						},
						{
							"internalType": "bool",
							"name": "hasProven",
							"type": "bool"
						}
					],
					"stateMutability": "view",
					"type": "function"
				},
				{
					"inputs": [
						{
							"internalType": "address",
							"name": "",
							"type": "address"
						}
					],
					"name": "rewards",
					"outputs": [
						{
							"internalType": "uint256",
							"name": "",
							"type": "uint256"
						}
					],
					"stateMutability": "view",
					"type": "function"
				},
				{
					"inputs": [
						{
							"internalType": "bytes32",
							"name": "_proof",
							"type": "bytes32"
						}
					],
					"name": "submitProof",
					"outputs": [],
					"stateMutability": "nonpayable",
					"type": "function"
				},
				{
					"inputs": [],
					"name": "totalRewards",
					"outputs": [
						{
							"internalType": "uint256",
							"name": "",
							"type": "uint256"
						}
					],
					"stateMutability": "view",
					"type": "function"
				}
			],
			"devdoc": {
				"kind": "dev",
				"methods": {},
				"version": 1
			},
			"evm": {
				"assembly": "    /* \"contracts/ProofOfSpace.sol\":58:2158  contract ProofOfSpace {... */\n  mstore(0x40, 0x80)\n    /* \"contracts/ProofOfSpace.sol\":488:498  1000 ether */\n  0x3635c9adc5dea00000\n    /* \"contracts/ProofOfSpace.sol\":458:498  uint256 public totalRewards = 1000 ether */\n  0x02\n  sstore\n    /* \"contracts/ProofOfSpace.sol\":58:2158  contract ProofOfSpace {... */\n  callvalue\n  dup1\n  iszero\n  tag_1\n  jumpi\n  0x00\n  dup1\n  revert\ntag_1:\n  pop\n  dataSize(sub_0)\n  dup1\n  dataOffset(sub_0)\n  0x00\n  codecopy\n  0x00\n  return\nstop\n\nsub_0: assembly {\n        /* \"contracts/ProofOfSpace.sol\":58:2158  contract ProofOfSpace {... */\n      mstore(0x40, 0x80)\n      callvalue\n      dup1\n      iszero\n      tag_1\n      jumpi\n      0x00\n      dup1\n      revert\n    tag_1:\n      pop\n      jumpi(tag_2, lt(calldatasize, 0x04))\n      shr(0xe0, calldataload(0x00))\n      dup1\n      0x0700037d\n      eq\n      tag_3\n      jumpi\n      dup1\n      0x0e15561a\n      eq\n      tag_4\n      jumpi\n      dup1\n      0x5e42b455\n      eq\n      tag_5\n      jumpi\n      dup1\n      0x648ec7b9\n      eq\n      tag_6\n      jumpi\n      dup1\n      0x6989215e\n      eq\n      tag_7\n      jumpi\n      dup1\n      0xbf084408\n      eq\n      tag_8\n      jumpi\n    tag_2:\n      0x00\n      dup1\n      revert\n        /* \"contracts/ProofOfSpace.sol\":376:418  mapping(address => uint256) public rewards */\n    tag_3:\n      tag_9\n      0x04\n      dup1\n      calldatasize\n      sub\n      dup2\n      add\n      swap1\n      tag_10\n      swap2\n      swap1\n      tag_11\n      jump\t// in\n    tag_10:\n      tag_12\n      jump\t// in\n    tag_9:\n      mload(0x40)\n      tag_13\n      swap2\n      swap1\n      tag_14\n      jump\t// in\n    tag_13:\n      mload(0x40)\n      dup1\n      swap2\n      sub\n      swap1\n      return\n        /* \"contracts/ProofOfSpace.sol\":458:498  uint256 public totalRewards = 1000 ether */\n    tag_4:\n      tag_15\n      tag_16\n      jump\t// in\n    tag_15:\n      mload(0x40)\n      tag_17\n      swap2\n      swap1\n      tag_14\n      jump\t// in\n    tag_17:\n      mload(0x40)\n      dup1\n      swap2\n      sub\n      swap1\n      return\n        /* \"contracts/ProofOfSpace.sol\":2053:2156  function getRewardBalance() external view returns (uint256) {... */\n    tag_5:\n      tag_18\n      tag_19\n      jump\t// in\n    tag_18:\n      mload(0x40)\n      tag_20\n      swap2\n      swap1\n      tag_14\n      jump\t// in\n    tag_20:\n      mload(0x40)\n      dup1\n      swap2\n      sub\n      swap1\n      return\n        /* \"contracts/ProofOfSpace.sol\":293:332  mapping(address => Miner) public miners */\n    tag_6:\n      tag_21\n      0x04\n      dup1\n      calldatasize\n      sub\n      dup2\n      add\n      swap1\n      tag_22\n      swap2\n      swap1\n      tag_11\n      jump\t// in\n    tag_22:\n      tag_23\n      jump\t// in\n    tag_21:\n      mload(0x40)\n      tag_24\n      swap4\n      swap3\n      swap2\n      swap1\n      tag_25\n      jump\t// in\n    tag_24:\n      mload(0x40)\n      dup1\n      swap2\n      sub\n      swap1\n      return\n        /* \"contracts/ProofOfSpace.sol\":796:1206  function commitSpace(bytes32 _commitment, uint256 _spaceSize) external {... */\n    tag_7:\n      tag_26\n      0x04\n      dup1\n      calldatasize\n      sub\n      dup2\n      add\n      swap1\n      tag_27\n      swap2\n      swap1\n      tag_28\n      jump\t// in\n    tag_27:\n      tag_29\n      jump\t// in\n    tag_26:\n      stop\n        /* \"contracts/ProofOfSpace.sol\":1254:2006  function submitProof(bytes32 _proof) external {... */\n    tag_8:\n      tag_30\n      0x04\n      dup1\n      calldatasize\n      sub\n      dup2\n      add\n      swap1\n      tag_31\n      swap2\n      swap1\n      tag_32\n      jump\t// in\n    tag_31:\n      tag_33\n      jump\t// in\n    tag_30:\n      stop\n        /* \"contracts/ProofOfSpace.sol\":376:418  mapping(address => uint256) public rewards */\n    tag_12:\n      mstore(0x20, 0x01)\n      dup1\n      0x00\n      mstore\n      keccak256(0x00, 0x40)\n      0x00\n      swap2\n      pop\n      swap1\n      pop\n      sload\n      dup2\n      jump\t// out\n        /* \"contracts/ProofOfSpace.sol\":458:498  uint256 public totalRewards = 1000 ether */\n    tag_16:\n      sload(0x02)\n      dup2\n      jump\t// out\n        /* \"contracts/ProofOfSpace.sol\":2053:2156  function getRewardBalance() external view returns (uint256) {... */\n    tag_19:\n        /* \"contracts/ProofOfSpace.sol\":2104:2111  uint256 */\n      0x00\n        /* \"contracts/ProofOfSpace.sol\":2130:2137  rewards */\n      0x01\n        /* \"contracts/ProofOfSpace.sol\":2130:2149  rewards[msg.sender] */\n      0x00\n        /* \"contracts/ProofOfSpace.sol\":2138:2148  msg.sender */\n      caller\n        /* \"contracts/ProofOfSpace.sol\":2130:2149  rewards[msg.sender] */\n      0xffffffffffffffffffffffffffffffffffffffff\n      and\n      0xffffffffffffffffffffffffffffffffffffffff\n      and\n      dup2\n      mstore\n      0x20\n      add\n      swap1\n      dup2\n      mstore\n      0x20\n      add\n      0x00\n      keccak256\n      sload\n        /* \"contracts/ProofOfSpace.sol\":2123:2149  return rewards[msg.sender] */\n      swap1\n      pop\n        /* \"contracts/ProofOfSpace.sol\":2053:2156  function getRewardBalance() external view returns (uint256) {... */\n      swap1\n      jump\t// out\n        /* \"contracts/ProofOfSpace.sol\":293:332  mapping(address => Miner) public miners */\n    tag_23:\n      mstore(0x20, 0x00)\n      dup1\n      0x00\n      mstore\n      keccak256(0x00, 0x40)\n      0x00\n      swap2\n      pop\n      swap1\n      pop\n      dup1\n      0x00\n      add\n      sload\n      swap1\n      dup1\n      0x01\n      add\n      sload\n      swap1\n      dup1\n      0x02\n      add\n      0x00\n      swap1\n      sload\n      swap1\n      0x0100\n      exp\n      swap1\n      div\n      0xff\n      and\n      swap1\n      pop\n      dup4\n      jump\t// out\n        /* \"contracts/ProofOfSpace.sol\":796:1206  function commitSpace(bytes32 _commitment, uint256 _spaceSize) external {... */\n    tag_29:\n        /* \"contracts/ProofOfSpace.sol\":926:927  0 */\n      0x00\n        /* \"contracts/ProofOfSpace.sol\":918:928  bytes32(0) */\n      dup1\n      shl\n        /* \"contracts/ProofOfSpace.sol\":885:891  miners */\n      0x00\n        /* \"contracts/ProofOfSpace.sol\":885:903  miners[msg.sender] */\n      dup1\n        /* \"contracts/ProofOfSpace.sol\":892:902  msg.sender */\n      caller\n        /* \"contracts/ProofOfSpace.sol\":885:903  miners[msg.sender] */\n      0xffffffffffffffffffffffffffffffffffffffff\n      and\n      0xffffffffffffffffffffffffffffffffffffffff\n      and\n      dup2\n      mstore\n      0x20\n      add\n      swap1\n      dup2\n      mstore\n      0x20\n      add\n      0x00\n      keccak256\n        /* \"contracts/ProofOfSpace.sol\":885:914  miners[msg.sender].commitment */\n      0x00\n      add\n      sload\n        /* \"contracts/ProofOfSpace.sol\":885:928  miners[msg.sender].commitment == bytes32(0) */\n      eq\n        /* \"contracts/ProofOfSpace.sol\":877:950  require(miners[msg.sender].commitment == bytes32(0), \"Already committed\") */\n      tag_36\n      jumpi\n      mload(0x40)\n      0x08c379a000000000000000000000000000000000000000000000000000000000\n      dup2\n      mstore\n      0x04\n      add\n      tag_37\n      swap1\n      tag_38\n      jump\t// in\n    tag_37:\n      mload(0x40)\n      dup1\n      swap2\n      sub\n      swap1\n      revert\n    tag_36:\n        /* \"contracts/ProofOfSpace.sol\":981:982  0 */\n      0x00\n        /* \"contracts/ProofOfSpace.sol\":968:978  _spaceSize */\n      dup2\n        /* \"contracts/ProofOfSpace.sol\":968:982  _spaceSize > 0 */\n      gt\n        /* \"contracts/ProofOfSpace.sol\":960:1023  require(_spaceSize > 0, \"Space size must be greater than zero\") */\n      tag_39\n      jumpi\n      mload(0x40)\n      0x08c379a000000000000000000000000000000000000000000000000000000000\n      dup2\n      mstore\n      0x04\n      add\n      tag_40\n      swap1\n      tag_41\n      jump\t// in\n    tag_40:\n      mload(0x40)\n      dup1\n      swap2\n      sub\n      swap1\n      revert\n    tag_39:\n        /* \"contracts/ProofOfSpace.sol\":1095:1132  Miner(_commitment, _spaceSize, false) */\n      mload(0x40)\n      dup1\n      0x60\n      add\n      0x40\n      mstore\n      dup1\n        /* \"contracts/ProofOfSpace.sol\":1101:1112  _commitment */\n      dup4\n        /* \"contracts/ProofOfSpace.sol\":1095:1132  Miner(_commitment, _spaceSize, false) */\n      dup2\n      mstore\n      0x20\n      add\n        /* \"contracts/ProofOfSpace.sol\":1114:1124  _spaceSize */\n      dup3\n        /* \"contracts/ProofOfSpace.sol\":1095:1132  Miner(_commitment, _spaceSize, false) */\n      dup2\n      mstore\n      0x20\n      add\n        /* \"contracts/ProofOfSpace.sol\":1126:1131  false */\n      0x00\n        /* \"contracts/ProofOfSpace.sol\":1095:1132  Miner(_commitment, _spaceSize, false) */\n      iszero\n      iszero\n      dup2\n      mstore\n      pop\n        /* \"contracts/ProofOfSpace.sol\":1074:1080  miners */\n      0x00\n        /* \"contracts/ProofOfSpace.sol\":1074:1092  miners[msg.sender] */\n      dup1\n        /* \"contracts/ProofOfSpace.sol\":1081:1091  msg.sender */\n      caller\n        /* \"contracts/ProofOfSpace.sol\":1074:1092  miners[msg.sender] */\n      0xffffffffffffffffffffffffffffffffffffffff\n      and\n      0xffffffffffffffffffffffffffffffffffffffff\n      and\n      dup2\n      mstore\n      0x20\n      add\n      swap1\n      dup2\n      mstore\n      0x20\n      add\n      0x00\n      keccak256\n        /* \"contracts/ProofOfSpace.sol\":1074:1132  miners[msg.sender] = Miner(_commitment, _spaceSize, false) */\n      0x00\n      dup3\n      add\n      mload\n      dup2\n      0x00\n      add\n      sstore\n      0x20\n      dup3\n      add\n      mload\n      dup2\n      0x01\n      add\n      sstore\n      0x40\n      dup3\n      add\n      mload\n      dup2\n      0x02\n      add\n      exp(0x0100, 0x00)\n      dup2\n      sload\n      dup2\n      0xff\n      mul\n      not\n      and\n      swap1\n      dup4\n      iszero\n      iszero\n      mul\n      or\n      swap1\n      sstore\n      pop\n      swap1\n      pop\n      pop\n        /* \"contracts/ProofOfSpace.sol\":1163:1173  msg.sender */\n      caller\n        /* \"contracts/ProofOfSpace.sol\":1148:1199  SpaceCommitted(msg.sender, _spaceSize, _commitment) */\n      0xffffffffffffffffffffffffffffffffffffffff\n      and\n      0xe2eb33eec42936fce5a1488187b0b2acf48613ce9b785240c133904e680df2b3\n        /* \"contracts/ProofOfSpace.sol\":1175:1185  _spaceSize */\n      dup3\n        /* \"contracts/ProofOfSpace.sol\":1187:1198  _commitment */\n      dup5\n        /* \"contracts/ProofOfSpace.sol\":1148:1199  SpaceCommitted(msg.sender, _spaceSize, _commitment) */\n      mload(0x40)\n      tag_42\n      swap3\n      swap2\n      swap1\n      tag_43\n      jump\t// in\n    tag_42:\n      mload(0x40)\n      dup1\n      swap2\n      sub\n      swap1\n      log2\n        /* \"contracts/ProofOfSpace.sol\":796:1206  function commitSpace(bytes32 _commitment, uint256 _spaceSize) external {... */\n      pop\n      pop\n      jump\t// out\n        /* \"contracts/ProofOfSpace.sol\":1254:2006  function submitProof(bytes32 _proof) external {... */\n    tag_33:\n        /* \"contracts/ProofOfSpace.sol\":1359:1360  0 */\n      0x00\n        /* \"contracts/ProofOfSpace.sol\":1351:1361  bytes32(0) */\n      dup1\n      shl\n        /* \"contracts/ProofOfSpace.sol\":1318:1324  miners */\n      0x00\n        /* \"contracts/ProofOfSpace.sol\":1318:1336  miners[msg.sender] */\n      dup1\n        /* \"contracts/ProofOfSpace.sol\":1325:1335  msg.sender */\n      caller\n        /* \"contracts/ProofOfSpace.sol\":1318:1336  miners[msg.sender] */\n      0xffffffffffffffffffffffffffffffffffffffff\n      and\n      0xffffffffffffffffffffffffffffffffffffffff\n      and\n      dup2\n      mstore\n      0x20\n      add\n      swap1\n      dup2\n      mstore\n      0x20\n      add\n      0x00\n      keccak256\n        /* \"contracts/ProofOfSpace.sol\":1318:1347  miners[msg.sender].commitment */\n      0x00\n      add\n      sload\n        /* \"contracts/ProofOfSpace.sol\":1318:1361  miners[msg.sender].commitment != bytes32(0) */\n      sub\n        /* \"contracts/ProofOfSpace.sol\":1310:1385  require(miners[msg.sender].commitment != bytes32(0), \"No commitment found\") */\n      tag_45\n      jumpi\n      mload(0x40)\n      0x08c379a000000000000000000000000000000000000000000000000000000000\n      dup2\n      mstore\n      0x04\n      add\n      tag_46\n      swap1\n      tag_47\n      jump\t// in\n    tag_46:\n      mload(0x40)\n      dup1\n      swap2\n      sub\n      swap1\n      revert\n    tag_45:\n        /* \"contracts/ProofOfSpace.sol\":1404:1410  miners */\n      0x00\n        /* \"contracts/ProofOfSpace.sol\":1404:1422  miners[msg.sender] */\n      dup1\n        /* \"contracts/ProofOfSpace.sol\":1411:1421  msg.sender */\n      caller\n        /* \"contracts/ProofOfSpace.sol\":1404:1422  miners[msg.sender] */\n      0xffffffffffffffffffffffffffffffffffffffff\n      and\n      0xffffffffffffffffffffffffffffffffffffffff\n      and\n      dup2\n      mstore\n      0x20\n      add\n      swap1\n      dup2\n      mstore\n      0x20\n      add\n      0x00\n      keccak256\n        /* \"contracts/ProofOfSpace.sol\":1404:1432  miners[msg.sender].hasProven */\n      0x02\n      add\n      0x00\n      swap1\n      sload\n      swap1\n      0x0100\n      exp\n      swap1\n      div\n      0xff\n      and\n        /* \"contracts/ProofOfSpace.sol\":1403:1432  !miners[msg.sender].hasProven */\n      iszero\n        /* \"contracts/ProofOfSpace.sol\":1395:1451  require(!miners[msg.sender].hasProven, \"Already proven\") */\n      tag_48\n      jumpi\n      mload(0x40)\n      0x08c379a000000000000000000000000000000000000000000000000000000000\n      dup2\n      mstore\n      0x04\n      add\n      tag_49\n      swap1\n      tag_50\n      jump\t// in\n    tag_49:\n      mload(0x40)\n      dup1\n      swap2\n      sub\n      swap1\n      revert\n    tag_48:\n        /* \"contracts/ProofOfSpace.sol\":1525:1537  bool isValid */\n      0x00\n        /* \"contracts/ProofOfSpace.sol\":1550:1556  miners */\n      dup1\n        /* \"contracts/ProofOfSpace.sol\":1550:1568  miners[msg.sender] */\n      0x00\n        /* \"contracts/ProofOfSpace.sol\":1557:1567  msg.sender */\n      caller\n        /* \"contracts/ProofOfSpace.sol\":1550:1568  miners[msg.sender] */\n      0xffffffffffffffffffffffffffffffffffffffff\n      and\n      0xffffffffffffffffffffffffffffffffffffffff\n      and\n      dup2\n      mstore\n      0x20\n      add\n      swap1\n      dup2\n      mstore\n      0x20\n      add\n      0x00\n      keccak256\n        /* \"contracts/ProofOfSpace.sol\":1550:1579  miners[msg.sender].commitment */\n      0x00\n      add\n      sload\n        /* \"contracts/ProofOfSpace.sol\":1540:1546  _proof */\n      dup3\n        /* \"contracts/ProofOfSpace.sol\":1540:1579  _proof == miners[msg.sender].commitment */\n      eq\n        /* \"contracts/ProofOfSpace.sol\":1525:1579  bool isValid = _proof == miners[msg.sender].commitment */\n      swap1\n      pop\n        /* \"contracts/ProofOfSpace.sol\":1597:1604  isValid */\n      dup1\n        /* \"contracts/ProofOfSpace.sol\":1589:1622  require(isValid, \"Invalid proof\") */\n      tag_51\n      jumpi\n      mload(0x40)\n      0x08c379a000000000000000000000000000000000000000000000000000000000\n      dup2\n      mstore\n      0x04\n      add\n      tag_52\n      swap1\n      tag_53\n      jump\t// in\n    tag_52:\n      mload(0x40)\n      dup1\n      swap2\n      sub\n      swap1\n      revert\n    tag_51:\n        /* \"contracts/ProofOfSpace.sol\":1710:1714  true */\n      0x01\n        /* \"contracts/ProofOfSpace.sol\":1679:1685  miners */\n      0x00\n        /* \"contracts/ProofOfSpace.sol\":1679:1697  miners[msg.sender] */\n      dup1\n        /* \"contracts/ProofOfSpace.sol\":1686:1696  msg.sender */\n      caller\n        /* \"contracts/ProofOfSpace.sol\":1679:1697  miners[msg.sender] */\n      0xffffffffffffffffffffffffffffffffffffffff\n      and\n      0xffffffffffffffffffffffffffffffffffffffff\n      and\n      dup2\n      mstore\n      0x20\n      add\n      swap1\n      dup2\n      mstore\n      0x20\n      add\n      0x00\n      keccak256\n        /* \"contracts/ProofOfSpace.sol\":1679:1707  miners[msg.sender].hasProven */\n      0x02\n      add\n      0x00\n        /* \"contracts/ProofOfSpace.sol\":1679:1714  miners[msg.sender].hasProven = true */\n      0x0100\n      exp\n      dup2\n      sload\n      dup2\n      0xff\n      mul\n      not\n      and\n      swap1\n      dup4\n      iszero\n      iszero\n      mul\n      or\n      swap1\n      sstore\n      pop\n        /* \"contracts/ProofOfSpace.sol\":1724:1738  uint256 reward */\n      0x00\n        /* \"contracts/ProofOfSpace.sol\":1772:1779  1 ether */\n      0x0de0b6b3a7640000\n        /* \"contracts/ProofOfSpace.sol\":1741:1747  miners */\n      0x00\n        /* \"contracts/ProofOfSpace.sol\":1741:1759  miners[msg.sender] */\n      dup1\n        /* \"contracts/ProofOfSpace.sol\":1748:1758  msg.sender */\n      caller\n        /* \"contracts/ProofOfSpace.sol\":1741:1759  miners[msg.sender] */\n      0xffffffffffffffffffffffffffffffffffffffff\n      and\n      0xffffffffffffffffffffffffffffffffffffffff\n      and\n      dup2\n      mstore\n      0x20\n      add\n      swap1\n      dup2\n      mstore\n      0x20\n      add\n      0x00\n      keccak256\n        /* \"contracts/ProofOfSpace.sol\":1741:1769  miners[msg.sender].spaceSize */\n      0x01\n      add\n      sload\n        /* \"contracts/ProofOfSpace.sol\":1741:1779  miners[msg.sender].spaceSize * 1 ether */\n      tag_54\n      swap2\n      swap1\n      tag_55\n      jump\t// in\n    tag_54:\n        /* \"contracts/ProofOfSpace.sol\":1724:1779  uint256 reward = miners[msg.sender].spaceSize * 1 ether */\n      swap1\n      pop\n        /* \"contracts/ProofOfSpace.sol\":1823:1835  totalRewards */\n      sload(0x02)\n        /* \"contracts/ProofOfSpace.sol\":1813:1819  reward */\n      dup2\n        /* \"contracts/ProofOfSpace.sol\":1813:1835  reward <= totalRewards */\n      gt\n      iszero\n        /* \"contracts/ProofOfSpace.sol\":1805:1868  require(reward <= totalRewards, \"Not enough rewards available\") */\n      tag_56\n      jumpi\n      mload(0x40)\n      0x08c379a000000000000000000000000000000000000000000000000000000000\n      dup2\n      mstore\n      0x04\n      add\n      tag_57\n      swap1\n      tag_58\n      jump\t// in\n    tag_57:\n      mload(0x40)\n      dup1\n      swap2\n      sub\n      swap1\n      revert\n    tag_56:\n        /* \"contracts/ProofOfSpace.sol\":1902:1908  reward */\n      dup1\n        /* \"contracts/ProofOfSpace.sol\":1879:1886  rewards */\n      0x01\n        /* \"contracts/ProofOfSpace.sol\":1879:1898  rewards[msg.sender] */\n      0x00\n        /* \"contracts/ProofOfSpace.sol\":1887:1897  msg.sender */\n      caller\n        /* \"contracts/ProofOfSpace.sol\":1879:1898  rewards[msg.sender] */\n      0xffffffffffffffffffffffffffffffffffffffff\n      and\n      0xffffffffffffffffffffffffffffffffffffffff\n      and\n      dup2\n      mstore\n      0x20\n      add\n      swap1\n      dup2\n      mstore\n      0x20\n      add\n      0x00\n      keccak256\n      0x00\n        /* \"contracts/ProofOfSpace.sol\":1879:1908  rewards[msg.sender] += reward */\n      dup3\n      dup3\n      sload\n      tag_59\n      swap2\n      swap1\n      tag_60\n      jump\t// in\n    tag_59:\n      swap3\n      pop\n      pop\n      dup2\n      swap1\n      sstore\n      pop\n        /* \"contracts/ProofOfSpace.sol\":1934:1940  reward */\n      dup1\n        /* \"contracts/ProofOfSpace.sol\":1918:1930  totalRewards */\n      0x02\n      0x00\n        /* \"contracts/ProofOfSpace.sol\":1918:1940  totalRewards -= reward */\n      dup3\n      dup3\n      sload\n      tag_61\n      swap2\n      swap1\n      tag_62\n      jump\t// in\n    tag_61:\n      swap3\n      pop\n      pop\n      dup2\n      swap1\n      sstore\n      pop\n        /* \"contracts/ProofOfSpace.sol\":1971:1981  msg.sender */\n      caller\n        /* \"contracts/ProofOfSpace.sol\":1956:1999  ProofSubmitted(msg.sender, isValid, reward) */\n      0xffffffffffffffffffffffffffffffffffffffff\n      and\n      0x7d8f1a1a8984821006da08e5f4d59660b0f444d4fcca71bd99448c27057bfd50\n        /* \"contracts/ProofOfSpace.sol\":1983:1990  isValid */\n      dup4\n        /* \"contracts/ProofOfSpace.sol\":1992:1998  reward */\n      dup4\n        /* \"contracts/ProofOfSpace.sol\":1956:1999  ProofSubmitted(msg.sender, isValid, reward) */\n      mload(0x40)\n      tag_63\n      swap3\n      swap2\n      swap1\n      tag_64\n      jump\t// in\n    tag_63:\n      mload(0x40)\n      dup1\n      swap2\n      sub\n      swap1\n      log2\n        /* \"contracts/ProofOfSpace.sol\":1300:2006  {... */\n      pop\n      pop\n        /* \"contracts/ProofOfSpace.sol\":1254:2006  function submitProof(bytes32 _proof) external {... */\n      pop\n      jump\t// out\n        /* \"#utility.yul\":88:205   */\n    tag_66:\n        /* \"#utility.yul\":197:198   */\n      0x00\n        /* \"#utility.yul\":194:195   */\n      dup1\n        /* \"#utility.yul\":187:199   */\n      revert\n        /* \"#utility.yul\":334:460   */\n    tag_68:\n        /* \"#utility.yul\":371:378   */\n      0x00\n        /* \"#utility.yul\":411:453   */\n      0xffffffffffffffffffffffffffffffffffffffff\n        /* \"#utility.yul\":404:409   */\n      dup3\n        /* \"#utility.yul\":400:454   */\n      and\n        /* \"#utility.yul\":389:454   */\n      swap1\n      pop\n        /* \"#utility.yul\":334:460   */\n      swap2\n      swap1\n      pop\n      jump\t// out\n        /* \"#utility.yul\":466:562   */\n    tag_69:\n        /* \"#utility.yul\":503:510   */\n      0x00\n        /* \"#utility.yul\":532:556   */\n      tag_102\n        /* \"#utility.yul\":550:555   */\n      dup3\n        /* \"#utility.yul\":532:556   */\n      tag_68\n      jump\t// in\n    tag_102:\n        /* \"#utility.yul\":521:556   */\n      swap1\n      pop\n        /* \"#utility.yul\":466:562   */\n      swap2\n      swap1\n      pop\n      jump\t// out\n        /* \"#utility.yul\":568:690   */\n    tag_70:\n        /* \"#utility.yul\":641:665   */\n      tag_104\n        /* \"#utility.yul\":659:664   */\n      dup2\n        /* \"#utility.yul\":641:665   */\n      tag_69\n      jump\t// in\n    tag_104:\n        /* \"#utility.yul\":634:639   */\n      dup2\n        /* \"#utility.yul\":631:666   */\n      eq\n        /* \"#utility.yul\":621:684   */\n      tag_105\n      jumpi\n        /* \"#utility.yul\":680:681   */\n      0x00\n        /* \"#utility.yul\":677:678   */\n      dup1\n        /* \"#utility.yul\":670:682   */\n      revert\n        /* \"#utility.yul\":621:684   */\n    tag_105:\n        /* \"#utility.yul\":568:690   */\n      pop\n      jump\t// out\n        /* \"#utility.yul\":696:835   */\n    tag_71:\n        /* \"#utility.yul\":742:747   */\n      0x00\n        /* \"#utility.yul\":780:786   */\n      dup2\n        /* \"#utility.yul\":767:787   */\n      calldataload\n        /* \"#utility.yul\":758:787   */\n      swap1\n      pop\n        /* \"#utility.yul\":796:829   */\n      tag_107\n        /* \"#utility.yul\":823:828   */\n      dup2\n        /* \"#utility.yul\":796:829   */\n      tag_70\n      jump\t// in\n    tag_107:\n        /* \"#utility.yul\":696:835   */\n      swap3\n      swap2\n      pop\n      pop\n      jump\t// out\n        /* \"#utility.yul\":841:1170   */\n    tag_11:\n        /* \"#utility.yul\":900:906   */\n      0x00\n        /* \"#utility.yul\":949:951   */\n      0x20\n        /* \"#utility.yul\":937:946   */\n      dup3\n        /* \"#utility.yul\":928:935   */\n      dup5\n        /* \"#utility.yul\":924:947   */\n      sub\n        /* \"#utility.yul\":920:952   */\n      slt\n        /* \"#utility.yul\":917:1036   */\n      iszero\n      tag_109\n      jumpi\n        /* \"#utility.yul\":955:1034   */\n      tag_110\n      tag_66\n      jump\t// in\n    tag_110:\n        /* \"#utility.yul\":917:1036   */\n    tag_109:\n        /* \"#utility.yul\":1075:1076   */\n      0x00\n        /* \"#utility.yul\":1100:1153   */\n      tag_111\n        /* \"#utility.yul\":1145:1152   */\n      dup5\n        /* \"#utility.yul\":1136:1142   */\n      dup3\n        /* \"#utility.yul\":1125:1134   */\n      dup6\n        /* \"#utility.yul\":1121:1143   */\n      add\n        /* \"#utility.yul\":1100:1153   */\n      tag_71\n      jump\t// in\n    tag_111:\n        /* \"#utility.yul\":1090:1153   */\n      swap2\n      pop\n        /* \"#utility.yul\":1046:1163   */\n      pop\n        /* \"#utility.yul\":841:1170   */\n      swap3\n      swap2\n      pop\n      pop\n      jump\t// out\n        /* \"#utility.yul\":1176:1253   */\n    tag_72:\n        /* \"#utility.yul\":1213:1220   */\n      0x00\n        /* \"#utility.yul\":1242:1247   */\n      dup2\n        /* \"#utility.yul\":1231:1247   */\n      swap1\n      pop\n        /* \"#utility.yul\":1176:1253   */\n      swap2\n      swap1\n      pop\n      jump\t// out\n        /* \"#utility.yul\":1259:1377   */\n    tag_73:\n        /* \"#utility.yul\":1346:1370   */\n      tag_114\n        /* \"#utility.yul\":1364:1369   */\n      dup2\n        /* \"#utility.yul\":1346:1370   */\n      tag_72\n      jump\t// in\n    tag_114:\n        /* \"#utility.yul\":1341:1344   */\n      dup3\n        /* \"#utility.yul\":1334:1371   */\n      mstore\n        /* \"#utility.yul\":1259:1377   */\n      pop\n      pop\n      jump\t// out\n        /* \"#utility.yul\":1383:1605   */\n    tag_14:\n        /* \"#utility.yul\":1476:1480   */\n      0x00\n        /* \"#utility.yul\":1514:1516   */\n      0x20\n        /* \"#utility.yul\":1503:1512   */\n      dup3\n        /* \"#utility.yul\":1499:1517   */\n      add\n        /* \"#utility.yul\":1491:1517   */\n      swap1\n      pop\n        /* \"#utility.yul\":1527:1598   */\n      tag_116\n        /* \"#utility.yul\":1595:1596   */\n      0x00\n        /* \"#utility.yul\":1584:1593   */\n      dup4\n        /* \"#utility.yul\":1580:1597   */\n      add\n        /* \"#utility.yul\":1571:1577   */\n      dup5\n        /* \"#utility.yul\":1527:1598   */\n      tag_73\n      jump\t// in\n    tag_116:\n        /* \"#utility.yul\":1383:1605   */\n      swap3\n      swap2\n      pop\n      pop\n      jump\t// out\n        /* \"#utility.yul\":1611:1688   */\n    tag_74:\n        /* \"#utility.yul\":1648:1655   */\n      0x00\n        /* \"#utility.yul\":1677:1682   */\n      dup2\n        /* \"#utility.yul\":1666:1682   */\n      swap1\n      pop\n        /* \"#utility.yul\":1611:1688   */\n      swap2\n      swap1\n      pop\n      jump\t// out\n        /* \"#utility.yul\":1694:1812   */\n    tag_75:\n        /* \"#utility.yul\":1781:1805   */\n      tag_119\n        /* \"#utility.yul\":1799:1804   */\n      dup2\n        /* \"#utility.yul\":1781:1805   */\n      tag_74\n      jump\t// in\n    tag_119:\n        /* \"#utility.yul\":1776:1779   */\n      dup3\n        /* \"#utility.yul\":1769:1806   */\n      mstore\n        /* \"#utility.yul\":1694:1812   */\n      pop\n      pop\n      jump\t// out\n        /* \"#utility.yul\":1818:1908   */\n    tag_76:\n        /* \"#utility.yul\":1852:1859   */\n      0x00\n        /* \"#utility.yul\":1895:1900   */\n      dup2\n        /* \"#utility.yul\":1888:1901   */\n      iszero\n        /* \"#utility.yul\":1881:1902   */\n      iszero\n        /* \"#utility.yul\":1870:1902   */\n      swap1\n      pop\n        /* \"#utility.yul\":1818:1908   */\n      swap2\n      swap1\n      pop\n      jump\t// out\n        /* \"#utility.yul\":1914:2023   */\n    tag_77:\n        /* \"#utility.yul\":1995:2016   */\n      tag_122\n        /* \"#utility.yul\":2010:2015   */\n      dup2\n        /* \"#utility.yul\":1995:2016   */\n      tag_76\n      jump\t// in\n    tag_122:\n        /* \"#utility.yul\":1990:1993   */\n      dup3\n        /* \"#utility.yul\":1983:2017   */\n      mstore\n        /* \"#utility.yul\":1914:2023   */\n      pop\n      pop\n      jump\t// out\n        /* \"#utility.yul\":2029:2459   */\n    tag_25:\n        /* \"#utility.yul\":2172:2176   */\n      0x00\n        /* \"#utility.yul\":2210:2212   */\n      0x60\n        /* \"#utility.yul\":2199:2208   */\n      dup3\n        /* \"#utility.yul\":2195:2213   */\n      add\n        /* \"#utility.yul\":2187:2213   */\n      swap1\n      pop\n        /* \"#utility.yul\":2223:2294   */\n      tag_124\n        /* \"#utility.yul\":2291:2292   */\n      0x00\n        /* \"#utility.yul\":2280:2289   */\n      dup4\n        /* \"#utility.yul\":2276:2293   */\n      add\n        /* \"#utility.yul\":2267:2273   */\n      dup7\n        /* \"#utility.yul\":2223:2294   */\n      tag_75\n      jump\t// in\n    tag_124:\n        /* \"#utility.yul\":2304:2376   */\n      tag_125\n        /* \"#utility.yul\":2372:2374   */\n      0x20\n        /* \"#utility.yul\":2361:2370   */\n      dup4\n        /* \"#utility.yul\":2357:2375   */\n      add\n        /* \"#utility.yul\":2348:2354   */\n      dup6\n        /* \"#utility.yul\":2304:2376   */\n      tag_73\n      jump\t// in\n    tag_125:\n        /* \"#utility.yul\":2386:2452   */\n      tag_126\n        /* \"#utility.yul\":2448:2450   */\n      0x40\n        /* \"#utility.yul\":2437:2446   */\n      dup4\n        /* \"#utility.yul\":2433:2451   */\n      add\n        /* \"#utility.yul\":2424:2430   */\n      dup5\n        /* \"#utility.yul\":2386:2452   */\n      tag_77\n      jump\t// in\n    tag_126:\n        /* \"#utility.yul\":2029:2459   */\n      swap5\n      swap4\n      pop\n      pop\n      pop\n      pop\n      jump\t// out\n        /* \"#utility.yul\":2465:2587   */\n    tag_78:\n        /* \"#utility.yul\":2538:2562   */\n      tag_128\n        /* \"#utility.yul\":2556:2561   */\n      dup2\n        /* \"#utility.yul\":2538:2562   */\n      tag_74\n      jump\t// in\n    tag_128:\n        /* \"#utility.yul\":2531:2536   */\n      dup2\n        /* \"#utility.yul\":2528:2563   */\n      eq\n        /* \"#utility.yul\":2518:2581   */\n      tag_129\n      jumpi\n        /* \"#utility.yul\":2577:2578   */\n      0x00\n        /* \"#utility.yul\":2574:2575   */\n      dup1\n        /* \"#utility.yul\":2567:2579   */\n      revert\n        /* \"#utility.yul\":2518:2581   */\n    tag_129:\n        /* \"#utility.yul\":2465:2587   */\n      pop\n      jump\t// out\n        /* \"#utility.yul\":2593:2732   */\n    tag_79:\n        /* \"#utility.yul\":2639:2644   */\n      0x00\n        /* \"#utility.yul\":2677:2683   */\n      dup2\n        /* \"#utility.yul\":2664:2684   */\n      calldataload\n        /* \"#utility.yul\":2655:2684   */\n      swap1\n      pop\n        /* \"#utility.yul\":2693:2726   */\n      tag_131\n        /* \"#utility.yul\":2720:2725   */\n      dup2\n        /* \"#utility.yul\":2693:2726   */\n      tag_78\n      jump\t// in\n    tag_131:\n        /* \"#utility.yul\":2593:2732   */\n      swap3\n      swap2\n      pop\n      pop\n      jump\t// out\n        /* \"#utility.yul\":2738:2860   */\n    tag_80:\n        /* \"#utility.yul\":2811:2835   */\n      tag_133\n        /* \"#utility.yul\":2829:2834   */\n      dup2\n        /* \"#utility.yul\":2811:2835   */\n      tag_72\n      jump\t// in\n    tag_133:\n        /* \"#utility.yul\":2804:2809   */\n      dup2\n        /* \"#utility.yul\":2801:2836   */\n      eq\n        /* \"#utility.yul\":2791:2854   */\n      tag_134\n      jumpi\n        /* \"#utility.yul\":2850:2851   */\n      0x00\n        /* \"#utility.yul\":2847:2848   */\n      dup1\n        /* \"#utility.yul\":2840:2852   */\n      revert\n        /* \"#utility.yul\":2791:2854   */\n    tag_134:\n        /* \"#utility.yul\":2738:2860   */\n      pop\n      jump\t// out\n        /* \"#utility.yul\":2866:3005   */\n    tag_81:\n        /* \"#utility.yul\":2912:2917   */\n      0x00\n        /* \"#utility.yul\":2950:2956   */\n      dup2\n        /* \"#utility.yul\":2937:2957   */\n      calldataload\n        /* \"#utility.yul\":2928:2957   */\n      swap1\n      pop\n        /* \"#utility.yul\":2966:2999   */\n      tag_136\n        /* \"#utility.yul\":2993:2998   */\n      dup2\n        /* \"#utility.yul\":2966:2999   */\n      tag_80\n      jump\t// in\n    tag_136:\n        /* \"#utility.yul\":2866:3005   */\n      swap3\n      swap2\n      pop\n      pop\n      jump\t// out\n        /* \"#utility.yul\":3011:3485   */\n    tag_28:\n        /* \"#utility.yul\":3079:3085   */\n      0x00\n        /* \"#utility.yul\":3087:3093   */\n      dup1\n        /* \"#utility.yul\":3136:3138   */\n      0x40\n        /* \"#utility.yul\":3124:3133   */\n      dup4\n        /* \"#utility.yul\":3115:3122   */\n      dup6\n        /* \"#utility.yul\":3111:3134   */\n      sub\n        /* \"#utility.yul\":3107:3139   */\n      slt\n        /* \"#utility.yul\":3104:3223   */\n      iszero\n      tag_138\n      jumpi\n        /* \"#utility.yul\":3142:3221   */\n      tag_139\n      tag_66\n      jump\t// in\n    tag_139:\n        /* \"#utility.yul\":3104:3223   */\n    tag_138:\n        /* \"#utility.yul\":3262:3263   */\n      0x00\n        /* \"#utility.yul\":3287:3340   */\n      tag_140\n        /* \"#utility.yul\":3332:3339   */\n      dup6\n        /* \"#utility.yul\":3323:3329   */\n      dup3\n        /* \"#utility.yul\":3312:3321   */\n      dup7\n        /* \"#utility.yul\":3308:3330   */\n      add\n        /* \"#utility.yul\":3287:3340   */\n      tag_79\n      jump\t// in\n    tag_140:\n        /* \"#utility.yul\":3277:3340   */\n      swap3\n      pop\n        /* \"#utility.yul\":3233:3350   */\n      pop\n        /* \"#utility.yul\":3389:3391   */\n      0x20\n        /* \"#utility.yul\":3415:3468   */\n      tag_141\n        /* \"#utility.yul\":3460:3467   */\n      dup6\n        /* \"#utility.yul\":3451:3457   */\n      dup3\n        /* \"#utility.yul\":3440:3449   */\n      dup7\n        /* \"#utility.yul\":3436:3458   */\n      add\n        /* \"#utility.yul\":3415:3468   */\n      tag_81\n      jump\t// in\n    tag_141:\n        /* \"#utility.yul\":3405:3468   */\n      swap2\n      pop\n        /* \"#utility.yul\":3360:3478   */\n      pop\n        /* \"#utility.yul\":3011:3485   */\n      swap3\n      pop\n      swap3\n      swap1\n      pop\n      jump\t// out\n        /* \"#utility.yul\":3491:3820   */\n    tag_32:\n        /* \"#utility.yul\":3550:3556   */\n      0x00\n        /* \"#utility.yul\":3599:3601   */\n      0x20\n        /* \"#utility.yul\":3587:3596   */\n      dup3\n        /* \"#utility.yul\":3578:3585   */\n      dup5\n        /* \"#utility.yul\":3574:3597   */\n      sub\n        /* \"#utility.yul\":3570:3602   */\n      slt\n        /* \"#utility.yul\":3567:3686   */\n      iszero\n      tag_143\n      jumpi\n        /* \"#utility.yul\":3605:3684   */\n      tag_144\n      tag_66\n      jump\t// in\n    tag_144:\n        /* \"#utility.yul\":3567:3686   */\n    tag_143:\n        /* \"#utility.yul\":3725:3726   */\n      0x00\n        /* \"#utility.yul\":3750:3803   */\n      tag_145\n        /* \"#utility.yul\":3795:3802   */\n      dup5\n        /* \"#utility.yul\":3786:3792   */\n      dup3\n        /* \"#utility.yul\":3775:3784   */\n      dup6\n        /* \"#utility.yul\":3771:3793   */\n      add\n        /* \"#utility.yul\":3750:3803   */\n      tag_79\n      jump\t// in\n    tag_145:\n        /* \"#utility.yul\":3740:3803   */\n      swap2\n      pop\n        /* \"#utility.yul\":3696:3813   */\n      pop\n        /* \"#utility.yul\":3491:3820   */\n      swap3\n      swap2\n      pop\n      pop\n      jump\t// out\n        /* \"#utility.yul\":3826:3995   */\n    tag_82:\n        /* \"#utility.yul\":3910:3921   */\n      0x00\n        /* \"#utility.yul\":3944:3950   */\n      dup3\n        /* \"#utility.yul\":3939:3942   */\n      dup3\n        /* \"#utility.yul\":3932:3951   */\n      mstore\n        /* \"#utility.yul\":3984:3988   */\n      0x20\n        /* \"#utility.yul\":3979:3982   */\n      dup3\n        /* \"#utility.yul\":3975:3989   */\n      add\n        /* \"#utility.yul\":3960:3989   */\n      swap1\n      pop\n        /* \"#utility.yul\":3826:3995   */\n      swap3\n      swap2\n      pop\n      pop\n      jump\t// out\n        /* \"#utility.yul\":4001:4168   */\n    tag_83:\n        /* \"#utility.yul\":4141:4160   */\n      0x416c726561647920636f6d6d6974746564000000000000000000000000000000\n        /* \"#utility.yul\":4137:4138   */\n      0x00\n        /* \"#utility.yul\":4129:4135   */\n      dup3\n        /* \"#utility.yul\":4125:4139   */\n      add\n        /* \"#utility.yul\":4118:4161   */\n      mstore\n        /* \"#utility.yul\":4001:4168   */\n      pop\n      jump\t// out\n        /* \"#utility.yul\":4174:4540   */\n    tag_84:\n        /* \"#utility.yul\":4316:4319   */\n      0x00\n        /* \"#utility.yul\":4337:4404   */\n      tag_149\n        /* \"#utility.yul\":4401:4403   */\n      0x11\n        /* \"#utility.yul\":4396:4399   */\n      dup4\n        /* \"#utility.yul\":4337:4404   */\n      tag_82\n      jump\t// in\n    tag_149:\n        /* \"#utility.yul\":4330:4404   */\n      swap2\n      pop\n        /* \"#utility.yul\":4413:4506   */\n      tag_150\n        /* \"#utility.yul\":4502:4505   */\n      dup3\n        /* \"#utility.yul\":4413:4506   */\n      tag_83\n      jump\t// in\n    tag_150:\n        /* \"#utility.yul\":4531:4533   */\n      0x20\n        /* \"#utility.yul\":4526:4529   */\n      dup3\n        /* \"#utility.yul\":4522:4534   */\n      add\n        /* \"#utility.yul\":4515:4534   */\n      swap1\n      pop\n        /* \"#utility.yul\":4174:4540   */\n      swap2\n      swap1\n      pop\n      jump\t// out\n        /* \"#utility.yul\":4546:4965   */\n    tag_38:\n        /* \"#utility.yul\":4712:4716   */\n      0x00\n        /* \"#utility.yul\":4750:4752   */\n      0x20\n        /* \"#utility.yul\":4739:4748   */\n      dup3\n        /* \"#utility.yul\":4735:4753   */\n      add\n        /* \"#utility.yul\":4727:4753   */\n      swap1\n      pop\n        /* \"#utility.yul\":4799:4808   */\n      dup2\n        /* \"#utility.yul\":4793:4797   */\n      dup2\n        /* \"#utility.yul\":4789:4809   */\n      sub\n        /* \"#utility.yul\":4785:4786   */\n      0x00\n        /* \"#utility.yul\":4774:4783   */\n      dup4\n        /* \"#utility.yul\":4770:4787   */\n      add\n        /* \"#utility.yul\":4763:4810   */\n      mstore\n        /* \"#utility.yul\":4827:4958   */\n      tag_152\n        /* \"#utility.yul\":4953:4957   */\n      dup2\n        /* \"#utility.yul\":4827:4958   */\n      tag_84\n      jump\t// in\n    tag_152:\n        /* \"#utility.yul\":4819:4958   */\n      swap1\n      pop\n        /* \"#utility.yul\":4546:4965   */\n      swap2\n      swap1\n      pop\n      jump\t// out\n        /* \"#utility.yul\":4971:5194   */\n    tag_85:\n        /* \"#utility.yul\":5111:5145   */\n      0x53706163652073697a65206d7573742062652067726561746572207468616e20\n        /* \"#utility.yul\":5107:5108   */\n      0x00\n        /* \"#utility.yul\":5099:5105   */\n      dup3\n        /* \"#utility.yul\":5095:5109   */\n      add\n        /* \"#utility.yul\":5088:5146   */\n      mstore\n        /* \"#utility.yul\":5180:5186   */\n      0x7a65726f00000000000000000000000000000000000000000000000000000000\n        /* \"#utility.yul\":5175:5177   */\n      0x20\n        /* \"#utility.yul\":5167:5173   */\n      dup3\n        /* \"#utility.yul\":5163:5178   */\n      add\n        /* \"#utility.yul\":5156:5187   */\n      mstore\n        /* \"#utility.yul\":4971:5194   */\n      pop\n      jump\t// out\n        /* \"#utility.yul\":5200:5566   */\n    tag_86:\n        /* \"#utility.yul\":5342:5345   */\n      0x00\n        /* \"#utility.yul\":5363:5430   */\n      tag_155\n        /* \"#utility.yul\":5427:5429   */\n      0x24\n        /* \"#utility.yul\":5422:5425   */\n      dup4\n        /* \"#utility.yul\":5363:5430   */\n      tag_82\n      jump\t// in\n    tag_155:\n        /* \"#utility.yul\":5356:5430   */\n      swap2\n      pop\n        /* \"#utility.yul\":5439:5532   */\n      tag_156\n        /* \"#utility.yul\":5528:5531   */\n      dup3\n        /* \"#utility.yul\":5439:5532   */\n      tag_85\n      jump\t// in\n    tag_156:\n        /* \"#utility.yul\":5557:5559   */\n      0x40\n        /* \"#utility.yul\":5552:5555   */\n      dup3\n        /* \"#utility.yul\":5548:5560   */\n      add\n        /* \"#utility.yul\":5541:5560   */\n      swap1\n      pop\n        /* \"#utility.yul\":5200:5566   */\n      swap2\n      swap1\n      pop\n      jump\t// out\n        /* \"#utility.yul\":5572:5991   */\n    tag_41:\n        /* \"#utility.yul\":5738:5742   */\n      0x00\n        /* \"#utility.yul\":5776:5778   */\n      0x20\n        /* \"#utility.yul\":5765:5774   */\n      dup3\n        /* \"#utility.yul\":5761:5779   */\n      add\n        /* \"#utility.yul\":5753:5779   */\n      swap1\n      pop\n        /* \"#utility.yul\":5825:5834   */\n      dup2\n        /* \"#utility.yul\":5819:5823   */\n      dup2\n        /* \"#utility.yul\":5815:5835   */\n      sub\n        /* \"#utility.yul\":5811:5812   */\n      0x00\n        /* \"#utility.yul\":5800:5809   */\n      dup4\n        /* \"#utility.yul\":5796:5813   */\n      add\n        /* \"#utility.yul\":5789:5836   */\n      mstore\n        /* \"#utility.yul\":5853:5984   */\n      tag_158\n        /* \"#utility.yul\":5979:5983   */\n      dup2\n        /* \"#utility.yul\":5853:5984   */\n      tag_86\n      jump\t// in\n    tag_158:\n        /* \"#utility.yul\":5845:5984   */\n      swap1\n      pop\n        /* \"#utility.yul\":5572:5991   */\n      swap2\n      swap1\n      pop\n      jump\t// out\n        /* \"#utility.yul\":5997:6329   */\n    tag_43:\n        /* \"#utility.yul\":6118:6122   */\n      0x00\n        /* \"#utility.yul\":6156:6158   */\n      0x40\n        /* \"#utility.yul\":6145:6154   */\n      dup3\n        /* \"#utility.yul\":6141:6159   */\n      add\n        /* \"#utility.yul\":6133:6159   */\n      swap1\n      pop\n        /* \"#utility.yul\":6169:6240   */\n      tag_160\n        /* \"#utility.yul\":6237:6238   */\n      0x00\n        /* \"#utility.yul\":6226:6235   */\n      dup4\n        /* \"#utility.yul\":6222:6239   */\n      add\n        /* \"#utility.yul\":6213:6219   */\n      dup6\n        /* \"#utility.yul\":6169:6240   */\n      tag_73\n      jump\t// in\n    tag_160:\n        /* \"#utility.yul\":6250:6322   */\n      tag_161\n        /* \"#utility.yul\":6318:6320   */\n      0x20\n        /* \"#utility.yul\":6307:6316   */\n      dup4\n        /* \"#utility.yul\":6303:6321   */\n      add\n        /* \"#utility.yul\":6294:6300   */\n      dup5\n        /* \"#utility.yul\":6250:6322   */\n      tag_75\n      jump\t// in\n    tag_161:\n        /* \"#utility.yul\":5997:6329   */\n      swap4\n      swap3\n      pop\n      pop\n      pop\n      jump\t// out\n        /* \"#utility.yul\":6335:6504   */\n    tag_87:\n        /* \"#utility.yul\":6475:6496   */\n      0x4e6f20636f6d6d69746d656e7420666f756e6400000000000000000000000000\n        /* \"#utility.yul\":6471:6472   */\n      0x00\n        /* \"#utility.yul\":6463:6469   */\n      dup3\n        /* \"#utility.yul\":6459:6473   */\n      add\n        /* \"#utility.yul\":6452:6497   */\n      mstore\n        /* \"#utility.yul\":6335:6504   */\n      pop\n      jump\t// out\n        /* \"#utility.yul\":6510:6876   */\n    tag_88:\n        /* \"#utility.yul\":6652:6655   */\n      0x00\n        /* \"#utility.yul\":6673:6740   */\n      tag_164\n        /* \"#utility.yul\":6737:6739   */\n      0x13\n        /* \"#utility.yul\":6732:6735   */\n      dup4\n        /* \"#utility.yul\":6673:6740   */\n      tag_82\n      jump\t// in\n    tag_164:\n        /* \"#utility.yul\":6666:6740   */\n      swap2\n      pop\n        /* \"#utility.yul\":6749:6842   */\n      tag_165\n        /* \"#utility.yul\":6838:6841   */\n      dup3\n        /* \"#utility.yul\":6749:6842   */\n      tag_87\n      jump\t// in\n    tag_165:\n        /* \"#utility.yul\":6867:6869   */\n      0x20\n        /* \"#utility.yul\":6862:6865   */\n      dup3\n        /* \"#utility.yul\":6858:6870   */\n      add\n        /* \"#utility.yul\":6851:6870   */\n      swap1\n      pop\n        /* \"#utility.yul\":6510:6876   */\n      swap2\n      swap1\n      pop\n      jump\t// out\n        /* \"#utility.yul\":6882:7301   */\n    tag_47:\n        /* \"#utility.yul\":7048:7052   */\n      0x00\n        /* \"#utility.yul\":7086:7088   */\n      0x20\n        /* \"#utility.yul\":7075:7084   */\n      dup3\n        /* \"#utility.yul\":7071:7089   */\n      add\n        /* \"#utility.yul\":7063:7089   */\n      swap1\n      pop\n        /* \"#utility.yul\":7135:7144   */\n      dup2\n        /* \"#utility.yul\":7129:7133   */\n      dup2\n        /* \"#utility.yul\":7125:7145   */\n      sub\n        /* \"#utility.yul\":7121:7122   */\n      0x00\n        /* \"#utility.yul\":7110:7119   */\n      dup4\n        /* \"#utility.yul\":7106:7123   */\n      add\n        /* \"#utility.yul\":7099:7146   */\n      mstore\n        /* \"#utility.yul\":7163:7294   */\n      tag_167\n        /* \"#utility.yul\":7289:7293   */\n      dup2\n        /* \"#utility.yul\":7163:7294   */\n      tag_88\n      jump\t// in\n    tag_167:\n        /* \"#utility.yul\":7155:7294   */\n      swap1\n      pop\n        /* \"#utility.yul\":6882:7301   */\n      swap2\n      swap1\n      pop\n      jump\t// out\n        /* \"#utility.yul\":7307:7471   */\n    tag_89:\n        /* \"#utility.yul\":7447:7463   */\n      0x416c72656164792070726f76656e000000000000000000000000000000000000\n        /* \"#utility.yul\":7443:7444   */\n      0x00\n        /* \"#utility.yul\":7435:7441   */\n      dup3\n        /* \"#utility.yul\":7431:7445   */\n      add\n        /* \"#utility.yul\":7424:7464   */\n      mstore\n        /* \"#utility.yul\":7307:7471   */\n      pop\n      jump\t// out\n        /* \"#utility.yul\":7477:7843   */\n    tag_90:\n        /* \"#utility.yul\":7619:7622   */\n      0x00\n        /* \"#utility.yul\":7640:7707   */\n      tag_170\n        /* \"#utility.yul\":7704:7706   */\n      0x0e\n        /* \"#utility.yul\":7699:7702   */\n      dup4\n        /* \"#utility.yul\":7640:7707   */\n      tag_82\n      jump\t// in\n    tag_170:\n        /* \"#utility.yul\":7633:7707   */\n      swap2\n      pop\n        /* \"#utility.yul\":7716:7809   */\n      tag_171\n        /* \"#utility.yul\":7805:7808   */\n      dup3\n        /* \"#utility.yul\":7716:7809   */\n      tag_89\n      jump\t// in\n    tag_171:\n        /* \"#utility.yul\":7834:7836   */\n      0x20\n        /* \"#utility.yul\":7829:7832   */\n      dup3\n        /* \"#utility.yul\":7825:7837   */\n      add\n        /* \"#utility.yul\":7818:7837   */\n      swap1\n      pop\n        /* \"#utility.yul\":7477:7843   */\n      swap2\n      swap1\n      pop\n      jump\t// out\n        /* \"#utility.yul\":7849:8268   */\n    tag_50:\n        /* \"#utility.yul\":8015:8019   */\n      0x00\n        /* \"#utility.yul\":8053:8055   */\n      0x20\n        /* \"#utility.yul\":8042:8051   */\n      dup3\n        /* \"#utility.yul\":8038:8056   */\n      add\n        /* \"#utility.yul\":8030:8056   */\n      swap1\n      pop\n        /* \"#utility.yul\":8102:8111   */\n      dup2\n        /* \"#utility.yul\":8096:8100   */\n      dup2\n        /* \"#utility.yul\":8092:8112   */\n      sub\n        /* \"#utility.yul\":8088:8089   */\n      0x00\n        /* \"#utility.yul\":8077:8086   */\n      dup4\n        /* \"#utility.yul\":8073:8090   */\n      add\n        /* \"#utility.yul\":8066:8113   */\n      mstore\n        /* \"#utility.yul\":8130:8261   */\n      tag_173\n        /* \"#utility.yul\":8256:8260   */\n      dup2\n        /* \"#utility.yul\":8130:8261   */\n      tag_90\n      jump\t// in\n    tag_173:\n        /* \"#utility.yul\":8122:8261   */\n      swap1\n      pop\n        /* \"#utility.yul\":7849:8268   */\n      swap2\n      swap1\n      pop\n      jump\t// out\n        /* \"#utility.yul\":8274:8437   */\n    tag_91:\n        /* \"#utility.yul\":8414:8429   */\n      0x496e76616c69642070726f6f6600000000000000000000000000000000000000\n        /* \"#utility.yul\":8410:8411   */\n      0x00\n        /* \"#utility.yul\":8402:8408   */\n      dup3\n        /* \"#utility.yul\":8398:8412   */\n      add\n        /* \"#utility.yul\":8391:8430   */\n      mstore\n        /* \"#utility.yul\":8274:8437   */\n      pop\n      jump\t// out\n        /* \"#utility.yul\":8443:8809   */\n    tag_92:\n        /* \"#utility.yul\":8585:8588   */\n      0x00\n        /* \"#utility.yul\":8606:8673   */\n      tag_176\n        /* \"#utility.yul\":8670:8672   */\n      0x0d\n        /* \"#utility.yul\":8665:8668   */\n      dup4\n        /* \"#utility.yul\":8606:8673   */\n      tag_82\n      jump\t// in\n    tag_176:\n        /* \"#utility.yul\":8599:8673   */\n      swap2\n      pop\n        /* \"#utility.yul\":8682:8775   */\n      tag_177\n        /* \"#utility.yul\":8771:8774   */\n      dup3\n        /* \"#utility.yul\":8682:8775   */\n      tag_91\n      jump\t// in\n    tag_177:\n        /* \"#utility.yul\":8800:8802   */\n      0x20\n        /* \"#utility.yul\":8795:8798   */\n      dup3\n        /* \"#utility.yul\":8791:8803   */\n      add\n        /* \"#utility.yul\":8784:8803   */\n      swap1\n      pop\n        /* \"#utility.yul\":8443:8809   */\n      swap2\n      swap1\n      pop\n      jump\t// out\n        /* \"#utility.yul\":8815:9234   */\n    tag_53:\n        /* \"#utility.yul\":8981:8985   */\n      0x00\n        /* \"#utility.yul\":9019:9021   */\n      0x20\n        /* \"#utility.yul\":9008:9017   */\n      dup3\n        /* \"#utility.yul\":9004:9022   */\n      add\n        /* \"#utility.yul\":8996:9022   */\n      swap1\n      pop\n        /* \"#utility.yul\":9068:9077   */\n      dup2\n        /* \"#utility.yul\":9062:9066   */\n      dup2\n        /* \"#utility.yul\":9058:9078   */\n      sub\n        /* \"#utility.yul\":9054:9055   */\n      0x00\n        /* \"#utility.yul\":9043:9052   */\n      dup4\n        /* \"#utility.yul\":9039:9056   */\n      add\n        /* \"#utility.yul\":9032:9079   */\n      mstore\n        /* \"#utility.yul\":9096:9227   */\n      tag_179\n        /* \"#utility.yul\":9222:9226   */\n      dup2\n        /* \"#utility.yul\":9096:9227   */\n      tag_92\n      jump\t// in\n    tag_179:\n        /* \"#utility.yul\":9088:9227   */\n      swap1\n      pop\n        /* \"#utility.yul\":8815:9234   */\n      swap2\n      swap1\n      pop\n      jump\t// out\n        /* \"#utility.yul\":9240:9420   */\n    tag_93:\n        /* \"#utility.yul\":9288:9365   */\n      0x4e487b7100000000000000000000000000000000000000000000000000000000\n        /* \"#utility.yul\":9285:9286   */\n      0x00\n        /* \"#utility.yul\":9278:9366   */\n      mstore\n        /* \"#utility.yul\":9385:9389   */\n      0x11\n        /* \"#utility.yul\":9382:9383   */\n      0x04\n        /* \"#utility.yul\":9375:9390   */\n      mstore\n        /* \"#utility.yul\":9409:9413   */\n      0x24\n        /* \"#utility.yul\":9406:9407   */\n      0x00\n        /* \"#utility.yul\":9399:9414   */\n      revert\n        /* \"#utility.yul\":9426:9836   */\n    tag_55:\n        /* \"#utility.yul\":9466:9473   */\n      0x00\n        /* \"#utility.yul\":9489:9509   */\n      tag_182\n        /* \"#utility.yul\":9507:9508   */\n      dup3\n        /* \"#utility.yul\":9489:9509   */\n      tag_72\n      jump\t// in\n    tag_182:\n        /* \"#utility.yul\":9484:9509   */\n      swap2\n      pop\n        /* \"#utility.yul\":9523:9543   */\n      tag_183\n        /* \"#utility.yul\":9541:9542   */\n      dup4\n        /* \"#utility.yul\":9523:9543   */\n      tag_72\n      jump\t// in\n    tag_183:\n        /* \"#utility.yul\":9518:9543   */\n      swap3\n      pop\n        /* \"#utility.yul\":9578:9579   */\n      dup3\n        /* \"#utility.yul\":9575:9576   */\n      dup3\n        /* \"#utility.yul\":9571:9580   */\n      mul\n        /* \"#utility.yul\":9600:9630   */\n      tag_184\n        /* \"#utility.yul\":9618:9629   */\n      dup2\n        /* \"#utility.yul\":9600:9630   */\n      tag_72\n      jump\t// in\n    tag_184:\n        /* \"#utility.yul\":9589:9630   */\n      swap2\n      pop\n        /* \"#utility.yul\":9779:9780   */\n      dup3\n        /* \"#utility.yul\":9770:9777   */\n      dup3\n        /* \"#utility.yul\":9766:9781   */\n      div\n        /* \"#utility.yul\":9763:9764   */\n      dup5\n        /* \"#utility.yul\":9760:9782   */\n      eq\n        /* \"#utility.yul\":9740:9741   */\n      dup4\n        /* \"#utility.yul\":9733:9742   */\n      iszero\n        /* \"#utility.yul\":9713:9796   */\n      or\n        /* \"#utility.yul\":9690:9829   */\n      tag_185\n      jumpi\n        /* \"#utility.yul\":9809:9827   */\n      tag_186\n      tag_93\n      jump\t// in\n    tag_186:\n        /* \"#utility.yul\":9690:9829   */\n    tag_185:\n        /* \"#utility.yul\":9474:9836   */\n      pop\n        /* \"#utility.yul\":9426:9836   */\n      swap3\n      swap2\n      pop\n      pop\n      jump\t// out\n        /* \"#utility.yul\":9842:10020   */\n    tag_94:\n        /* \"#utility.yul\":9982:10012   */\n      0x4e6f7420656e6f756768207265776172647320617661696c61626c6500000000\n        /* \"#utility.yul\":9978:9979   */\n      0x00\n        /* \"#utility.yul\":9970:9976   */\n      dup3\n        /* \"#utility.yul\":9966:9980   */\n      add\n        /* \"#utility.yul\":9959:10013   */\n      mstore\n        /* \"#utility.yul\":9842:10020   */\n      pop\n      jump\t// out\n        /* \"#utility.yul\":10026:10392   */\n    tag_95:\n        /* \"#utility.yul\":10168:10171   */\n      0x00\n        /* \"#utility.yul\":10189:10256   */\n      tag_189\n        /* \"#utility.yul\":10253:10255   */\n      0x1c\n        /* \"#utility.yul\":10248:10251   */\n      dup4\n        /* \"#utility.yul\":10189:10256   */\n      tag_82\n      jump\t// in\n    tag_189:\n        /* \"#utility.yul\":10182:10256   */\n      swap2\n      pop\n        /* \"#utility.yul\":10265:10358   */\n      tag_190\n        /* \"#utility.yul\":10354:10357   */\n      dup3\n        /* \"#utility.yul\":10265:10358   */\n      tag_94\n      jump\t// in\n    tag_190:\n        /* \"#utility.yul\":10383:10385   */\n      0x20\n        /* \"#utility.yul\":10378:10381   */\n      dup3\n        /* \"#utility.yul\":10374:10386   */\n      add\n        /* \"#utility.yul\":10367:10386   */\n      swap1\n      pop\n        /* \"#utility.yul\":10026:10392   */\n      swap2\n      swap1\n      pop\n      jump\t// out\n        /* \"#utility.yul\":10398:10817   */\n    tag_58:\n        /* \"#utility.yul\":10564:10568   */\n      0x00\n        /* \"#utility.yul\":10602:10604   */\n      0x20\n        /* \"#utility.yul\":10591:10600   */\n      dup3\n        /* \"#utility.yul\":10587:10605   */\n      add\n        /* \"#utility.yul\":10579:10605   */\n      swap1\n      pop\n        /* \"#utility.yul\":10651:10660   */\n      dup2\n        /* \"#utility.yul\":10645:10649   */\n      dup2\n        /* \"#utility.yul\":10641:10661   */\n      sub\n        /* \"#utility.yul\":10637:10638   */\n      0x00\n        /* \"#utility.yul\":10626:10635   */\n      dup4\n        /* \"#utility.yul\":10622:10639   */\n      add\n        /* \"#utility.yul\":10615:10662   */\n      mstore\n        /* \"#utility.yul\":10679:10810   */\n      tag_192\n        /* \"#utility.yul\":10805:10809   */\n      dup2\n        /* \"#utility.yul\":10679:10810   */\n      tag_95\n      jump\t// in\n    tag_192:\n        /* \"#utility.yul\":10671:10810   */\n      swap1\n      pop\n        /* \"#utility.yul\":10398:10817   */\n      swap2\n      swap1\n      pop\n      jump\t// out\n        /* \"#utility.yul\":10823:11014   */\n    tag_60:\n        /* \"#utility.yul\":10863:10866   */\n      0x00\n        /* \"#utility.yul\":10882:10902   */\n      tag_194\n        /* \"#utility.yul\":10900:10901   */\n      dup3\n        /* \"#utility.yul\":10882:10902   */\n      tag_72\n      jump\t// in\n    tag_194:\n        /* \"#utility.yul\":10877:10902   */\n      swap2\n      pop\n        /* \"#utility.yul\":10916:10936   */\n      tag_195\n        /* \"#utility.yul\":10934:10935   */\n      dup4\n        /* \"#utility.yul\":10916:10936   */\n      tag_72\n      jump\t// in\n    tag_195:\n        /* \"#utility.yul\":10911:10936   */\n      swap3\n      pop\n        /* \"#utility.yul\":10959:10960   */\n      dup3\n        /* \"#utility.yul\":10956:10957   */\n      dup3\n        /* \"#utility.yul\":10952:10961   */\n      add\n        /* \"#utility.yul\":10945:10961   */\n      swap1\n      pop\n        /* \"#utility.yul\":10980:10983   */\n      dup1\n        /* \"#utility.yul\":10977:10978   */\n      dup3\n        /* \"#utility.yul\":10974:10984   */\n      gt\n        /* \"#utility.yul\":10971:11007   */\n      iszero\n      tag_196\n      jumpi\n        /* \"#utility.yul\":10987:11005   */\n      tag_197\n      tag_93\n      jump\t// in\n    tag_197:\n        /* \"#utility.yul\":10971:11007   */\n    tag_196:\n        /* \"#utility.yul\":10823:11014   */\n      swap3\n      swap2\n      pop\n      pop\n      jump\t// out\n        /* \"#utility.yul\":11020:11214   */\n    tag_62:\n        /* \"#utility.yul\":11060:11064   */\n      0x00\n        /* \"#utility.yul\":11080:11100   */\n      tag_199\n        /* \"#utility.yul\":11098:11099   */\n      dup3\n        /* \"#utility.yul\":11080:11100   */\n      tag_72\n      jump\t// in\n    tag_199:\n        /* \"#utility.yul\":11075:11100   */\n      swap2\n      pop\n        /* \"#utility.yul\":11114:11134   */\n      tag_200\n        /* \"#utility.yul\":11132:11133   */\n      dup4\n        /* \"#utility.yul\":11114:11134   */\n      tag_72\n      jump\t// in\n    tag_200:\n        /* \"#utility.yul\":11109:11134   */\n      swap3\n      pop\n        /* \"#utility.yul\":11158:11159   */\n      dup3\n        /* \"#utility.yul\":11155:11156   */\n      dup3\n        /* \"#utility.yul\":11151:11160   */\n      sub\n        /* \"#utility.yul\":11143:11160   */\n      swap1\n      pop\n        /* \"#utility.yul\":11182:11183   */\n      dup2\n        /* \"#utility.yul\":11176:11180   */\n      dup2\n        /* \"#utility.yul\":11173:11184   */\n      gt\n        /* \"#utility.yul\":11170:11207   */\n      iszero\n      tag_201\n      jumpi\n        /* \"#utility.yul\":11187:11205   */\n      tag_202\n      tag_93\n      jump\t// in\n    tag_202:\n        /* \"#utility.yul\":11170:11207   */\n    tag_201:\n        /* \"#utility.yul\":11020:11214   */\n      swap3\n      swap2\n      pop\n      pop\n      jump\t// out\n        /* \"#utility.yul\":11220:11540   */\n    tag_64:\n        /* \"#utility.yul\":11335:11339   */\n      0x00\n        /* \"#utility.yul\":11373:11375   */\n      0x40\n        /* \"#utility.yul\":11362:11371   */\n      dup3\n        /* \"#utility.yul\":11358:11376   */\n      add\n        /* \"#utility.yul\":11350:11376   */\n      swap1\n      pop\n        /* \"#utility.yul\":11386:11451   */\n      tag_204\n        /* \"#utility.yul\":11448:11449   */\n      0x00\n        /* \"#utility.yul\":11437:11446   */\n      dup4\n        /* \"#utility.yul\":11433:11450   */\n      add\n        /* \"#utility.yul\":11424:11430   */\n      dup6\n        /* \"#utility.yul\":11386:11451   */\n      tag_77\n      jump\t// in\n    tag_204:\n        /* \"#utility.yul\":11461:11533   */\n      tag_205\n        /* \"#utility.yul\":11529:11531   */\n      0x20\n        /* \"#utility.yul\":11518:11527   */\n      dup4\n        /* \"#utility.yul\":11514:11532   */\n      add\n        /* \"#utility.yul\":11505:11511   */\n      dup5\n        /* \"#utility.yul\":11461:11533   */\n      tag_73\n      jump\t// in\n    tag_205:\n        /* \"#utility.yul\":11220:11540   */\n      swap4\n      swap3\n      pop\n      pop\n      pop\n      jump\t// out\n\n    auxdata: 0xa2646970667358221220b117a5d243927bed34c814364acf0a06f80c146e46da8f93495b3986fa7fc0f864736f6c63430008140033\n}\n",
				"bytecode": {
					"linkReferences": {},
					"object": "6080604052683635c9adc5dea0000060025534801561001c575f80fd5b50610c8f8061002a5f395ff3fe608060405234801561000f575f80fd5b5060043610610060575f3560e01c80630700037d146100645780630e15561a146100945780635e42b455146100b2578063648ec7b9146100d05780636989215e14610102578063bf0844081461011e575b5f80fd5b61007e60048036038101906100799190610711565b61013a565b60405161008b9190610754565b60405180910390f35b61009c61014f565b6040516100a99190610754565b60405180910390f35b6100ba610155565b6040516100c79190610754565b60405180910390f35b6100ea60048036038101906100e59190610711565b610199565b6040516100f99392919061079f565b60405180910390f35b61011c60048036038101906101179190610828565b6101ca565b005b61013860048036038101906101339190610866565b61036f565b005b6001602052805f5260405f205f915090505481565b60025481565b5f60015f3373ffffffffffffffffffffffffffffffffffffffff1673ffffffffffffffffffffffffffffffffffffffff1681526020019081526020015f2054905090565b5f602052805f5260405f205f91509050805f015490806001015490806002015f9054906101000a900460ff16905083565b5f801b5f803373ffffffffffffffffffffffffffffffffffffffff1673ffffffffffffffffffffffffffffffffffffffff1681526020019081526020015f205f01541461024c576040517f08c379a0000000000000000000000000000000000000000000000000000000008152600401610243906108eb565b60405180910390fd5b5f811161028e576040517f08c379a000000000000000000000000000000000000000000000000000000000815260040161028590610979565b60405180910390fd5b60405180606001604052808381526020018281526020015f15158152505f803373ffffffffffffffffffffffffffffffffffffffff1673ffffffffffffffffffffffffffffffffffffffff1681526020019081526020015f205f820151815f0155602082015181600101556040820151816002015f6101000a81548160ff0219169083151502179055509050503373ffffffffffffffffffffffffffffffffffffffff167fe2eb33eec42936fce5a1488187b0b2acf48613ce9b785240c133904e680df2b38284604051610363929190610997565b60405180910390a25050565b5f801b5f803373ffffffffffffffffffffffffffffffffffffffff1673ffffffffffffffffffffffffffffffffffffffff1681526020019081526020015f205f0154036103f1576040517f08c379a00000000000000000000000000000000000000000000000000000000081526004016103e890610a08565b60405180910390fd5b5f803373ffffffffffffffffffffffffffffffffffffffff1673ffffffffffffffffffffffffffffffffffffffff1681526020019081526020015f206002015f9054906101000a900460ff161561047d576040517f08c379a000000000000000000000000000000000000000000000000000000000815260040161047490610a70565b60405180910390fd5b5f805f3373ffffffffffffffffffffffffffffffffffffffff1673ffffffffffffffffffffffffffffffffffffffff1681526020019081526020015f205f01548214905080610501576040517f08c379a00000000000000000000000000000000000000000000000000000000081526004016104f890610ad8565b60405180910390fd5b60015f803373ffffffffffffffffffffffffffffffffffffffff1673ffffffffffffffffffffffffffffffffffffffff1681526020019081526020015f206002015f6101000a81548160ff0219169083151502179055505f670de0b6b3a76400005f803373ffffffffffffffffffffffffffffffffffffffff1673ffffffffffffffffffffffffffffffffffffffff1681526020019081526020015f20600101546105ac9190610b23565b90506002548111156105f3576040517f08c379a00000000000000000000000000000000000000000000000000000000081526004016105ea90610bae565b60405180910390fd5b8060015f3373ffffffffffffffffffffffffffffffffffffffff1673ffffffffffffffffffffffffffffffffffffffff1681526020019081526020015f205f82825461063f9190610bcc565b925050819055508060025f8282546106579190610bff565b925050819055503373ffffffffffffffffffffffffffffffffffffffff167f7d8f1a1a8984821006da08e5f4d59660b0f444d4fcca71bd99448c27057bfd5083836040516106a6929190610c32565b60405180910390a2505050565b5f80fd5b5f73ffffffffffffffffffffffffffffffffffffffff82169050919050565b5f6106e0826106b7565b9050919050565b6106f0816106d6565b81146106fa575f80fd5b50565b5f8135905061070b816106e7565b92915050565b5f60208284031215610726576107256106b3565b5b5f610733848285016106fd565b91505092915050565b5f819050919050565b61074e8161073c565b82525050565b5f6020820190506107675f830184610745565b92915050565b5f819050919050565b61077f8161076d565b82525050565b5f8115159050919050565b61079981610785565b82525050565b5f6060820190506107b25f830186610776565b6107bf6020830185610745565b6107cc6040830184610790565b949350505050565b6107dd8161076d565b81146107e7575f80fd5b50565b5f813590506107f8816107d4565b92915050565b6108078161073c565b8114610811575f80fd5b50565b5f81359050610822816107fe565b92915050565b5f806040838503121561083e5761083d6106b3565b5b5f61084b858286016107ea565b925050602061085c85828601610814565b9150509250929050565b5f6020828403121561087b5761087a6106b3565b5b5f610888848285016107ea565b91505092915050565b5f82825260208201905092915050565b7f416c726561647920636f6d6d69747465640000000000000000000000000000005f82015250565b5f6108d5601183610891565b91506108e0826108a1565b602082019050919050565b5f6020820190508181035f830152610902816108c9565b9050919050565b7f53706163652073697a65206d7573742062652067726561746572207468616e205f8201527f7a65726f00000000000000000000000000000000000000000000000000000000602082015250565b5f610963602483610891565b915061096e82610909565b604082019050919050565b5f6020820190508181035f83015261099081610957565b9050919050565b5f6040820190506109aa5f830185610745565b6109b76020830184610776565b9392505050565b7f4e6f20636f6d6d69746d656e7420666f756e64000000000000000000000000005f82015250565b5f6109f2601383610891565b91506109fd826109be565b602082019050919050565b5f6020820190508181035f830152610a1f816109e6565b9050919050565b7f416c72656164792070726f76656e0000000000000000000000000000000000005f82015250565b5f610a5a600e83610891565b9150610a6582610a26565b602082019050919050565b5f6020820190508181035f830152610a8781610a4e565b9050919050565b7f496e76616c69642070726f6f66000000000000000000000000000000000000005f82015250565b5f610ac2600d83610891565b9150610acd82610a8e565b602082019050919050565b5f6020820190508181035f830152610aef81610ab6565b9050919050565b7f4e487b71000000000000000000000000000000000000000000000000000000005f52601160045260245ffd5b5f610b2d8261073c565b9150610b388361073c565b9250828202610b468161073c565b91508282048414831517610b5d57610b5c610af6565b5b5092915050565b7f4e6f7420656e6f756768207265776172647320617661696c61626c65000000005f82015250565b5f610b98601c83610891565b9150610ba382610b64565b602082019050919050565b5f6020820190508181035f830152610bc581610b8c565b9050919050565b5f610bd68261073c565b9150610be18361073c565b9250828201905080821115610bf957610bf8610af6565b5b92915050565b5f610c098261073c565b9150610c148361073c565b9250828203905081811115610c2c57610c2b610af6565b5b92915050565b5f604082019050610c455f830185610790565b610c526020830184610745565b939250505056fea2646970667358221220b117a5d243927bed34c814364acf0a06f80c146e46da8f93495b3986fa7fc0f864736f6c63430008140033",
					"opcodes": "PUSH1 0x80 PUSH1 0x40 MSTORE PUSH9 0x3635C9ADC5DEA00000 PUSH1 0x2 SSTORE CALLVALUE DUP1 ISZERO PUSH2 0x1C JUMPI PUSH0 DUP1 REVERT JUMPDEST POP PUSH2 0xC8F DUP1 PUSH2 0x2A PUSH0 CODECOPY PUSH0 RETURN INVALID PUSH1 0x80 PUSH1 0x40 MSTORE CALLVALUE DUP1 ISZERO PUSH2 0xF JUMPI PUSH0 DUP1 REVERT JUMPDEST POP PUSH1 0x4 CALLDATASIZE LT PUSH2 0x60 JUMPI PUSH0 CALLDATALOAD PUSH1 0xE0 SHR DUP1 PUSH4 0x700037D EQ PUSH2 0x64 JUMPI DUP1 PUSH4 0xE15561A EQ PUSH2 0x94 JUMPI DUP1 PUSH4 0x5E42B455 EQ PUSH2 0xB2 JUMPI DUP1 PUSH4 0x648EC7B9 EQ PUSH2 0xD0 JUMPI DUP1 PUSH4 0x6989215E EQ PUSH2 0x102 JUMPI DUP1 PUSH4 0xBF084408 EQ PUSH2 0x11E JUMPI JUMPDEST PUSH0 DUP1 REVERT JUMPDEST PUSH2 0x7E PUSH1 0x4 DUP1 CALLDATASIZE SUB DUP2 ADD SWAP1 PUSH2 0x79 SWAP2 SWAP1 PUSH2 0x711 JUMP JUMPDEST PUSH2 0x13A JUMP JUMPDEST PUSH1 0x40 MLOAD PUSH2 0x8B SWAP2 SWAP1 PUSH2 0x754 JUMP JUMPDEST PUSH1 0x40 MLOAD DUP1 SWAP2 SUB SWAP1 RETURN JUMPDEST PUSH2 0x9C PUSH2 0x14F JUMP JUMPDEST PUSH1 0x40 MLOAD PUSH2 0xA9 SWAP2 SWAP1 PUSH2 0x754 JUMP JUMPDEST PUSH1 0x40 MLOAD DUP1 SWAP2 SUB SWAP1 RETURN JUMPDEST PUSH2 0xBA PUSH2 0x155 JUMP JUMPDEST PUSH1 0x40 MLOAD PUSH2 0xC7 SWAP2 SWAP1 PUSH2 0x754 JUMP JUMPDEST PUSH1 0x40 MLOAD DUP1 SWAP2 SUB SWAP1 RETURN JUMPDEST PUSH2 0xEA PUSH1 0x4 DUP1 CALLDATASIZE SUB DUP2 ADD SWAP1 PUSH2 0xE5 SWAP2 SWAP1 PUSH2 0x711 JUMP JUMPDEST PUSH2 0x199 JUMP JUMPDEST PUSH1 0x40 MLOAD PUSH2 0xF9 SWAP4 SWAP3 SWAP2 SWAP1 PUSH2 0x79F JUMP JUMPDEST PUSH1 0x40 MLOAD DUP1 SWAP2 SUB SWAP1 RETURN JUMPDEST PUSH2 0x11C PUSH1 0x4 DUP1 CALLDATASIZE SUB DUP2 ADD SWAP1 PUSH2 0x117 SWAP2 SWAP1 PUSH2 0x828 JUMP JUMPDEST PUSH2 0x1CA JUMP JUMPDEST STOP JUMPDEST PUSH2 0x138 PUSH1 0x4 DUP1 CALLDATASIZE SUB DUP2 ADD SWAP1 PUSH2 0x133 SWAP2 SWAP1 PUSH2 0x866 JUMP JUMPDEST PUSH2 0x36F JUMP JUMPDEST STOP JUMPDEST PUSH1 0x1 PUSH1 0x20 MSTORE DUP1 PUSH0 MSTORE PUSH1 0x40 PUSH0 KECCAK256 PUSH0 SWAP2 POP SWAP1 POP SLOAD DUP2 JUMP JUMPDEST PUSH1 0x2 SLOAD DUP2 JUMP JUMPDEST PUSH0 PUSH1 0x1 PUSH0 CALLER PUSH20 0xFFFFFFFFFFFFFFFFFFFFFFFFFFFFFFFFFFFFFFFF AND PUSH20 0xFFFFFFFFFFFFFFFFFFFFFFFFFFFFFFFFFFFFFFFF AND DUP2 MSTORE PUSH1 0x20 ADD SWAP1 DUP2 MSTORE PUSH1 0x20 ADD PUSH0 KECCAK256 SLOAD SWAP1 POP SWAP1 JUMP JUMPDEST PUSH0 PUSH1 0x20 MSTORE DUP1 PUSH0 MSTORE PUSH1 0x40 PUSH0 KECCAK256 PUSH0 SWAP2 POP SWAP1 POP DUP1 PUSH0 ADD SLOAD SWAP1 DUP1 PUSH1 0x1 ADD SLOAD SWAP1 DUP1 PUSH1 0x2 ADD PUSH0 SWAP1 SLOAD SWAP1 PUSH2 0x100 EXP SWAP1 DIV PUSH1 0xFF AND SWAP1 POP DUP4 JUMP JUMPDEST PUSH0 DUP1 SHL PUSH0 DUP1 CALLER PUSH20 0xFFFFFFFFFFFFFFFFFFFFFFFFFFFFFFFFFFFFFFFF AND PUSH20 0xFFFFFFFFFFFFFFFFFFFFFFFFFFFFFFFFFFFFFFFF AND DUP2 MSTORE PUSH1 0x20 ADD SWAP1 DUP2 MSTORE PUSH1 0x20 ADD PUSH0 KECCAK256 PUSH0 ADD SLOAD EQ PUSH2 0x24C JUMPI PUSH1 0x40 MLOAD PUSH32 0x8C379A000000000000000000000000000000000000000000000000000000000 DUP2 MSTORE PUSH1 0x4 ADD PUSH2 0x243 SWAP1 PUSH2 0x8EB JUMP JUMPDEST PUSH1 0x40 MLOAD DUP1 SWAP2 SUB SWAP1 REVERT JUMPDEST PUSH0 DUP2 GT PUSH2 0x28E JUMPI PUSH1 0x40 MLOAD PUSH32 0x8C379A000000000000000000000000000000000000000000000000000000000 DUP2 MSTORE PUSH1 0x4 ADD PUSH2 0x285 SWAP1 PUSH2 0x979 JUMP JUMPDEST PUSH1 0x40 MLOAD DUP1 SWAP2 SUB SWAP1 REVERT JUMPDEST PUSH1 0x40 MLOAD DUP1 PUSH1 0x60 ADD PUSH1 0x40 MSTORE DUP1 DUP4 DUP2 MSTORE PUSH1 0x20 ADD DUP3 DUP2 MSTORE PUSH1 0x20 ADD PUSH0 ISZERO ISZERO DUP2 MSTORE POP PUSH0 DUP1 CALLER PUSH20 0xFFFFFFFFFFFFFFFFFFFFFFFFFFFFFFFFFFFFFFFF AND PUSH20 0xFFFFFFFFFFFFFFFFFFFFFFFFFFFFFFFFFFFFFFFF AND DUP2 MSTORE PUSH1 0x20 ADD SWAP1 DUP2 MSTORE PUSH1 0x20 ADD PUSH0 KECCAK256 PUSH0 DUP3 ADD MLOAD DUP2 PUSH0 ADD SSTORE PUSH1 0x20 DUP3 ADD MLOAD DUP2 PUSH1 0x1 ADD SSTORE PUSH1 0x40 DUP3 ADD MLOAD DUP2 PUSH1 0x2 ADD PUSH0 PUSH2 0x100 EXP DUP2 SLOAD DUP2 PUSH1 0xFF MUL NOT AND SWAP1 DUP4 ISZERO ISZERO MUL OR SWAP1 SSTORE POP SWAP1 POP POP CALLER PUSH20 0xFFFFFFFFFFFFFFFFFFFFFFFFFFFFFFFFFFFFFFFF AND PUSH32 0xE2EB33EEC42936FCE5A1488187B0B2ACF48613CE9B785240C133904E680DF2B3 DUP3 DUP5 PUSH1 0x40 MLOAD PUSH2 0x363 SWAP3 SWAP2 SWAP1 PUSH2 0x997 JUMP JUMPDEST PUSH1 0x40 MLOAD DUP1 SWAP2 SUB SWAP1 LOG2 POP POP JUMP JUMPDEST PUSH0 DUP1 SHL PUSH0 DUP1 CALLER PUSH20 0xFFFFFFFFFFFFFFFFFFFFFFFFFFFFFFFFFFFFFFFF AND PUSH20 0xFFFFFFFFFFFFFFFFFFFFFFFFFFFFFFFFFFFFFFFF AND DUP2 MSTORE PUSH1 0x20 ADD SWAP1 DUP2 MSTORE PUSH1 0x20 ADD PUSH0 KECCAK256 PUSH0 ADD SLOAD SUB PUSH2 0x3F1 JUMPI PUSH1 0x40 MLOAD PUSH32 0x8C379A000000000000000000000000000000000000000000000000000000000 DUP2 MSTORE PUSH1 0x4 ADD PUSH2 0x3E8 SWAP1 PUSH2 0xA08 JUMP JUMPDEST PUSH1 0x40 MLOAD DUP1 SWAP2 SUB SWAP1 REVERT JUMPDEST PUSH0 DUP1 CALLER PUSH20 0xFFFFFFFFFFFFFFFFFFFFFFFFFFFFFFFFFFFFFFFF AND PUSH20 0xFFFFFFFFFFFFFFFFFFFFFFFFFFFFFFFFFFFFFFFF AND DUP2 MSTORE PUSH1 0x20 ADD SWAP1 DUP2 MSTORE PUSH1 0x20 ADD PUSH0 KECCAK256 PUSH1 0x2 ADD PUSH0 SWAP1 SLOAD SWAP1 PUSH2 0x100 EXP SWAP1 DIV PUSH1 0xFF AND ISZERO PUSH2 0x47D JUMPI PUSH1 0x40 MLOAD PUSH32 0x8C379A000000000000000000000000000000000000000000000000000000000 DUP2 MSTORE PUSH1 0x4 ADD PUSH2 0x474 SWAP1 PUSH2 0xA70 JUMP JUMPDEST PUSH1 0x40 MLOAD DUP1 SWAP2 SUB SWAP1 REVERT JUMPDEST PUSH0 DUP1 PUSH0 CALLER PUSH20 0xFFFFFFFFFFFFFFFFFFFFFFFFFFFFFFFFFFFFFFFF AND PUSH20 0xFFFFFFFFFFFFFFFFFFFFFFFFFFFFFFFFFFFFFFFF AND DUP2 MSTORE PUSH1 0x20 ADD SWAP1 DUP2 MSTORE PUSH1 0x20 ADD PUSH0 KECCAK256 PUSH0 ADD SLOAD DUP3 EQ SWAP1 POP DUP1 PUSH2 0x501 JUMPI PUSH1 0x40 MLOAD PUSH32 0x8C379A000000000000000000000000000000000000000000000000000000000 DUP2 MSTORE PUSH1 0x4 ADD PUSH2 0x4F8 SWAP1 PUSH2 0xAD8 JUMP JUMPDEST PUSH1 0x40 MLOAD DUP1 SWAP2 SUB SWAP1 REVERT JUMPDEST PUSH1 0x1 PUSH0 DUP1 CALLER PUSH20 0xFFFFFFFFFFFFFFFFFFFFFFFFFFFFFFFFFFFFFFFF AND PUSH20 0xFFFFFFFFFFFFFFFFFFFFFFFFFFFFFFFFFFFFFFFF AND DUP2 MSTORE PUSH1 0x20 ADD SWAP1 DUP2 MSTORE PUSH1 0x20 ADD PUSH0 KECCAK256 PUSH1 0x2 ADD PUSH0 PUSH2 0x100 EXP DUP2 SLOAD DUP2 PUSH1 0xFF MUL NOT AND SWAP1 DUP4 ISZERO ISZERO MUL OR SWAP1 SSTORE POP PUSH0 PUSH8 0xDE0B6B3A7640000 PUSH0 DUP1 CALLER PUSH20 0xFFFFFFFFFFFFFFFFFFFFFFFFFFFFFFFFFFFFFFFF AND PUSH20 0xFFFFFFFFFFFFFFFFFFFFFFFFFFFFFFFFFFFFFFFF AND DUP2 MSTORE PUSH1 0x20 ADD SWAP1 DUP2 MSTORE PUSH1 0x20 ADD PUSH0 KECCAK256 PUSH1 0x1 ADD SLOAD PUSH2 0x5AC SWAP2 SWAP1 PUSH2 0xB23 JUMP JUMPDEST SWAP1 POP PUSH1 0x2 SLOAD DUP2 GT ISZERO PUSH2 0x5F3 JUMPI PUSH1 0x40 MLOAD PUSH32 0x8C379A000000000000000000000000000000000000000000000000000000000 DUP2 MSTORE PUSH1 0x4 ADD PUSH2 0x5EA SWAP1 PUSH2 0xBAE JUMP JUMPDEST PUSH1 0x40 MLOAD DUP1 SWAP2 SUB SWAP1 REVERT JUMPDEST DUP1 PUSH1 0x1 PUSH0 CALLER PUSH20 0xFFFFFFFFFFFFFFFFFFFFFFFFFFFFFFFFFFFFFFFF AND PUSH20 0xFFFFFFFFFFFFFFFFFFFFFFFFFFFFFFFFFFFFFFFF AND DUP2 MSTORE PUSH1 0x20 ADD SWAP1 DUP2 MSTORE PUSH1 0x20 ADD PUSH0 KECCAK256 PUSH0 DUP3 DUP3 SLOAD PUSH2 0x63F SWAP2 SWAP1 PUSH2 0xBCC JUMP JUMPDEST SWAP3 POP POP DUP2 SWAP1 SSTORE POP DUP1 PUSH1 0x2 PUSH0 DUP3 DUP3 SLOAD PUSH2 0x657 SWAP2 SWAP1 PUSH2 0xBFF JUMP JUMPDEST SWAP3 POP POP DUP2 SWAP1 SSTORE POP CALLER PUSH20 0xFFFFFFFFFFFFFFFFFFFFFFFFFFFFFFFFFFFFFFFF AND PUSH32 0x7D8F1A1A8984821006DA08E5F4D59660B0F444D4FCCA71BD99448C27057BFD50 DUP4 DUP4 PUSH1 0x40 MLOAD PUSH2 0x6A6 SWAP3 SWAP2 SWAP1 PUSH2 0xC32 JUMP JUMPDEST PUSH1 0x40 MLOAD DUP1 SWAP2 SUB SWAP1 LOG2 POP POP POP JUMP JUMPDEST PUSH0 DUP1 REVERT JUMPDEST PUSH0 PUSH20 0xFFFFFFFFFFFFFFFFFFFFFFFFFFFFFFFFFFFFFFFF DUP3 AND SWAP1 POP SWAP2 SWAP1 POP JUMP JUMPDEST PUSH0 PUSH2 0x6E0 DUP3 PUSH2 0x6B7 JUMP JUMPDEST SWAP1 POP SWAP2 SWAP1 POP JUMP JUMPDEST PUSH2 0x6F0 DUP2 PUSH2 0x6D6 JUMP JUMPDEST DUP2 EQ PUSH2 0x6FA JUMPI PUSH0 DUP1 REVERT JUMPDEST POP JUMP JUMPDEST PUSH0 DUP2 CALLDATALOAD SWAP1 POP PUSH2 0x70B DUP2 PUSH2 0x6E7 JUMP JUMPDEST SWAP3 SWAP2 POP POP JUMP JUMPDEST PUSH0 PUSH1 0x20 DUP3 DUP5 SUB SLT ISZERO PUSH2 0x726 JUMPI PUSH2 0x725 PUSH2 0x6B3 JUMP JUMPDEST JUMPDEST PUSH0 PUSH2 0x733 DUP5 DUP3 DUP6 ADD PUSH2 0x6FD JUMP JUMPDEST SWAP2 POP POP SWAP3 SWAP2 POP POP JUMP JUMPDEST PUSH0 DUP2 SWAP1 POP SWAP2 SWAP1 POP JUMP JUMPDEST PUSH2 0x74E DUP2 PUSH2 0x73C JUMP JUMPDEST DUP3 MSTORE POP POP JUMP JUMPDEST PUSH0 PUSH1 0x20 DUP3 ADD SWAP1 POP PUSH2 0x767 PUSH0 DUP4 ADD DUP5 PUSH2 0x745 JUMP JUMPDEST SWAP3 SWAP2 POP POP JUMP JUMPDEST PUSH0 DUP2 SWAP1 POP SWAP2 SWAP1 POP JUMP JUMPDEST PUSH2 0x77F DUP2 PUSH2 0x76D JUMP JUMPDEST DUP3 MSTORE POP POP JUMP JUMPDEST PUSH0 DUP2 ISZERO ISZERO SWAP1 POP SWAP2 SWAP1 POP JUMP JUMPDEST PUSH2 0x799 DUP2 PUSH2 0x785 JUMP JUMPDEST DUP3 MSTORE POP POP JUMP JUMPDEST PUSH0 PUSH1 0x60 DUP3 ADD SWAP1 POP PUSH2 0x7B2 PUSH0 DUP4 ADD DUP7 PUSH2 0x776 JUMP JUMPDEST PUSH2 0x7BF PUSH1 0x20 DUP4 ADD DUP6 PUSH2 0x745 JUMP JUMPDEST PUSH2 0x7CC PUSH1 0x40 DUP4 ADD DUP5 PUSH2 0x790 JUMP JUMPDEST SWAP5 SWAP4 POP POP POP POP JUMP JUMPDEST PUSH2 0x7DD DUP2 PUSH2 0x76D JUMP JUMPDEST DUP2 EQ PUSH2 0x7E7 JUMPI PUSH0 DUP1 REVERT JUMPDEST POP JUMP JUMPDEST PUSH0 DUP2 CALLDATALOAD SWAP1 POP PUSH2 0x7F8 DUP2 PUSH2 0x7D4 JUMP JUMPDEST SWAP3 SWAP2 POP POP JUMP JUMPDEST PUSH2 0x807 DUP2 PUSH2 0x73C JUMP JUMPDEST DUP2 EQ PUSH2 0x811 JUMPI PUSH0 DUP1 REVERT JUMPDEST POP JUMP JUMPDEST PUSH0 DUP2 CALLDATALOAD SWAP1 POP PUSH2 0x822 DUP2 PUSH2 0x7FE JUMP JUMPDEST SWAP3 SWAP2 POP POP JUMP JUMPDEST PUSH0 DUP1 PUSH1 0x40 DUP4 DUP6 SUB SLT ISZERO PUSH2 0x83E JUMPI PUSH2 0x83D PUSH2 0x6B3 JUMP JUMPDEST JUMPDEST PUSH0 PUSH2 0x84B DUP6 DUP3 DUP7 ADD PUSH2 0x7EA JUMP JUMPDEST SWAP3 POP POP PUSH1 0x20 PUSH2 0x85C DUP6 DUP3 DUP7 ADD PUSH2 0x814 JUMP JUMPDEST SWAP2 POP POP SWAP3 POP SWAP3 SWAP1 POP JUMP JUMPDEST PUSH0 PUSH1 0x20 DUP3 DUP5 SUB SLT ISZERO PUSH2 0x87B JUMPI PUSH2 0x87A PUSH2 0x6B3 JUMP JUMPDEST JUMPDEST PUSH0 PUSH2 0x888 DUP5 DUP3 DUP6 ADD PUSH2 0x7EA JUMP JUMPDEST SWAP2 POP POP SWAP3 SWAP2 POP POP JUMP JUMPDEST PUSH0 DUP3 DUP3 MSTORE PUSH1 0x20 DUP3 ADD SWAP1 POP SWAP3 SWAP2 POP POP JUMP JUMPDEST PUSH32 0x416C726561647920636F6D6D6974746564000000000000000000000000000000 PUSH0 DUP3 ADD MSTORE POP JUMP JUMPDEST PUSH0 PUSH2 0x8D5 PUSH1 0x11 DUP4 PUSH2 0x891 JUMP JUMPDEST SWAP2 POP PUSH2 0x8E0 DUP3 PUSH2 0x8A1 JUMP JUMPDEST PUSH1 0x20 DUP3 ADD SWAP1 POP SWAP2 SWAP1 POP JUMP JUMPDEST PUSH0 PUSH1 0x20 DUP3 ADD SWAP1 POP DUP2 DUP2 SUB PUSH0 DUP4 ADD MSTORE PUSH2 0x902 DUP2 PUSH2 0x8C9 JUMP JUMPDEST SWAP1 POP SWAP2 SWAP1 POP JUMP JUMPDEST PUSH32 0x53706163652073697A65206D7573742062652067726561746572207468616E20 PUSH0 DUP3 ADD MSTORE PUSH32 0x7A65726F00000000000000000000000000000000000000000000000000000000 PUSH1 0x20 DUP3 ADD MSTORE POP JUMP JUMPDEST PUSH0 PUSH2 0x963 PUSH1 0x24 DUP4 PUSH2 0x891 JUMP JUMPDEST SWAP2 POP PUSH2 0x96E DUP3 PUSH2 0x909 JUMP JUMPDEST PUSH1 0x40 DUP3 ADD SWAP1 POP SWAP2 SWAP1 POP JUMP JUMPDEST PUSH0 PUSH1 0x20 DUP3 ADD SWAP1 POP DUP2 DUP2 SUB PUSH0 DUP4 ADD MSTORE PUSH2 0x990 DUP2 PUSH2 0x957 JUMP JUMPDEST SWAP1 POP SWAP2 SWAP1 POP JUMP JUMPDEST PUSH0 PUSH1 0x40 DUP3 ADD SWAP1 POP PUSH2 0x9AA PUSH0 DUP4 ADD DUP6 PUSH2 0x745 JUMP JUMPDEST PUSH2 0x9B7 PUSH1 0x20 DUP4 ADD DUP5 PUSH2 0x776 JUMP JUMPDEST SWAP4 SWAP3 POP POP POP JUMP JUMPDEST PUSH32 0x4E6F20636F6D6D69746D656E7420666F756E6400000000000000000000000000 PUSH0 DUP3 ADD MSTORE POP JUMP JUMPDEST PUSH0 PUSH2 0x9F2 PUSH1 0x13 DUP4 PUSH2 0x891 JUMP JUMPDEST SWAP2 POP PUSH2 0x9FD DUP3 PUSH2 0x9BE JUMP JUMPDEST PUSH1 0x20 DUP3 ADD SWAP1 POP SWAP2 SWAP1 POP JUMP JUMPDEST PUSH0 PUSH1 0x20 DUP3 ADD SWAP1 POP DUP2 DUP2 SUB PUSH0 DUP4 ADD MSTORE PUSH2 0xA1F DUP2 PUSH2 0x9E6 JUMP JUMPDEST SWAP1 POP SWAP2 SWAP1 POP JUMP JUMPDEST PUSH32 0x416C72656164792070726F76656E000000000000000000000000000000000000 PUSH0 DUP3 ADD MSTORE POP JUMP JUMPDEST PUSH0 PUSH2 0xA5A PUSH1 0xE DUP4 PUSH2 0x891 JUMP JUMPDEST SWAP2 POP PUSH2 0xA65 DUP3 PUSH2 0xA26 JUMP JUMPDEST PUSH1 0x20 DUP3 ADD SWAP1 POP SWAP2 SWAP1 POP JUMP JUMPDEST PUSH0 PUSH1 0x20 DUP3 ADD SWAP1 POP DUP2 DUP2 SUB PUSH0 DUP4 ADD MSTORE PUSH2 0xA87 DUP2 PUSH2 0xA4E JUMP JUMPDEST SWAP1 POP SWAP2 SWAP1 POP JUMP JUMPDEST PUSH32 0x496E76616C69642070726F6F6600000000000000000000000000000000000000 PUSH0 DUP3 ADD MSTORE POP JUMP JUMPDEST PUSH0 PUSH2 0xAC2 PUSH1 0xD DUP4 PUSH2 0x891 JUMP JUMPDEST SWAP2 POP PUSH2 0xACD DUP3 PUSH2 0xA8E JUMP JUMPDEST PUSH1 0x20 DUP3 ADD SWAP1 POP SWAP2 SWAP1 POP JUMP JUMPDEST PUSH0 PUSH1 0x20 DUP3 ADD SWAP1 POP DUP2 DUP2 SUB PUSH0 DUP4 ADD MSTORE PUSH2 0xAEF DUP2 PUSH2 0xAB6 JUMP JUMPDEST SWAP1 POP SWAP2 SWAP1 POP JUMP JUMPDEST PUSH32 0x4E487B7100000000000000000000000000000000000000000000000000000000 PUSH0 MSTORE PUSH1 0x11 PUSH1 0x4 MSTORE PUSH1 0x24 PUSH0 REVERT JUMPDEST PUSH0 PUSH2 0xB2D DUP3 PUSH2 0x73C JUMP JUMPDEST SWAP2 POP PUSH2 0xB38 DUP4 PUSH2 0x73C JUMP JUMPDEST SWAP3 POP DUP3 DUP3 MUL PUSH2 0xB46 DUP2 PUSH2 0x73C JUMP JUMPDEST SWAP2 POP DUP3 DUP3 DIV DUP5 EQ DUP4 ISZERO OR PUSH2 0xB5D JUMPI PUSH2 0xB5C PUSH2 0xAF6 JUMP JUMPDEST JUMPDEST POP SWAP3 SWAP2 POP POP JUMP JUMPDEST PUSH32 0x4E6F7420656E6F756768207265776172647320617661696C61626C6500000000 PUSH0 DUP3 ADD MSTORE POP JUMP JUMPDEST PUSH0 PUSH2 0xB98 PUSH1 0x1C DUP4 PUSH2 0x891 JUMP JUMPDEST SWAP2 POP PUSH2 0xBA3 DUP3 PUSH2 0xB64 JUMP JUMPDEST PUSH1 0x20 DUP3 ADD SWAP1 POP SWAP2 SWAP1 POP JUMP JUMPDEST PUSH0 PUSH1 0x20 DUP3 ADD SWAP1 POP DUP2 DUP2 SUB PUSH0 DUP4 ADD MSTORE PUSH2 0xBC5 DUP2 PUSH2 0xB8C JUMP JUMPDEST SWAP1 POP SWAP2 SWAP1 POP JUMP JUMPDEST PUSH0 PUSH2 0xBD6 DUP3 PUSH2 0x73C JUMP JUMPDEST SWAP2 POP PUSH2 0xBE1 DUP4 PUSH2 0x73C JUMP JUMPDEST SWAP3 POP DUP3 DUP3 ADD SWAP1 POP DUP1 DUP3 GT ISZERO PUSH2 0xBF9 JUMPI PUSH2 0xBF8 PUSH2 0xAF6 JUMP JUMPDEST JUMPDEST SWAP3 SWAP2 POP POP JUMP JUMPDEST PUSH0 PUSH2 0xC09 DUP3 PUSH2 0x73C JUMP JUMPDEST SWAP2 POP PUSH2 0xC14 DUP4 PUSH2 0x73C JUMP JUMPDEST SWAP3 POP DUP3 DUP3 SUB SWAP1 POP DUP2 DUP2 GT ISZERO PUSH2 0xC2C JUMPI PUSH2 0xC2B PUSH2 0xAF6 JUMP JUMPDEST JUMPDEST SWAP3 SWAP2 POP POP JUMP JUMPDEST PUSH0 PUSH1 0x40 DUP3 ADD SWAP1 POP PUSH2 0xC45 PUSH0 DUP4 ADD DUP6 PUSH2 0x790 JUMP JUMPDEST PUSH2 0xC52 PUSH1 0x20 DUP4 ADD DUP5 PUSH2 0x745 JUMP JUMPDEST SWAP4 SWAP3 POP POP POP JUMP INVALID LOG2 PUSH5 0x6970667358 0x22 SLT KECCAK256 0xB1 OR 0xA5 0xD2 NUMBER SWAP3 PUSH28 0xED34C814364ACF0A06F80C146E46DA8F93495B3986FA7FC0F864736F PUSH13 0x63430008140033000000000000 "
				},
				"gasEstimates": {
					"creation": {
						"codeDepositCost": "643000",
						"executionCost": "22780",
						"totalCost": "665780"
					},
					"external": {
						"commitSpace(bytes32,uint256)": "infinite",
						"getRewardBalance()": "2541",
						"miners(address)": "7321",
						"rewards(address)": "2780",
						"submitProof(bytes32)": "infinite",
						"totalRewards()": "2425"
					}
				},
				"methodIdentifiers": {
					"commitSpace(bytes32,uint256)": "6989215e",
					"getRewardBalance()": "5e42b455",
					"miners(address)": "648ec7b9",
					"rewards(address)": "0700037d",
					"submitProof(bytes32)": "bf084408",
					"totalRewards()": "0e15561a"
				}
			},
			"storageLayout": {
				"storage": [
					{
						"astId": 13,
						"contract": "contracts/ProofOfSpace.sol:ProofOfSpace",
						"label": "miners",
						"offset": 0,
						"slot": "0",
						"type": "t_mapping(t_address,t_struct(Miner)8_storage)"
					},
					{
						"astId": 17,
						"contract": "contracts/ProofOfSpace.sol:ProofOfSpace",
						"label": "rewards",
						"offset": 0,
						"slot": "1",
						"type": "t_mapping(t_address,t_uint256)"
					},
					{
						"astId": 20,
						"contract": "contracts/ProofOfSpace.sol:ProofOfSpace",
						"label": "totalRewards",
						"offset": 0,
						"slot": "2",
						"type": "t_uint256"
					}
				],
				"types": {
					"t_address": {
						"encoding": "inplace",
						"label": "address",
						"numberOfBytes": "20"
					},
					"t_bool": {
						"encoding": "inplace",
						"label": "bool",
						"numberOfBytes": "1"
					},
					"t_bytes32": {
						"encoding": "inplace",
						"label": "bytes32",
						"numberOfBytes": "32"
					},
					"t_mapping(t_address,t_struct(Miner)8_storage)": {
						"encoding": "mapping",
						"key": "t_address",
						"label": "mapping(address => struct ProofOfSpace.Miner)",
						"numberOfBytes": "32",
						"value": "t_struct(Miner)8_storage"
					},
					"t_mapping(t_address,t_uint256)": {
						"encoding": "mapping",
						"key": "t_address",
						"label": "mapping(address => uint256)",
						"numberOfBytes": "32",
						"value": "t_uint256"
					},
					"t_struct(Miner)8_storage": {
						"encoding": "inplace",
						"label": "struct ProofOfSpace.Miner",
						"members": [
							{
								"astId": 3,
								"contract": "contracts/ProofOfSpace.sol:ProofOfSpace",
								"label": "commitment",
								"offset": 0,
								"slot": "0",
								"type": "t_bytes32"
							},
							{
								"astId": 5,
								"contract": "contracts/ProofOfSpace.sol:ProofOfSpace",
								"label": "spaceSize",
								"offset": 0,
								"slot": "1",
								"type": "t_uint256"
							},
							{
								"astId": 7,
								"contract": "contracts/ProofOfSpace.sol:ProofOfSpace",
								"label": "hasProven",
								"offset": 0,
								"slot": "2",
								"type": "t_bool"
							}
						],
						"numberOfBytes": "96"
					},
					"t_uint256": {
						"encoding": "inplace",
						"label": "uint256",
						"numberOfBytes": "32"
					}
				}
			},
			"userdoc": {
				"kind": "user",
				"methods": {},
				"version": 1
			}
		}
	}
}